{
  "_format": "hh-sol-artifact-1",
  "contractName": "ECHOAsset",
  "sourceName": "contracts/ECHOAsset.sol",
  "abi": [
    {
      "inputs": [],
      "stateMutability": "nonpayable",
      "type": "constructor"
    },
    {
      "anonymous": false,
      "inputs": [
        {
          "indexed": true,
          "internalType": "address",
          "name": "owner",
          "type": "address"
        },
        {
          "indexed": true,
          "internalType": "address",
          "name": "approved",
          "type": "address"
        },
        {
          "indexed": true,
          "internalType": "uint256",
          "name": "tokenId",
          "type": "uint256"
        }
      ],
      "name": "Approval",
      "type": "event"
    },
    {
      "anonymous": false,
      "inputs": [
        {
          "indexed": true,
          "internalType": "address",
          "name": "owner",
          "type": "address"
        },
        {
          "indexed": true,
          "internalType": "address",
          "name": "operator",
          "type": "address"
        },
        {
          "indexed": false,
          "internalType": "bool",
          "name": "approved",
          "type": "bool"
        }
      ],
      "name": "ApprovalForAll",
      "type": "event"
    },
    {
      "anonymous": false,
      "inputs": [
        {
          "indexed": true,
          "internalType": "uint256",
          "name": "tokenId",
          "type": "uint256"
        },
        {
          "indexed": true,
          "internalType": "address",
          "name": "creator",
          "type": "address"
        },
        {
          "indexed": false,
          "internalType": "string",
          "name": "name",
          "type": "string"
        },
        {
          "indexed": false,
          "internalType": "string",
          "name": "assetType",
          "type": "string"
        }
      ],
      "name": "AssetMinted",
      "type": "event"
    },
    {
      "anonymous": false,
      "inputs": [
        {
          "indexed": true,
          "internalType": "uint256",
          "name": "tokenId",
          "type": "uint256"
        },
        {
          "indexed": false,
          "internalType": "string",
          "name": "rightType",
          "type": "string"
        },
        {
          "indexed": true,
          "internalType": "address",
          "name": "from",
          "type": "address"
        },
        {
          "indexed": true,
          "internalType": "address",
          "name": "to",
          "type": "address"
        }
      ],
      "name": "RightTransferred",
      "type": "event"
    },
    {
      "anonymous": false,
      "inputs": [
        {
          "indexed": true,
          "internalType": "uint256",
          "name": "tokenId",
          "type": "uint256"
        },
        {
          "indexed": false,
          "internalType": "address",
          "name": "usageOwner",
          "type": "address"
        },
        {
          "indexed": false,
          "internalType": "address",
          "name": "derivativeOwner",
          "type": "address"
        },
        {
          "indexed": false,
          "internalType": "address",
          "name": "extensionOwner",
          "type": "address"
        },
        {
          "indexed": false,
          "internalType": "address",
          "name": "revenueOwner",
          "type": "address"
        }
      ],
      "name": "RightsConfigured",
      "type": "event"
    },
    {
      "anonymous": false,
      "inputs": [
        {
          "indexed": true,
          "internalType": "address",
          "name": "from",
          "type": "address"
        },
        {
          "indexed": true,
          "internalType": "address",
          "name": "to",
          "type": "address"
        },
        {
          "indexed": true,
          "internalType": "uint256",
          "name": "tokenId",
          "type": "uint256"
        }
      ],
      "name": "Transfer",
      "type": "event"
    },
    {
      "anonymous": false,
      "inputs": [
        {
          "indexed": true,
          "internalType": "uint256",
          "name": "tokenId",
          "type": "uint256"
        },
        {
          "indexed": true,
          "internalType": "address",
          "name": "user",
          "type": "address"
        },
        {
          "indexed": false,
          "internalType": "uint256",
          "name": "expiryTime",
          "type": "uint256"
        }
      ],
      "name": "UsageAuthorized",
      "type": "event"
    },
    {
      "anonymous": false,
      "inputs": [
        {
          "indexed": true,
          "internalType": "uint256",
          "name": "tokenId",
          "type": "uint256"
        },
        {
          "indexed": true,
          "internalType": "address",
          "name": "user",
          "type": "address"
        },
        {
          "indexed": false,
          "internalType": "uint256",
          "name": "amount",
          "type": "uint256"
        }
      ],
      "name": "UsagePaid",
      "type": "event"
    },
    {
      "inputs": [
        {
          "internalType": "address",
          "name": "to",
          "type": "address"
        },
        {
          "internalType": "uint256",
          "name": "tokenId",
          "type": "uint256"
        }
      ],
      "name": "approve",
      "outputs": [],
      "stateMutability": "nonpayable",
      "type": "function"
    },
    {
      "inputs": [
        {
          "internalType": "uint256",
          "name": "",
          "type": "uint256"
        }
      ],
      "name": "assetMetadata",
      "outputs": [
        {
          "internalType": "string",
          "name": "name",
          "type": "string"
        },
        {
          "internalType": "string",
          "name": "description",
          "type": "string"
        },
        {
          "internalType": "string",
          "name": "assetType",
          "type": "string"
        },
        {
          "internalType": "string",
          "name": "uri",
          "type": "string"
        },
        {
          "internalType": "uint256",
          "name": "createdAt",
          "type": "uint256"
        }
      ],
      "stateMutability": "view",
      "type": "function"
    },
    {
      "inputs": [
        {
          "internalType": "uint256",
          "name": "",
          "type": "uint256"
        }
      ],
      "name": "assetRights",
      "outputs": [
        {
          "internalType": "address",
          "name": "usageOwner",
          "type": "address"
        },
        {
          "internalType": "address",
          "name": "derivativeOwner",
          "type": "address"
        },
        {
          "internalType": "address",
          "name": "extensionOwner",
          "type": "address"
        },
        {
          "internalType": "address",
          "name": "revenueOwner",
          "type": "address"
        },
        {
          "internalType": "uint256",
          "name": "usageFee",
          "type": "uint256"
        },
        {
          "internalType": "uint256",
          "name": "revenueShare",
          "type": "uint256"
        }
      ],
      "stateMutability": "view",
      "type": "function"
    },
    {
      "inputs": [
        {
          "internalType": "address",
          "name": "owner",
          "type": "address"
        }
      ],
      "name": "balanceOf",
      "outputs": [
        {
          "internalType": "uint256",
          "name": "",
          "type": "uint256"
        }
      ],
      "stateMutability": "view",
      "type": "function"
    },
    {
      "inputs": [
        {
          "internalType": "uint256",
          "name": "tokenId",
          "type": "uint256"
        }
      ],
      "name": "getApproved",
      "outputs": [
        {
          "internalType": "address",
          "name": "",
          "type": "address"
        }
      ],
      "stateMutability": "view",
      "type": "function"
    },
    {
      "inputs": [
        {
          "internalType": "uint256",
          "name": "tokenId",
          "type": "uint256"
        }
      ],
      "name": "getAssetInfo",
      "outputs": [
        {
          "components": [
            {
              "internalType": "string",
              "name": "name",
              "type": "string"
            },
            {
              "internalType": "string",
              "name": "description",
              "type": "string"
            },
            {
              "internalType": "string",
              "name": "assetType",
              "type": "string"
            },
            {
              "internalType": "string",
              "name": "uri",
              "type": "string"
            },
            {
              "internalType": "uint256",
              "name": "createdAt",
              "type": "uint256"
            }
          ],
          "internalType": "struct ECHOAsset.AssetMetadata",
          "name": "metadata",
          "type": "tuple"
        },
        {
          "components": [
            {
              "internalType": "address",
              "name": "usageOwner",
              "type": "address"
            },
            {
              "internalType": "address",
              "name": "derivativeOwner",
              "type": "address"
            },
            {
              "internalType": "address",
              "name": "extensionOwner",
              "type": "address"
            },
            {
              "internalType": "address",
              "name": "revenueOwner",
              "type": "address"
            },
            {
              "internalType": "uint256",
              "name": "usageFee",
              "type": "uint256"
            },
            {
              "internalType": "uint256",
              "name": "revenueShare",
              "type": "uint256"
            }
          ],
          "internalType": "struct ECHOAsset.Rights",
          "name": "rights",
          "type": "tuple"
        },
        {
          "internalType": "address",
          "name": "creator",
          "type": "address"
        }
      ],
      "stateMutability": "view",
      "type": "function"
    },
    {
      "inputs": [],
      "name": "getCurrentTokenId",
      "outputs": [
        {
          "internalType": "uint256",
          "name": "",
          "type": "uint256"
        }
      ],
      "stateMutability": "view",
      "type": "function"
    },
    {
      "inputs": [
        {
          "internalType": "uint256",
          "name": "tokenId",
          "type": "uint256"
        },
        {
          "internalType": "address",
          "name": "user",
          "type": "address"
        }
      ],
      "name": "hasUsageRight",
      "outputs": [
        {
          "internalType": "bool",
          "name": "",
          "type": "bool"
        }
      ],
      "stateMutability": "view",
      "type": "function"
    },
    {
      "inputs": [
        {
          "internalType": "address",
          "name": "owner",
          "type": "address"
        },
        {
          "internalType": "address",
          "name": "operator",
          "type": "address"
        }
      ],
      "name": "isApprovedForAll",
      "outputs": [
        {
          "internalType": "bool",
          "name": "",
          "type": "bool"
        }
      ],
      "stateMutability": "view",
      "type": "function"
    },
    {
      "inputs": [
        {
          "internalType": "string",
          "name": "name",
          "type": "string"
        },
        {
          "internalType": "string",
          "name": "description",
          "type": "string"
        },
        {
          "internalType": "string",
          "name": "assetType",
          "type": "string"
        },
        {
          "internalType": "string",
          "name": "uri",
          "type": "string"
        },
        {
          "components": [
            {
              "internalType": "address",
              "name": "usageOwner",
              "type": "address"
            },
            {
              "internalType": "address",
              "name": "derivativeOwner",
              "type": "address"
            },
            {
              "internalType": "address",
              "name": "extensionOwner",
              "type": "address"
            },
            {
              "internalType": "address",
              "name": "revenueOwner",
              "type": "address"
            },
            {
              "internalType": "uint256",
              "name": "usageFee",
              "type": "uint256"
            },
            {
              "internalType": "uint256",
              "name": "revenueShare",
              "type": "uint256"
            }
          ],
          "internalType": "struct ECHOAsset.Rights",
          "name": "rights",
          "type": "tuple"
        }
      ],
      "name": "mintECHO",
      "outputs": [
        {
          "internalType": "uint256",
          "name": "",
          "type": "uint256"
        }
      ],
      "stateMutability": "nonpayable",
      "type": "function"
    },
    {
      "inputs": [],
      "name": "name",
      "outputs": [
        {
          "internalType": "string",
          "name": "",
          "type": "string"
        }
      ],
      "stateMutability": "view",
      "type": "function"
    },
    {
      "inputs": [
        {
          "internalType": "uint256",
          "name": "",
          "type": "uint256"
        }
      ],
      "name": "originalCreator",
      "outputs": [
        {
          "internalType": "address",
          "name": "",
          "type": "address"
        }
      ],
      "stateMutability": "view",
      "type": "function"
    },
    {
      "inputs": [
        {
          "internalType": "uint256",
          "name": "tokenId",
          "type": "uint256"
        }
      ],
      "name": "ownerOf",
      "outputs": [
        {
          "internalType": "address",
          "name": "",
          "type": "address"
        }
      ],
      "stateMutability": "view",
      "type": "function"
    },
    {
      "inputs": [
        {
          "internalType": "uint256",
          "name": "tokenId",
          "type": "uint256"
        },
        {
          "internalType": "uint256",
          "name": "durationDays",
          "type": "uint256"
        }
      ],
      "name": "payForUsage",
      "outputs": [],
      "stateMutability": "payable",
      "type": "function"
    },
    {
      "inputs": [
        {
          "internalType": "address",
          "name": "from",
          "type": "address"
        },
        {
          "internalType": "address",
          "name": "to",
          "type": "address"
        },
        {
          "internalType": "uint256",
          "name": "tokenId",
          "type": "uint256"
        }
      ],
      "name": "safeTransferFrom",
      "outputs": [],
      "stateMutability": "nonpayable",
      "type": "function"
    },
    {
      "inputs": [
        {
          "internalType": "address",
          "name": "from",
          "type": "address"
        },
        {
          "internalType": "address",
          "name": "to",
          "type": "address"
        },
        {
          "internalType": "uint256",
          "name": "tokenId",
          "type": "uint256"
        },
        {
          "internalType": "bytes",
          "name": "data",
          "type": "bytes"
        }
      ],
      "name": "safeTransferFrom",
      "outputs": [],
      "stateMutability": "nonpayable",
      "type": "function"
    },
    {
      "inputs": [
        {
          "internalType": "address",
          "name": "operator",
          "type": "address"
        },
        {
          "internalType": "bool",
          "name": "approved",
          "type": "bool"
        }
      ],
      "name": "setApprovalForAll",
      "outputs": [],
      "stateMutability": "nonpayable",
      "type": "function"
    },
    {
      "inputs": [
        {
          "internalType": "bytes4",
          "name": "interfaceId",
          "type": "bytes4"
        }
      ],
      "name": "supportsInterface",
      "outputs": [
        {
          "internalType": "bool",
          "name": "",
          "type": "bool"
        }
      ],
      "stateMutability": "view",
      "type": "function"
    },
    {
      "inputs": [],
      "name": "symbol",
      "outputs": [
        {
          "internalType": "string",
          "name": "",
          "type": "string"
        }
      ],
      "stateMutability": "view",
      "type": "function"
    },
    {
      "inputs": [
        {
          "internalType": "uint256",
          "name": "tokenId",
          "type": "uint256"
        }
      ],
      "name": "tokenURI",
      "outputs": [
        {
          "internalType": "string",
          "name": "",
          "type": "string"
        }
      ],
      "stateMutability": "view",
      "type": "function"
    },
    {
      "inputs": [
        {
          "internalType": "uint256",
          "name": "tokenId",
          "type": "uint256"
        },
        {
          "internalType": "address",
          "name": "newOwner",
          "type": "address"
        }
      ],
      "name": "transferDerivativeRight",
      "outputs": [],
      "stateMutability": "nonpayable",
      "type": "function"
    },
    {
      "inputs": [
        {
          "internalType": "uint256",
          "name": "tokenId",
          "type": "uint256"
        },
        {
          "internalType": "address",
          "name": "newOwner",
          "type": "address"
        }
      ],
      "name": "transferExtensionRight",
      "outputs": [],
      "stateMutability": "nonpayable",
      "type": "function"
    },
    {
      "inputs": [
        {
          "internalType": "address",
          "name": "from",
          "type": "address"
        },
        {
          "internalType": "address",
          "name": "to",
          "type": "address"
        },
        {
          "internalType": "uint256",
          "name": "tokenId",
          "type": "uint256"
        }
      ],
      "name": "transferFrom",
      "outputs": [],
      "stateMutability": "nonpayable",
      "type": "function"
    },
    {
      "inputs": [
        {
          "internalType": "uint256",
          "name": "tokenId",
          "type": "uint256"
        },
        {
          "internalType": "address",
          "name": "newOwner",
          "type": "address"
        }
      ],
      "name": "transferRevenueRight",
      "outputs": [],
      "stateMutability": "nonpayable",
      "type": "function"
    },
    {
      "inputs": [
        {
          "internalType": "uint256",
          "name": "tokenId",
          "type": "uint256"
        },
        {
          "internalType": "address",
          "name": "newOwner",
          "type": "address"
        }
      ],
      "name": "transferUsageRight",
      "outputs": [],
      "stateMutability": "nonpayable",
      "type": "function"
    },
    {
      "inputs": [
        {
          "internalType": "uint256",
          "name": "",
          "type": "uint256"
        },
        {
          "internalType": "address",
          "name": "",
          "type": "address"
        }
      ],
      "name": "usageAuthorization",
      "outputs": [
        {
          "internalType": "uint256",
          "name": "",
          "type": "uint256"
        }
      ],
      "stateMutability": "view",
      "type": "function"
    }
  ],
  "bytecode": "0x60806040523480156200001157600080fd5b506040518060400160405280600a8152602001691150d213c8105cdcd95d60b21b815250604051806040016040528060048152602001634543484f60e01b815250816000908162000063919062000120565b50600162000072828262000120565b505050620001ec565b634e487b7160e01b600052604160045260246000fd5b600181811c90821680620000a657607f821691505b602082108103620000c757634e487b7160e01b600052602260045260246000fd5b50919050565b601f8211156200011b57600081815260208120601f850160051c81016020861015620000f65750805b601f850160051c820191505b81811015620001175782815560010162000102565b5050505b505050565b81516001600160401b038111156200013c576200013c6200007b565b62000154816200014d845462000091565b84620000cd565b602080601f8311600181146200018c5760008415620001735750858301515b600019600386901b1c1916600185901b17855562000117565b600085815260208120601f198616915b82811015620001bd578886015182559484019460019091019084016200019c565b5085821015620001dc5787850151600019600388901b60f8161c191681555b5050505050600190811b01905550565b6128bb80620001fc6000396000f3fe6080604052600436106101815760003560e01c806370a08231116100d1578063b88d4fde1161008a578063e6cea09b11610064578063e6cea09b1461050e578063e985e9c51461052e578063f5955f3214610577578063f637d950146105ad57600080fd5b8063b88d4fde146104ae578063c87b56dd146104ce578063d035625c146104ee57600080fd5b806370a08231146103f957806372128dc8146104195780639497e49e1461043957806395d89b4114610459578063a22cb4651461046e578063a5ee20571461048e57600080fd5b806323b872dd1161013e5780634da4d7eb116101185780634da4d7eb14610380578063504e35d31461039357806356189236146103c45780636352211e146103d957600080fd5b806323b872dd146102fa5780632a840b491461031a57806342842e0e1461036057600080fd5b806301ffc9a71461018657806302a8c573146101bb57806306fdde031461025e578063081812fc14610280578063095ea7b3146102b8578063134becc6146102da575b600080fd5b34801561019257600080fd5b506101a66101a1366004611f69565b6105dc565b60405190151581526020015b60405180910390f35b3480156101c757600080fd5b5061021c6101d6366004611f86565b6007602052600090815260409020805460018201546002830154600384015460048501546005909501546001600160a01b03948516959385169492831693919092169186565b604080516001600160a01b03978816815295871660208701529386169385019390935293166060830152608082019290925260a081019190915260c0016101b2565b34801561026a57600080fd5b5061027361062e565b6040516101b29190611fef565b34801561028c57600080fd5b506102a061029b366004611f86565b6106c0565b6040516001600160a01b0390911681526020016101b2565b3480156102c457600080fd5b506102d86102d336600461201e565b6106e7565b005b3480156102e657600080fd5b506102d86102f5366004612048565b610801565b34801561030657600080fd5b506102d8610315366004612074565b610904565b34801561032657600080fd5b50610352610335366004612048565b600a60209081526000928352604080842090915290825290205481565b6040519081526020016101b2565b34801561036c57600080fd5b506102d861037b366004612074565b610935565b6102d861038e3660046120b0565b610950565b34801561039f57600080fd5b506103b36103ae366004611f86565b610ac3565b6040516101b29594939291906120d2565b3480156103d057600080fd5b50610352610d11565b3480156103e557600080fd5b506102a06103f4366004611f86565b610d21565b34801561040557600080fd5b50610352610414366004612132565b610d81565b34801561042557600080fd5b50610352610434366004612222565b610e07565b34801561044557600080fd5b506102d8610454366004612048565b61100c565b34801561046557600080fd5b506102736110fc565b34801561047a57600080fd5b506102d8610489366004612347565b61110b565b34801561049a57600080fd5b506102d86104a9366004612048565b61111a565b3480156104ba57600080fd5b506102d86104c9366004612383565b61120e565b3480156104da57600080fd5b506102736104e9366004611f86565b611246565b3480156104fa57600080fd5b506102d8610509366004612048565b6112ba565b34801561051a57600080fd5b506101a6610529366004612048565b6113a0565b34801561053a57600080fd5b506101a66105493660046123ff565b6001600160a01b03918216600090815260056020908152604080832093909416825291909152205460ff1690565b34801561058357600080fd5b506102a0610592366004611f86565b6009602052600090815260409020546001600160a01b031681565b3480156105b957600080fd5b506105cd6105c8366004611f86565b6113f4565b6040516101b293929190612429565b60006001600160e01b031982166380ac58cd60e01b148061060d57506001600160e01b03198216635b5e139f60e01b145b8061062857506301ffc9a760e01b6001600160e01b03198316145b92915050565b60606000805461063d90612514565b80601f016020809104026020016040519081016040528092919081815260200182805461066990612514565b80156106b65780601f1061068b576101008083540402835291602001916106b6565b820191906000526020600020905b81548152906001019060200180831161069957829003601f168201915b5050505050905090565b60006106cb8261176b565b506000908152600460205260409020546001600160a01b031690565b60006106f282610d21565b9050806001600160a01b0316836001600160a01b0316036107645760405162461bcd60e51b815260206004820152602160248201527f4552433732313a20617070726f76616c20746f2063757272656e74206f776e656044820152603960f91b60648201526084015b60405180910390fd5b336001600160a01b038216148061078057506107808133610549565b6107f25760405162461bcd60e51b815260206004820152603d60248201527f4552433732313a20617070726f76652063616c6c6572206973206e6f7420746f60448201527f6b656e206f776e6572206f7220617070726f76656420666f7220616c6c000000606482015260840161075b565b6107fc83836117be565b505050565b61080a8261182c565b6108265760405162461bcd60e51b815260040161075b9061254e565b6000828152600760205260409020600101546001600160a01b031633146108865760405162461bcd60e51b81526020600482015260146024820152732737ba103232b934bb30ba34bb329037bbb732b960611b604482015260640161075b565b6000828152600760205260409081902060010180546001600160a01b038481166001600160a01b031983168117909355925192169182908590600080516020612866833981519152906108f7906020808252600a90820152696465726976617469766560b01b604082015260600190565b60405180910390a4505050565b61090e3382611849565b61092a5760405162461bcd60e51b815260040161075b9061257c565b6107fc8383836118c8565b6107fc8383836040518060200160405280600081525061120e565b6109598261182c565b6109755760405162461bcd60e51b815260040161075b9061254e565b600082815260076020526040812060048101549091906109969084906125df565b9050803410156109db5760405162461bcd60e51b815260206004820152601060248201526f496e73756666696369656e742066656560801b604482015260640161075b565b60038201546040516001600160a01b03909116903480156108fc02916000818181858888f19350505050158015610a16573d6000803e3d6000fd5b506000610a2684620151806125df565b610a3090426125f6565b6000868152600a60209081526040808320338085529083529281902084905551348152929350909187917f704183293ae4417be2c8748c8ce823406cc548c15094b1a80abb53aff6d3f924910160405180910390a3604051818152339086907fae16de5c9c7bbe3f00dab40b795d2a89cdcd4d8624d67eada25c215a9335844f9060200160405180910390a35050505050565b600860205260009081526040902080548190610ade90612514565b80601f0160208091040260200160405190810160405280929190818152602001828054610b0a90612514565b8015610b575780601f10610b2c57610100808354040283529160200191610b57565b820191906000526020600020905b815481529060010190602001808311610b3a57829003601f168201915b505050505090806001018054610b6c90612514565b80601f0160208091040260200160405190810160405280929190818152602001828054610b9890612514565b8015610be55780601f10610bba57610100808354040283529160200191610be5565b820191906000526020600020905b815481529060010190602001808311610bc857829003601f168201915b505050505090806002018054610bfa90612514565b80601f0160208091040260200160405190810160405280929190818152602001828054610c2690612514565b8015610c735780601f10610c4857610100808354040283529160200191610c73565b820191906000526020600020905b815481529060010190602001808311610c5657829003601f168201915b505050505090806003018054610c8890612514565b80601f0160208091040260200160405190810160405280929190818152602001828054610cb490612514565b8015610d015780601f10610cd657610100808354040283529160200191610d01565b820191906000526020600020905b815481529060010190602001808311610ce457829003601f168201915b5050505050908060040154905085565b6000610d1c60065490565b905090565b6000818152600260205260408120546001600160a01b0316806106285760405162461bcd60e51b8152602060048201526018602482015277115490cdcc8c4e881a5b9d985b1a59081d1bdad95b88125160421b604482015260640161075b565b60006001600160a01b038216610deb5760405162461bcd60e51b815260206004820152602960248201527f4552433732313a2061646472657373207a65726f206973206e6f7420612076616044820152683634b21037bbb732b960b91b606482015260840161075b565b506001600160a01b031660009081526003602052604090205490565b600080610e1360065490565b9050610e23600680546001019055565b610e2d3382611a2c565b6040805160a081018252888152602080820189905281830188905260608201879052426080830152600084815260089091529190912081518190610e719082612657565b5060208201516001820190610e869082612657565b5060408201516002820190610e9b9082612657565b5060608201516003820190610eb09082612657565b506080918201516004918201556000838152600760209081526040808320885181546001600160a01b03199081166001600160a01b039283161783558a85015160018401805483169184169190911790558a840151600284018054831691841691909117905560608b015160038401805483169190931617909155958901519481019490945560a0880151600590940193909355600990528190208054339316831790555182907f6b6a63be2d7872841103b70e52bc6355c0fbe24a6511dbff115f0b926e8e16ef90610f86908b908a90612717565b60405180910390a3807fe35d6cee68305e9ef8be0e921a0469859d855b04fbf6d137d23a67fc98deb52b8460000151856020015186604001518760600151604051610ffa94939291906001600160a01b03948516815292841660208401529083166040830152909116606082015260800190565b60405180910390a29695505050505050565b6110158261182c565b6110315760405162461bcd60e51b815260040161075b9061254e565b6000828152600760205260409020600301546001600160a01b0316331461108e5760405162461bcd60e51b81526020600482015260116024820152702737ba103932bb32b73ab29037bbb732b960791b604482015260640161075b565b6000828152600760205260409081902060030180546001600160a01b038481166001600160a01b031983168117909355925192169182908590600080516020612866833981519152906108f790602080825260079082015266726576656e756560c81b604082015260600190565b60606001805461063d90612514565b611116338383611a46565b5050565b6111238261182c565b61113f5760405162461bcd60e51b815260040161075b9061254e565b6000828152600760205260409020600201546001600160a01b0316331461119e5760405162461bcd60e51b81526020600482015260136024820152722737ba1032bc3a32b739b4b7b71037bbb732b960691b604482015260640161075b565b6000828152600760205260409081902060020180546001600160a01b038481166001600160a01b031983168117909355925192169182908590600080516020612866833981519152906108f79060208082526009908201526832bc3a32b739b4b7b760b91b604082015260600190565b6112183383611849565b6112345760405162461bcd60e51b815260040161075b9061257c565b61124084848484611b14565b50505050565b60606112518261176b565b600061126860408051602081019091526000815290565b9050600081511161128857604051806020016040528060008152506112b3565b8061129284611b47565b6040516020016112a3929190612745565b6040516020818303038152906040525b9392505050565b6112c38261182c565b6112df5760405162461bcd60e51b815260040161075b9061254e565b6000828152600760205260409020546001600160a01b031633146113375760405162461bcd60e51b815260206004820152600f60248201526e2737ba103ab9b0b3b29037bbb732b960891b604482015260640161075b565b6000828152600760205260409081902080546001600160a01b038481166001600160a01b031983168117909355925192169182908590600080516020612866833981519152906108f790602080825260059082015264757361676560d81b604082015260600190565b6000828152600760205260408120546001600160a01b038084169116036113c957506001610628565b506000918252600a602090815260408084206001600160a01b03939093168452919052902054421090565b6114266040518060a0016040528060608152602001606081526020016060815260200160608152602001600081525090565b6040805160c081018252600080825260208201819052918101829052606081018290526080810182905260a08101829052906114618461182c565b61147d5760405162461bcd60e51b815260040161075b9061254e565b60008481526008602090815260408083206007835281842060099093529281902054815160a0810190925283546001600160a01b0390911691908490829082906114c690612514565b80601f01602080910402602001604051908101604052809291908181526020018280546114f290612514565b801561153f5780601f106115145761010080835404028352916020019161153f565b820191906000526020600020905b81548152906001019060200180831161152257829003601f168201915b5050505050815260200160018201805461155890612514565b80601f016020809104026020016040519081016040528092919081815260200182805461158490612514565b80156115d15780601f106115a6576101008083540402835291602001916115d1565b820191906000526020600020905b8154815290600101906020018083116115b457829003601f168201915b505050505081526020016002820180546115ea90612514565b80601f016020809104026020016040519081016040528092919081815260200182805461161690612514565b80156116635780601f1061163857610100808354040283529160200191611663565b820191906000526020600020905b81548152906001019060200180831161164657829003601f168201915b5050505050815260200160038201805461167c90612514565b80601f01602080910402602001604051908101604052809291908181526020018280546116a890612514565b80156116f55780601f106116ca576101008083540402835291602001916116f5565b820191906000526020600020905b8154815290600101906020018083116116d857829003601f168201915b50505091835250506004918201546020918201526040805160c08101825286546001600160a01b039081168252600188015481169382019390935260028701548316918101919091526003860154909116606082015290840154608082015260059093015460a084015297919650945092505050565b6117748161182c565b6117bb5760405162461bcd60e51b8152602060048201526018602482015277115490cdcc8c4e881a5b9d985b1a59081d1bdad95b88125160421b604482015260640161075b565b50565b600081815260046020526040902080546001600160a01b0319166001600160a01b03841690811790915581906117f382610d21565b6001600160a01b03167f8c5be1e5ebec7d5bd14f71427d1e84f3dd0314c0f7b2291e5b200ac8c7c3b92560405160405180910390a45050565b6000908152600260205260409020546001600160a01b0316151590565b60008061185583610d21565b9050806001600160a01b0316846001600160a01b0316148061189c57506001600160a01b0380821660009081526005602090815260408083209388168352929052205460ff165b806118c05750836001600160a01b03166118b5846106c0565b6001600160a01b0316145b949350505050565b826001600160a01b03166118db82610d21565b6001600160a01b0316146119015760405162461bcd60e51b815260040161075b90612774565b6001600160a01b0382166119635760405162461bcd60e51b8152602060048201526024808201527f4552433732313a207472616e7366657220746f20746865207a65726f206164646044820152637265737360e01b606482015260840161075b565b826001600160a01b031661197682610d21565b6001600160a01b03161461199c5760405162461bcd60e51b815260040161075b90612774565b600081815260046020908152604080832080546001600160a01b03199081169091556001600160a01b0387811680865260038552838620805460001901905590871680865283862080546001019055868652600290945282852080549092168417909155905184937fddf252ad1be2c89b69c2b068fc378daa952ba7f163c4a11628f55a4df523b3ef91a4505050565b611116828260405180602001604052806000815250611bda565b816001600160a01b0316836001600160a01b031603611aa75760405162461bcd60e51b815260206004820152601960248201527f4552433732313a20617070726f766520746f2063616c6c657200000000000000604482015260640161075b565b6001600160a01b03838116600081815260056020908152604080832094871680845294825291829020805460ff191686151590811790915591519182527f17307eab39ab6107e8899845ad3d59bd9653f200f220920489ca2b5937696c31910160405180910390a3505050565b611b1f8484846118c8565b611b2b84848484611c0d565b6112405760405162461bcd60e51b815260040161075b906127b9565b60606000611b5483611d0e565b600101905060008167ffffffffffffffff811115611b7457611b7461214d565b6040519080825280601f01601f191660200182016040528015611b9e576020820181803683370190505b5090508181016020015b600019016f181899199a1a9b1b9c1cb0b131b232b360811b600a86061a8153600a8504945084611ba857509392505050565b611be48383611de6565b611bf16000848484611c0d565b6107fc5760405162461bcd60e51b815260040161075b906127b9565b60006001600160a01b0384163b15611d0357604051630a85bd0160e11b81526001600160a01b0385169063150b7a0290611c5190339089908890889060040161280b565b6020604051808303816000875af1925050508015611c8c575060408051601f3d908101601f19168201909252611c8991810190612848565b60015b611ce9573d808015611cba576040519150601f19603f3d011682016040523d82523d6000602084013e611cbf565b606091505b508051600003611ce15760405162461bcd60e51b815260040161075b906127b9565b805181602001fd5b6001600160e01b031916630a85bd0160e11b1490506118c0565b506001949350505050565b60008072184f03e93ff9f4daa797ed6e38ed64bf6a1f0160401b8310611d4d5772184f03e93ff9f4daa797ed6e38ed64bf6a1f0160401b830492506040015b6d04ee2d6d415b85acef81000000008310611d79576d04ee2d6d415b85acef8100000000830492506020015b662386f26fc100008310611d9757662386f26fc10000830492506010015b6305f5e1008310611daf576305f5e100830492506008015b6127108310611dc357612710830492506004015b60648310611dd5576064830492506002015b600a83106106285760010192915050565b6001600160a01b038216611e3c5760405162461bcd60e51b815260206004820181905260248201527f4552433732313a206d696e7420746f20746865207a65726f2061646472657373604482015260640161075b565b611e458161182c565b15611e925760405162461bcd60e51b815260206004820152601c60248201527f4552433732313a20746f6b656e20616c7265616479206d696e74656400000000604482015260640161075b565b611e9b8161182c565b15611ee85760405162461bcd60e51b815260206004820152601c60248201527f4552433732313a20746f6b656e20616c7265616479206d696e74656400000000604482015260640161075b565b6001600160a01b038216600081815260036020908152604080832080546001019055848352600290915280822080546001600160a01b0319168417905551839291907fddf252ad1be2c89b69c2b068fc378daa952ba7f163c4a11628f55a4df523b3ef908290a45050565b6001600160e01b0319811681146117bb57600080fd5b600060208284031215611f7b57600080fd5b81356112b381611f53565b600060208284031215611f9857600080fd5b5035919050565b60005b83811015611fba578181015183820152602001611fa2565b50506000910152565b60008151808452611fdb816020860160208601611f9f565b601f01601f19169290920160200192915050565b6020815260006112b36020830184611fc3565b80356001600160a01b038116811461201957600080fd5b919050565b6000806040838503121561203157600080fd5b61203a83612002565b946020939093013593505050565b6000806040838503121561205b57600080fd5b8235915061206b60208401612002565b90509250929050565b60008060006060848603121561208957600080fd5b61209284612002565b92506120a060208501612002565b9150604084013590509250925092565b600080604083850312156120c357600080fd5b50508035926020909101359150565b60a0815260006120e560a0830188611fc3565b82810360208401526120f78188611fc3565b9050828103604084015261210b8187611fc3565b9050828103606084015261211f8186611fc3565b9150508260808301529695505050505050565b60006020828403121561214457600080fd5b6112b382612002565b634e487b7160e01b600052604160045260246000fd5b60405160c0810167ffffffffffffffff811182821017156121865761218661214d565b60405290565b600067ffffffffffffffff808411156121a7576121a761214d565b604051601f8501601f19908116603f011681019082821181831017156121cf576121cf61214d565b816040528093508581528686860111156121e857600080fd5b858560208301376000602087830101525050509392505050565b600082601f83011261221357600080fd5b6112b38383356020850161218c565b600080600080600085870361014081121561223c57600080fd5b863567ffffffffffffffff8082111561225457600080fd5b6122608a838b01612202565b9750602089013591508082111561227657600080fd5b6122828a838b01612202565b9650604089013591508082111561229857600080fd5b6122a48a838b01612202565b955060608901359150808211156122ba57600080fd5b506122c789828a01612202565b93505060c0607f19820112156122dc57600080fd5b506122e5612163565b6122f160808801612002565b81526122ff60a08801612002565b602082015261231060c08801612002565b604082015261232160e08801612002565b606082015261010087013560808201526101209096013560a08701525092959194509290565b6000806040838503121561235a57600080fd5b61236383612002565b91506020830135801515811461237857600080fd5b809150509250929050565b6000806000806080858703121561239957600080fd5b6123a285612002565b93506123b060208601612002565b925060408501359150606085013567ffffffffffffffff8111156123d357600080fd5b8501601f810187136123e457600080fd5b6123f38782356020840161218c565b91505092959194509250565b6000806040838503121561241257600080fd5b61241b83612002565b915061206b60208401612002565b6000610100808352855160a0828501526124476101a0850182611fc3565b915050602086015160ff1980858403016101208601526124678383611fc3565b92506040880151915080858403016101408601526124858383611fc3565b9250606088015191508085840301610160860152506124a48282611fc3565b91505060808601516101808401528091505060018060a01b0380855116602084015280602086015116604084015280604086015116606084015280606086015116608084015250608084015160a083015260a084015160c08301526118c060e08301846001600160a01b03169052565b600181811c9082168061252857607f821691505b60208210810361254857634e487b7160e01b600052602260045260246000fd5b50919050565b602080825260149082015273105cdcd95d08191bd95cc81b9bdd08195e1a5cdd60621b604082015260600190565b6020808252602d908201527f4552433732313a2063616c6c6572206973206e6f7420746f6b656e206f776e6560408201526c1c881bdc88185c1c1c9bdd9959609a1b606082015260800190565b634e487b7160e01b600052601160045260246000fd5b8082028115828204841417610628576106286125c9565b80820180821115610628576106286125c9565b601f8211156107fc57600081815260208120601f850160051c810160208610156126305750805b601f850160051c820191505b8181101561264f5782815560010161263c565b505050505050565b815167ffffffffffffffff8111156126715761267161214d565b6126858161267f8454612514565b84612609565b602080601f8311600181146126ba57600084156126a25750858301515b600019600386901b1c1916600185901b17855561264f565b600085815260208120601f198616915b828110156126e9578886015182559484019460019091019084016126ca565b50858210156127075787850151600019600388901b60f8161c191681555b5050505050600190811b01905550565b60408152600061272a6040830185611fc3565b828103602084015261273c8185611fc3565b95945050505050565b60008351612757818460208801611f9f565b83519083019061276b818360208801611f9f565b01949350505050565b60208082526025908201527f4552433732313a207472616e736665722066726f6d20696e636f72726563742060408201526437bbb732b960d91b606082015260800190565b60208082526032908201527f4552433732313a207472616e7366657220746f206e6f6e20455243373231526560408201527131b2b4bb32b91034b6b83632b6b2b73a32b960711b606082015260800190565b6001600160a01b038581168252841660208201526040810183905260806060820181905260009061283e90830184611fc3565b9695505050505050565b60006020828403121561285a57600080fd5b81516112b381611f5356febcb50d21b20953db14a558eaaff0deca64299ffffcf70f9236df92fb6600c96ba26469706673582212208404c63db4aa37aaf5bddcff216b179c0effc2d2f5820db927463e92a42b95f364736f6c63430008130033",
  "linkReferences": {},
  "deployedLinkReferences": {}
}