{
  "_format": "hh-sol-artifact-1",
  "contractName": "ECHOAsset",
  "sourceName": "contracts/ECHOAsset.sol",
  "abi": [
    {
      "inputs": [],
      "stateMutability": "nonpayable",
      "type": "constructor"
    },
    {
      "anonymous": false,
      "inputs": [
        {
          "indexed": true,
          "internalType": "address",
          "name": "owner",
          "type": "address"
        },
        {
          "indexed": true,
          "internalType": "address",
          "name": "approved",
          "type": "address"
        },
        {
          "indexed": true,
          "internalType": "uint256",
          "name": "tokenId",
          "type": "uint256"
        }
      ],
      "name": "Approval",
      "type": "event"
    },
    {
      "anonymous": false,
      "inputs": [
        {
          "indexed": true,
          "internalType": "address",
          "name": "owner",
          "type": "address"
        },
        {
          "indexed": true,
          "internalType": "address",
          "name": "operator",
          "type": "address"
        },
        {
          "indexed": false,
          "internalType": "bool",
          "name": "approved",
          "type": "bool"
        }
      ],
      "name": "ApprovalForAll",
      "type": "event"
    },
    {
      "anonymous": false,
      "inputs": [
        {
          "indexed": true,
          "internalType": "uint256",
          "name": "tokenId",
          "type": "uint256"
        },
        {
          "indexed": true,
          "internalType": "address",
          "name": "creator",
          "type": "address"
        },
        {
          "indexed": false,
          "internalType": "string",
          "name": "name",
          "type": "string"
        },
        {
          "indexed": false,
          "internalType": "string",
          "name": "assetType",
          "type": "string"
        }
      ],
      "name": "AssetMinted",
      "type": "event"
    },
    {
      "anonymous": false,
      "inputs": [
        {
          "indexed": true,
          "internalType": "uint256",
          "name": "tokenId",
          "type": "uint256"
        },
        {
          "indexed": false,
          "internalType": "string",
          "name": "rightType",
          "type": "string"
        },
        {
          "indexed": true,
          "internalType": "address",
          "name": "from",
          "type": "address"
        },
        {
          "indexed": true,
          "internalType": "address",
          "name": "to",
          "type": "address"
        }
      ],
      "name": "RightTransferred",
      "type": "event"
    },
    {
      "anonymous": false,
      "inputs": [
        {
          "indexed": true,
          "internalType": "uint256",
          "name": "tokenId",
          "type": "uint256"
        },
        {
          "indexed": false,
          "internalType": "address",
          "name": "usageOwner",
          "type": "address"
        },
        {
          "indexed": false,
          "internalType": "address",
          "name": "derivativeOwner",
          "type": "address"
        },
        {
          "indexed": false,
          "internalType": "address",
          "name": "extensionOwner",
          "type": "address"
        },
        {
          "indexed": false,
          "internalType": "address",
          "name": "revenueOwner",
          "type": "address"
        }
      ],
      "name": "RightsConfigured",
      "type": "event"
    },
    {
      "anonymous": false,
      "inputs": [
        {
          "indexed": true,
          "internalType": "address",
          "name": "from",
          "type": "address"
        },
        {
          "indexed": true,
          "internalType": "address",
          "name": "to",
          "type": "address"
        },
        {
          "indexed": true,
          "internalType": "uint256",
          "name": "tokenId",
          "type": "uint256"
        }
      ],
      "name": "Transfer",
      "type": "event"
    },
    {
      "anonymous": false,
      "inputs": [
        {
          "indexed": true,
          "internalType": "uint256",
          "name": "tokenId",
          "type": "uint256"
        },
        {
          "indexed": true,
          "internalType": "address",
          "name": "user",
          "type": "address"
        },
        {
          "indexed": false,
          "internalType": "uint256",
          "name": "expiryTime",
          "type": "uint256"
        }
      ],
      "name": "UsageAuthorized",
      "type": "event"
    },
    {
      "anonymous": false,
      "inputs": [
        {
          "indexed": true,
          "internalType": "uint256",
          "name": "tokenId",
          "type": "uint256"
        },
        {
          "indexed": true,
          "internalType": "address",
          "name": "user",
          "type": "address"
        },
        {
          "indexed": false,
          "internalType": "uint256",
          "name": "amount",
          "type": "uint256"
        }
      ],
      "name": "UsagePaid",
      "type": "event"
    },
    {
      "inputs": [
        {
          "internalType": "address",
          "name": "to",
          "type": "address"
        },
        {
          "internalType": "uint256",
          "name": "tokenId",
          "type": "uint256"
        }
      ],
      "name": "approve",
      "outputs": [],
      "stateMutability": "nonpayable",
      "type": "function"
    },
    {
      "inputs": [
        {
          "internalType": "uint256",
          "name": "",
          "type": "uint256"
        }
      ],
      "name": "assetMetadata",
      "outputs": [
        {
          "internalType": "string",
          "name": "name",
          "type": "string"
        },
        {
          "internalType": "string",
          "name": "description",
          "type": "string"
        },
        {
          "internalType": "string",
          "name": "assetType",
          "type": "string"
        },
        {
          "internalType": "string",
          "name": "uri",
          "type": "string"
        },
        {
          "internalType": "uint256",
          "name": "createdAt",
          "type": "uint256"
        }
      ],
      "stateMutability": "view",
      "type": "function"
    },
    {
      "inputs": [
        {
          "internalType": "uint256",
          "name": "",
          "type": "uint256"
        }
      ],
      "name": "assetRights",
      "outputs": [
        {
          "internalType": "address",
          "name": "usageOwner",
          "type": "address"
        },
        {
          "internalType": "address",
          "name": "derivativeOwner",
          "type": "address"
        },
        {
          "internalType": "address",
          "name": "extensionOwner",
          "type": "address"
        },
        {
          "internalType": "address",
          "name": "revenueOwner",
          "type": "address"
        },
        {
          "internalType": "uint256",
          "name": "usageFee",
          "type": "uint256"
        },
        {
          "internalType": "uint256",
          "name": "revenueShare",
          "type": "uint256"
        }
      ],
      "stateMutability": "view",
      "type": "function"
    },
    {
      "inputs": [
        {
          "internalType": "address",
          "name": "owner",
          "type": "address"
        }
      ],
      "name": "balanceOf",
      "outputs": [
        {
          "internalType": "uint256",
          "name": "",
          "type": "uint256"
        }
      ],
      "stateMutability": "view",
      "type": "function"
    },
    {
      "inputs": [
        {
          "internalType": "uint256",
          "name": "tokenId",
          "type": "uint256"
        }
      ],
      "name": "getApproved",
      "outputs": [
        {
          "internalType": "address",
          "name": "",
          "type": "address"
        }
      ],
      "stateMutability": "view",
      "type": "function"
    },
    {
      "inputs": [
        {
          "internalType": "uint256",
          "name": "tokenId",
          "type": "uint256"
        }
      ],
      "name": "getAssetInfo",
      "outputs": [
        {
          "components": [
            {
              "internalType": "string",
              "name": "name",
              "type": "string"
            },
            {
              "internalType": "string",
              "name": "description",
              "type": "string"
            },
            {
              "internalType": "string",
              "name": "assetType",
              "type": "string"
            },
            {
              "internalType": "string",
              "name": "uri",
              "type": "string"
            },
            {
              "internalType": "uint256",
              "name": "createdAt",
              "type": "uint256"
            }
          ],
          "internalType": "struct ECHOAsset.AssetMetadata",
          "name": "metadata",
          "type": "tuple"
        },
        {
          "components": [
            {
              "internalType": "address",
              "name": "usageOwner",
              "type": "address"
            },
            {
              "internalType": "address",
              "name": "derivativeOwner",
              "type": "address"
            },
            {
              "internalType": "address",
              "name": "extensionOwner",
              "type": "address"
            },
            {
              "internalType": "address",
              "name": "revenueOwner",
              "type": "address"
            },
            {
              "internalType": "uint256",
              "name": "usageFee",
              "type": "uint256"
            },
            {
              "internalType": "uint256",
              "name": "revenueShare",
              "type": "uint256"
            }
          ],
          "internalType": "struct ECHOAsset.Rights",
          "name": "rights",
          "type": "tuple"
        },
        {
          "internalType": "address",
          "name": "creator",
          "type": "address"
        }
      ],
      "stateMutability": "view",
      "type": "function"
    },
    {
      "inputs": [],
      "name": "getCurrentTokenId",
      "outputs": [
        {
          "internalType": "uint256",
          "name": "",
          "type": "uint256"
        }
      ],
      "stateMutability": "view",
      "type": "function"
    },
    {
      "inputs": [
        {
          "internalType": "uint256",
          "name": "tokenId",
          "type": "uint256"
        },
        {
          "internalType": "address",
          "name": "user",
          "type": "address"
        }
      ],
      "name": "hasUsageRight",
      "outputs": [
        {
          "internalType": "bool",
          "name": "",
          "type": "bool"
        }
      ],
      "stateMutability": "view",
      "type": "function"
    },
    {
      "inputs": [
        {
          "internalType": "address",
          "name": "owner",
          "type": "address"
        },
        {
          "internalType": "address",
          "name": "operator",
          "type": "address"
        }
      ],
      "name": "isApprovedForAll",
      "outputs": [
        {
          "internalType": "bool",
          "name": "",
          "type": "bool"
        }
      ],
      "stateMutability": "view",
      "type": "function"
    },
    {
      "inputs": [
        {
          "internalType": "string",
          "name": "name",
          "type": "string"
        },
        {
          "internalType": "string",
          "name": "description",
          "type": "string"
        },
        {
          "internalType": "string",
          "name": "assetType",
          "type": "string"
        },
        {
          "internalType": "string",
          "name": "uri",
          "type": "string"
        },
        {
          "components": [
            {
              "internalType": "address",
              "name": "usageOwner",
              "type": "address"
            },
            {
              "internalType": "address",
              "name": "derivativeOwner",
              "type": "address"
            },
            {
              "internalType": "address",
              "name": "extensionOwner",
              "type": "address"
            },
            {
              "internalType": "address",
              "name": "revenueOwner",
              "type": "address"
            },
            {
              "internalType": "uint256",
              "name": "usageFee",
              "type": "uint256"
            },
            {
              "internalType": "uint256",
              "name": "revenueShare",
              "type": "uint256"
            }
          ],
          "internalType": "struct ECHOAsset.Rights",
          "name": "rights",
          "type": "tuple"
        }
      ],
      "name": "mintECHO",
      "outputs": [
        {
          "internalType": "uint256",
          "name": "",
          "type": "uint256"
        }
      ],
      "stateMutability": "nonpayable",
      "type": "function"
    },
    {
      "inputs": [],
      "name": "name",
      "outputs": [
        {
          "internalType": "string",
          "name": "",
          "type": "string"
        }
      ],
      "stateMutability": "view",
      "type": "function"
    },
    {
      "inputs": [
        {
          "internalType": "uint256",
          "name": "",
          "type": "uint256"
        }
      ],
      "name": "originalCreator",
      "outputs": [
        {
          "internalType": "address",
          "name": "",
          "type": "address"
        }
      ],
      "stateMutability": "view",
      "type": "function"
    },
    {
      "inputs": [
        {
          "internalType": "uint256",
          "name": "tokenId",
          "type": "uint256"
        }
      ],
      "name": "ownerOf",
      "outputs": [
        {
          "internalType": "address",
          "name": "",
          "type": "address"
        }
      ],
      "stateMutability": "view",
      "type": "function"
    },
    {
      "inputs": [
        {
          "internalType": "uint256",
          "name": "tokenId",
          "type": "uint256"
        },
        {
          "internalType": "uint256",
          "name": "durationDays",
          "type": "uint256"
        }
      ],
      "name": "payForUsage",
      "outputs": [],
      "stateMutability": "payable",
      "type": "function"
    },
    {
      "inputs": [
        {
          "internalType": "address",
          "name": "from",
          "type": "address"
        },
        {
          "internalType": "address",
          "name": "to",
          "type": "address"
        },
        {
          "internalType": "uint256",
          "name": "tokenId",
          "type": "uint256"
        }
      ],
      "name": "safeTransferFrom",
      "outputs": [],
      "stateMutability": "nonpayable",
      "type": "function"
    },
    {
      "inputs": [
        {
          "internalType": "address",
          "name": "from",
          "type": "address"
        },
        {
          "internalType": "address",
          "name": "to",
          "type": "address"
        },
        {
          "internalType": "uint256",
          "name": "tokenId",
          "type": "uint256"
        },
        {
          "internalType": "bytes",
          "name": "data",
          "type": "bytes"
        }
      ],
      "name": "safeTransferFrom",
      "outputs": [],
      "stateMutability": "nonpayable",
      "type": "function"
    },
    {
      "inputs": [
        {
          "internalType": "address",
          "name": "operator",
          "type": "address"
        },
        {
          "internalType": "bool",
          "name": "approved",
          "type": "bool"
        }
      ],
      "name": "setApprovalForAll",
      "outputs": [],
      "stateMutability": "nonpayable",
      "type": "function"
    },
    {
      "inputs": [
        {
          "internalType": "bytes4",
          "name": "interfaceId",
          "type": "bytes4"
        }
      ],
      "name": "supportsInterface",
      "outputs": [
        {
          "internalType": "bool",
          "name": "",
          "type": "bool"
        }
      ],
      "stateMutability": "view",
      "type": "function"
    },
    {
      "inputs": [],
      "name": "symbol",
      "outputs": [
        {
          "internalType": "string",
          "name": "",
          "type": "string"
        }
      ],
      "stateMutability": "view",
      "type": "function"
    },
    {
      "inputs": [
        {
          "internalType": "uint256",
          "name": "tokenId",
          "type": "uint256"
        }
      ],
      "name": "tokenURI",
      "outputs": [
        {
          "internalType": "string",
          "name": "",
          "type": "string"
        }
      ],
      "stateMutability": "view",
      "type": "function"
    },
    {
      "inputs": [
        {
          "internalType": "uint256",
          "name": "tokenId",
          "type": "uint256"
        },
        {
          "internalType": "address",
          "name": "newOwner",
          "type": "address"
        }
      ],
      "name": "transferDerivativeRight",
      "outputs": [],
      "stateMutability": "nonpayable",
      "type": "function"
    },
    {
      "inputs": [
        {
          "internalType": "uint256",
          "name": "tokenId",
          "type": "uint256"
        },
        {
          "internalType": "address",
          "name": "newOwner",
          "type": "address"
        }
      ],
      "name": "transferExtensionRight",
      "outputs": [],
      "stateMutability": "nonpayable",
      "type": "function"
    },
    {
      "inputs": [
        {
          "internalType": "address",
          "name": "from",
          "type": "address"
        },
        {
          "internalType": "address",
          "name": "to",
          "type": "address"
        },
        {
          "internalType": "uint256",
          "name": "tokenId",
          "type": "uint256"
        }
      ],
      "name": "transferFrom",
      "outputs": [],
      "stateMutability": "nonpayable",
      "type": "function"
    },
    {
      "inputs": [
        {
          "internalType": "uint256",
          "name": "tokenId",
          "type": "uint256"
        },
        {
          "internalType": "address",
          "name": "newOwner",
          "type": "address"
        }
      ],
      "name": "transferRevenueRight",
      "outputs": [],
      "stateMutability": "nonpayable",
      "type": "function"
    },
    {
      "inputs": [
        {
          "internalType": "uint256",
          "name": "tokenId",
          "type": "uint256"
        },
        {
          "internalType": "address",
          "name": "newOwner",
          "type": "address"
        }
      ],
      "name": "transferUsageRight",
      "outputs": [],
      "stateMutability": "nonpayable",
      "type": "function"
    },
    {
      "inputs": [
        {
          "internalType": "uint256",
          "name": "",
          "type": "uint256"
        },
        {
          "internalType": "address",
          "name": "",
          "type": "address"
        }
      ],
      "name": "usageAuthorization",
      "outputs": [
        {
          "internalType": "uint256",
          "name": "",
          "type": "uint256"
        }
      ],
      "stateMutability": "view",
      "type": "function"
    }
  ],
  "bytecode": "0x6080346200030e576001600160401b039060409080820183811182821017620002f8578252600a8152602092691150d213c8105cdcd95d60b21b84830152825183810181811083821117620002f857845260048152634543484f60e01b85820152825190828211620002f85760008054926001958685811c95168015620002ed575b89861014620002d9578190601f9586811162000286575b5089908683116001146200022257849262000216575b5050600019600383901b1c191690861b1781555b8151938411620002025784548581811c91168015620001f7575b88821014620001e3578381116200019b575b5086928411600114620001355783949596509262000129575b5050600019600383901b1c191690821b1790555b516121f89081620003148239f35b01519050388062000107565b9190601f1984169685845280842093905b88821062000183575050838596971062000169575b505050811b0190556200011b565b015160001960f88460031b161c191690553880806200015b565b80878596829496860151815501950193019062000146565b8582528782208480870160051c8201928a8810620001d9575b0160051c019086905b828110620001cd575050620000ee565b838155018690620001bd565b92508192620001b4565b634e487b7160e01b82526022600452602482fd5b90607f1690620000dc565b634e487b7160e01b81526041600452602490fd5b015190503880620000ae565b8480528a85208994509190601f198416865b8d8282106200026f575050841162000255575b505050811b018155620000c2565b015160001960f88460031b161c1916905538808062000247565b8385015186558c9790950194938401930162000234565b9091508380528984208680850160051c8201928c8610620002cf575b918a91869594930160051c01915b828110620002c057505062000098565b8681558594508a9101620002b0565b92508192620002a2565b634e487b7160e01b83526022600452602483fd5b94607f169462000081565b634e487b7160e01b600052604160045260246000fd5b600080fdfe608080604052600436101561001357600080fd5b60003560e01c90816301ffc9a7146118aa5750806302a8c5731461183857806306fdde0314611795578063081812fc14611777578063095ea7b3146115fd578063134becc61461151757806323b872dd146114f35780632a840b49146114ab57806342842e0e146114785780634da4d7eb14611311578063504e35d31461126757806356189236146112495780636352211e1461121957806370a082311461118257806372128dc81461093b5780639497e49e1461085b57806395d89b4114610796578063a22cb465146106c8578063a5ee2057146105e4578063b88d4fde1461055d578063c87b56dd146104ff578063d035625c14610429578063e6cea09b146103f9578063e985e9c5146103a3578063f5955f321461036f5763f637d9501461013d57600080fd5b3461036a57602036600319011261036a576004356000608060405161016181611a0b565b6060815260606020820152606060408201526060808201520152600060a060405161018b816119f0565b82815282602082015282604082015282606082015282608082015201526101b96101b482611ea8565b6120bb565b600052600860205260a0604060002060076020526040600020906009602052600180841b03604060002054166004604051926101f484611a0b565b6101fd81611a64565b845261020b60018201611a64565b602085015261021c60028201611a64565b604085015261022d60038201611a64565b606085015201546080830152600560405193610248856119f0565b600180871b038154168552600180871b036001820154166020860152600180871b036002820154166040860152600180871b0360038201541660608601526004810154608086015201548484015260405193849360806103076102bc610100808952858851918a01526101a0890190611915565b6102f16102dc60208901519260ff1993848c8303016101208d0152611915565b6040890151838b8303016101408c0152611915565b90606088015190898303016101608a0152611915565b940151610180860152600180831b038151166020860152600180831b036020820151166040860152600180831b036040820151166060860152600180831b036060820151166080860152608081015182860152015160c084015260e08301520390f35b600080fd5b3461036a57602036600319011261036a576004356000526009602052602060018060a01b0360406000205416604051908152f35b3461036a57604036600319011261036a576103bc611955565b6103c461196b565b9060018060a01b03809116600052600560205260406000209116600052602052602060ff604060002054166040519015158152f35b3461036a57604036600319011261036a57602061041f61041761196b565b6004356120fe565b6040519015158152f35b3461036a57604036600319011261036a5760043561044561196b565b6104516101b483611ea8565b6000828152600760205260409020546001600160a01b039290831633036104c85780600052600760205260008051602061214383398151915260606040600020948086549516958660018060a01b0319871617905560405194602086526005602087015264757361676560d81b60408701521693a4005b60405162461bcd60e51b815260206004820152600f60248201526e2737ba103ab9b0b3b29037bbb732b960891b6044820152606490fd5b3461036a57602036600319011261036a5761052361051e600435611ea8565b611b7a565b600060405161053181611a26565b5261055960405161054181611a26565b60008152604051918291602083526020830190611915565b0390f35b3461036a57608036600319011261036a57610576611955565b61057e61196b565b90606435906044356001600160401b03831161036a573660238401121561036a576105e2936105ba6105dd943690602481600401359101611b25565b926105cd6105c88433611ce4565b611c0b565b6105d8838383611dac565b611fe5565b611cc0565b005b3461036a57604036600319011261036a5760043561060061196b565b61060c6101b483611ea8565b6000828152600760205260409020600201546001600160a01b0392908316330361068d5780600052600760205260008051602061214383398151915260606002604060002001948086549516958660018060a01b031987161790556040519460208652600960208701526832bc3a32b739b4b7b760b91b60408701521693a4005b60405162461bcd60e51b81526020600482015260136024820152722737ba1032bc3a32b739b4b7b71037bbb732b960691b6044820152606490fd5b3461036a57604036600319011261036a576106e1611955565b6024359081151580920361036a576001600160a01b03169033821461075557336000526005602052604060002082600052602052604060002060ff1981541660ff83161790556040519081527f17307eab39ab6107e8899845ad3d59bd9653f200f220920489ca2b5937696c3160203392a3005b60405162461bcd60e51b815260206004820152601960248201527822a9219b99189d1030b8383937bb32903a379031b0b63632b960391b6044820152606490fd5b3461036a57600036600319011261036a57604051600090600180546107ba816119b6565b8084529082811690811561083357506001146107f5575b610559836107e181870382611a41565b604051918291602083526020830190611915565b92508060005260209283600020916000925b828410610820575050508101909101906107e1816107d1565b8054858501870152928501928101610807565b61055995506107e193506020915091849260ff191682840152151560051b82010193506107d1565b3461036a57604036600319011261036a5760043561087761196b565b6108836101b483611ea8565b6000828152600760205260409020600301546001600160a01b039290831633036109025780600052600760205260008051602061214383398151915260606003604060002001948086549516958660018060a01b0319871617905560405194602086526007602087015266726576656e756560c81b60408701521693a4005b60405162461bcd60e51b81526020600482015260116024820152702737ba103932bb32b73ab29037bbb732b960791b6044820152606490fd5b3461036a5761014036600319011261036a576004356001600160401b03811161036a5761096c903690600401611b5c565b6024356001600160401b03811161036a5761098b903690600401611b5c565b906044356001600160401b03811161036a576109ab903690600401611b5c565b6064356001600160401b03811161036a576109ca903690600401611b5c565b9160c036608319011261036a57604051936109e4856119f0565b6084356001600160a01b038116810361036a57855260a4356001600160a01b038116810361036a57602086015260c4356001600160a01b038116810361036a57604086015260e4356001600160a01b038116810361036a5760608601526101043560808601526101243560a08601526006549360018501600655604051610a6a81611a26565b60008152331561113e576105dd610ae891610a8d610a8789611ea8565b15612070565b610a99610a8789611ea8565b33600052600360205260406000206001815401905587600052600260205260406000203360018060a01b0319825416179055873360006000805160206121a38339815191528180a48733611ec5565b60405191610af583611a0b565b83835260208301528360408301526060820152426080820152836000526008602052604060002090805180519060018060401b038211610ecb578190610b3b85546119b6565b601f81116110ee575b50602090601f831160011461108257600092611077575b50508160011b916000199060031b1c19161782555b60208101518051906001600160401b038211610ecb578190610b9560018601546119b6565b601f8111611024575b50602090601f8311600114610fb757600092610fac575b50508160011b916000199060031b1c19161760018301555b60408101518051906001600160401b038211610ecb578190610bf260028601546119b6565b601f8111610f59575b50602090601f8311600114610eec57600092610ee1575b50508160011b916000199060031b1c19161760028301555b60608101518051906001600160401b038211610ecb57610c4d60038501546119b6565b601f8111610e84575b50918695939160209895938990601f8311600114610de75794608096946004888b968660008051602061218383398151915297610d86976000805160206121638339815191529e9c600092610ddc575b50508160011b916000199060031b1c19161760038501555b01519101558360005260078b52604060002060018060a01b0387511660018060a01b03198254161781556001810160018060a01b038d8901511660018060a01b03198254161790556002810160018060a01b0360408901511660018060a01b03198254161790556003810160018060a01b0360608901511660018060a01b0319825416179055878701516004820155600560a088015191015560098b5260406000203360018060a01b0319825416179055610d94604051928392604084526040840190611915565b8281038d8401523396611915565b0390a380518682015160408084015160609485015182516001600160a01b039586168152938516848c01529084169183019190915290911691810191909152a2604051908152f35b015190503880610ca6565b90600385016000528a6000209160005b601f1985168110610e6a575094600460808b96600187610d86976000805160206121638339815191529e9c97859e9c6000805160206121838339815191529b601f19811610610e51575b505050811b016003850155610cbe565b015160001960f88460031b161c19169055388080610e41565b8183015184558b9a50600190930192918c01918c01610df7565b600385016000526020600020601f840160051c810160208510610ec4575b601f830160051c82018110610eb8575050610c56565b60008155600101610ea2565b5080610ea2565b634e487b7160e01b600052604160045260246000fd5b015190508880610c12565b600286016000908152602081209350601f198516905b818110610f415750908460019594939210610f28575b505050811b016002830155610c2a565b015160001960f88460031b161c19169055888080610f18565b92936020600181928786015181550195019301610f02565b909150600285016000526020600020601f840160051c810160208510610fa5575b90849392915b601f830160051c82018110610f96575050610bfb565b60008155859450600101610f80565b5080610f7a565b015190508880610bb5565b600186016000908152602081209350601f198516905b81811061100c5750908460019594939210610ff3575b505050811b016001830155610bcd565b015160001960f88460031b161c19169055888080610fe3565b92936020600181928786015181550195019301610fcd565b909150600185016000526020600020601f840160051c810160208510611070575b90849392915b601f830160051c82018110611061575050610b9e565b6000815585945060010161104b565b5080611045565b015190508880610b5b565b9250846000526020600020906000935b601f19841685106110d3576001945083601f198116106110ba575b505050811b018255610b70565b015160001960f88460031b161c191690558880806110ad565b81810151835560209485019460019093019290910190611092565b909150846000526020600020601f840160051c810160208510611137575b90849392915b601f830160051c82018110611128575050610b44565b60008155859450600101611112565b508061110c565b606460405162461bcd60e51b815260206004820152602060248201527f4552433732313a206d696e7420746f20746865207a65726f20616464726573736044820152fd5b3461036a57602036600319011261036a576001600160a01b036111a3611955565b1680156111c25760005260036020526020604060002054604051908152f35b60405162461bcd60e51b815260206004820152602960248201527f4552433732313a2061646472657373207a65726f206973206e6f7420612076616044820152683634b21037bbb732b960b91b6064820152608490fd5b3461036a57602036600319011261036a576020611237600435611bc1565b6040516001600160a01b039091168152f35b3461036a57600036600319011261036a576020600654604051908152f35b3461036a57602036600319011261036a5760043560005260086020526112dd604060002061129481611a64565b906113076112a460018301611a64565b916112f96112b460028301611a64565b6112eb60046112c560038601611a64565b9401549560405198899860a08a5260a08a0190611915565b9088820360208a0152611915565b908682036040880152611915565b908482036060860152611915565b9060808301520390f35b604036600319011261036a5760243560043561132f6101b482611ea8565b80600052602091600783526040600020600481015482810290808204841490151715611414573410611440576003015460009081908190819081906001600160a01b03163415611436575b3491f11561142a57620151809081810291818304149015171561141457420191824211611414577fae16de5c9c7bbe3f00dab40b795d2a89cdcd4d8624d67eada25c215a9335844f9082600052600a8152604060002033600052815283604060002055604051348152837f704183293ae4417be2c8748c8ce823406cc548c15094b1a80abb53aff6d3f924833393a36040519384523393a3005b634e487b7160e01b600052601160045260246000fd5b6040513d6000823e3d90fd5b6108fc915061137a565b60405162461bcd60e51b815260048101859052601060248201526f496e73756666696369656e742066656560801b6044820152606490fd5b3461036a576105e26105dd61148c36611981565b906040519261149a84611a26565b600084526105cd6105c88433611ce4565b3461036a57604036600319011261036a576114c461196b565b600435600052600a60205260406000209060018060a01b03166000526020526020604060002054604051908152f35b3461036a576105e261150436611981565b916115126105c88433611ce4565b611dac565b3461036a57604036600319011261036a5760043561153361196b565b61153f6101b483611ea8565b6000828152600760205260409020600101546001600160a01b039290831633036115c15780600052600760205260008051602061214383398151915260606001604060002001948086549516958660018060a01b031987161790556040519460208652600a6020870152696465726976617469766560b01b60408701521693a4005b60405162461bcd60e51b81526020600482015260146024820152732737ba103232b934bb30ba34bb329037bbb732b960611b6044820152606490fd5b3461036a57604036600319011261036a57611616611955565b602435906001600160a01b03808061162d85611bc1565b1692169180831461172857803314908115611703575b501561169857600083815260046020526040902080546001600160a01b0319168317905561167083611bc1565b167f8c5be1e5ebec7d5bd14f71427d1e84f3dd0314c0f7b2291e5b200ac8c7c3b925600080a4005b60405162461bcd60e51b815260206004820152603d60248201527f4552433732313a20617070726f76652063616c6c6572206973206e6f7420746f60448201527f6b656e206f776e6572206f7220617070726f76656420666f7220616c6c0000006064820152608490fd5b9050600052600560205260406000203360005260205260ff6040600020541684611643565b60405162461bcd60e51b815260206004820152602160248201527f4552433732313a20617070726f76616c20746f2063757272656e74206f776e656044820152603960f91b6064820152608490fd5b3461036a57602036600319011261036a576020611237600435611be4565b3461036a57600036600319011261036a576040516000906000546117b8816119b6565b80835260019180831690811561083357506001146117e057610559836107e181870382611a41565b600080805260209450917f290decd9548b62a8d60345a988386fc84ba6bc95484008f6362f93160ef3e5635b828410611825575050508101909101906107e1816107d1565b805485850187015292850192810161180c565b3461036a57602036600319011261036a57600435600052600760205260c0604060002060018060a01b03808254169181600182015416918060028301541690600383015416906005600484015493015493604051958652602086015260408501526060840152608083015260a0820152f35b3461036a57602036600319011261036a576004359063ffffffff60e01b821680920361036a576020916380ac58cd60e01b8114908115611904575b81156118f3575b5015158152f35b6301ffc9a760e01b149050836118ec565b635b5e139f60e01b811491506118e5565b919082519283825260005b848110611941575050826000602080949584010152601f8019910116010190565b602081830181015184830182015201611920565b600435906001600160a01b038216820361036a57565b602435906001600160a01b038216820361036a57565b606090600319011261036a576001600160a01b0390600435828116810361036a5791602435908116810361036a579060443590565b90600182811c921680156119e6575b60208310146119d057565b634e487b7160e01b600052602260045260246000fd5b91607f16916119c5565b60c081019081106001600160401b03821117610ecb57604052565b60a081019081106001600160401b03821117610ecb57604052565b602081019081106001600160401b03821117610ecb57604052565b601f909101601f19168101906001600160401b03821190821017610ecb57604052565b9060405191826000825492611a78846119b6565b908184526001948581169081600014611ae75750600114611aa4575b5050611aa292500383611a41565b565b9093915060005260209081600020936000915b818310611acf575050611aa293508201013880611a94565b85548884018501529485019487945091830191611ab7565b915050611aa294506020925060ff191682840152151560051b8201013880611a94565b6001600160401b038111610ecb57601f01601f191660200190565b929192611b3182611b0a565b91611b3f6040519384611a41565b82948184528183011161036a578281602093846000960137010152565b9080601f8301121561036a57816020611b7793359101611b25565b90565b15611b8157565b60405162461bcd60e51b8152602060048201526018602482015277115490cdcc8c4e881a5b9d985b1a59081d1bdad95b88125160421b6044820152606490fd5b6000908152600260205260409020546001600160a01b0316611b77811515611b7a565b611bf061051e82611ea8565b6000908152600460205260409020546001600160a01b031690565b15611c1257565b60405162461bcd60e51b815260206004820152602d60248201527f4552433732313a2063616c6c6572206973206e6f7420746f6b656e206f776e6560448201526c1c881bdc88185c1c1c9bdd9959609a1b6064820152608490fd5b60809060208152603260208201527f4552433732313a207472616e7366657220746f206e6f6e20455243373231526560408201527131b2b4bb32b91034b6b83632b6b2b73a32b960711b60608201520190565b15611cc757565b60405162461bcd60e51b815280611ce060048201611c6d565b0390fd5b906001600160a01b038080611cf884611bc1565b16931691838314938415611d2b575b508315611d15575b50505090565b611d2191929350611be4565b1614388080611d0f565b909350600052600560205260406000208260005260205260ff604060002054169238611d07565b15611d5957565b60405162461bcd60e51b815260206004820152602560248201527f4552433732313a207472616e736665722066726f6d20696e636f72726563742060448201526437bbb732b960d91b6064820152608490fd5b90611dd491611dba84611bc1565b6001600160a01b0393918416928492909183168414611d52565b16918215611e575781611df191611dea86611bc1565b1614611d52565b6000805160206121a3833981519152600084815260046020526040812060018060a01b03199081815416905583825260036020526040822060001981540190558482526040822060018154019055858252600260205284604083209182541617905580a4565b60405162461bcd60e51b8152602060048201526024808201527f4552433732313a207472616e7366657220746f20746865207a65726f206164646044820152637265737360e01b6064820152608490fd5b6000908152600260205260409020546001600160a01b0316151590565b9192600092909190803b15611fdb57611f13946040518092630a85bd0160e11b9485835233600484015287602484015260448301526080606483015281878160209a8b966084830190611915565b03926001600160a01b03165af1849181611f97575b50611f86575050503d600014611f7e573d611f4281611b0a565b90611f506040519283611a41565b81528091833d92013e5b80519182611f7b5760405162461bcd60e51b815280611ce060048201611c6d565b01fd5b506060611f5a565b6001600160e01b0319161492509050565b9091508581813d8311611fd4575b611faf8183611a41565b81010312611fd057516001600160e01b031981168103611fd0579038611f28565b8480fd5b503d611fa5565b5050915050600190565b9293600093909291803b156120655794849161203f9660405180948193630a85bd0160e11b9788845233600485015260018060a01b0380921660248501526044840152608060648401528260209b8c976084830190611915565b0393165af1849181611f975750611f86575050503d600014611f7e573d611f4281611b0a565b505050915050600190565b1561207757565b60405162461bcd60e51b815260206004820152601c60248201527b115490cdcc8c4e881d1bdad95b88185b1c9958591e481b5a5b9d195960221b6044820152606490fd5b156120c257565b60405162461bcd60e51b8152602060048201526014602482015273105cdcd95d08191bd95cc81b9bdd08195e1a5cdd60621b6044820152606490fd5b6000908152600760205260409020546001600160a01b039182169116811461213c57600a602052604060002090600052602052604060002054421090565b5060019056febcb50d21b20953db14a558eaaff0deca64299ffffcf70f9236df92fb6600c96be35d6cee68305e9ef8be0e921a0469859d855b04fbf6d137d23a67fc98deb52b6b6a63be2d7872841103b70e52bc6355c0fbe24a6511dbff115f0b926e8e16efddf252ad1be2c89b69c2b068fc378daa952ba7f163c4a11628f55a4df523b3efa26469706673582212203694b1af35a58d97121fc8ab88f6c51dfe5a937fd5649cb0ba600125b4c86e3d64736f6c63430008130033",
  "linkReferences": {},
  "deployedLinkReferences": {}
}