{
  "_format": "hh-sol-artifact-1",
  "contractName": "ECHOAssetV2",
  "sourceName": "contracts/ECHOAssetV2.sol",
  "abi": [
    {
      "inputs": [],
      "stateMutability": "nonpayable",
      "type": "constructor"
    },
    {
      "anonymous": false,
      "inputs": [
        {
          "indexed": true,
          "internalType": "address",
          "name": "owner",
          "type": "address"
        },
        {
          "indexed": true,
          "internalType": "address",
          "name": "approved",
          "type": "address"
        },
        {
          "indexed": true,
          "internalType": "uint256",
          "name": "tokenId",
          "type": "uint256"
        }
      ],
      "name": "Approval",
      "type": "event"
    },
    {
      "anonymous": false,
      "inputs": [
        {
          "indexed": true,
          "internalType": "address",
          "name": "owner",
          "type": "address"
        },
        {
          "indexed": true,
          "internalType": "address",
          "name": "operator",
          "type": "address"
        },
        {
          "indexed": false,
          "internalType": "bool",
          "name": "approved",
          "type": "bool"
        }
      ],
      "name": "ApprovalForAll",
      "type": "event"
    },
    {
      "anonymous": false,
      "inputs": [
        {
          "indexed": true,
          "internalType": "uint256",
          "name": "tokenId",
          "type": "uint256"
        },
        {
          "indexed": true,
          "internalType": "address",
          "name": "creator",
          "type": "address"
        },
        {
          "indexed": false,
          "internalType": "bytes32",
          "name": "contentHash",
          "type": "bytes32"
        },
        {
          "indexed": false,
          "internalType": "string",
          "name": "name",
          "type": "string"
        }
      ],
      "name": "AssetMinted",
      "type": "event"
    },
    {
      "anonymous": false,
      "inputs": [
        {
          "indexed": true,
          "internalType": "uint256",
          "name": "tokenId",
          "type": "uint256"
        },
        {
          "indexed": false,
          "internalType": "uint256",
          "name": "version",
          "type": "uint256"
        },
        {
          "indexed": false,
          "internalType": "bytes32",
          "name": "newContentHash",
          "type": "bytes32"
        },
        {
          "indexed": false,
          "internalType": "string",
          "name": "updateReason",
          "type": "string"
        }
      ],
      "name": "ContentUpdated",
      "type": "event"
    },
    {
      "anonymous": false,
      "inputs": [
        {
          "indexed": true,
          "internalType": "uint256",
          "name": "parentId",
          "type": "uint256"
        },
        {
          "indexed": true,
          "internalType": "uint256",
          "name": "derivativeId",
          "type": "uint256"
        },
        {
          "indexed": false,
          "internalType": "address",
          "name": "creator",
          "type": "address"
        }
      ],
      "name": "DerivativeCreated",
      "type": "event"
    },
    {
      "anonymous": false,
      "inputs": [
        {
          "indexed": true,
          "internalType": "uint256",
          "name": "parentId",
          "type": "uint256"
        },
        {
          "indexed": true,
          "internalType": "uint256",
          "name": "derivativeId",
          "type": "uint256"
        },
        {
          "indexed": false,
          "internalType": "uint256",
          "name": "amount",
          "type": "uint256"
        }
      ],
      "name": "RevenueShared",
      "type": "event"
    },
    {
      "anonymous": false,
      "inputs": [
        {
          "indexed": true,
          "internalType": "uint256",
          "name": "tokenId",
          "type": "uint256"
        },
        {
          "indexed": false,
          "internalType": "string",
          "name": "rightType",
          "type": "string"
        },
        {
          "indexed": true,
          "internalType": "address",
          "name": "from",
          "type": "address"
        },
        {
          "indexed": true,
          "internalType": "address",
          "name": "to",
          "type": "address"
        }
      ],
      "name": "RightTransferred",
      "type": "event"
    },
    {
      "anonymous": false,
      "inputs": [
        {
          "indexed": true,
          "internalType": "uint256",
          "name": "tokenId",
          "type": "uint256"
        },
        {
          "components": [
            {
              "components": [
                {
                  "internalType": "address",
                  "name": "owner",
                  "type": "address"
                },
                {
                  "internalType": "uint256",
                  "name": "fee",
                  "type": "uint256"
                },
                {
                  "internalType": "bool",
                  "name": "commercialUse",
                  "type": "bool"
                },
                {
                  "internalType": "bool",
                  "name": "modificationAllowed",
                  "type": "bool"
                },
                {
                  "internalType": "string[]",
                  "name": "allowedScopes",
                  "type": "string[]"
                },
                {
                  "internalType": "string[]",
                  "name": "restrictedScopes",
                  "type": "string[]"
                },
                {
                  "internalType": "uint256",
                  "name": "maxUsers",
                  "type": "uint256"
                },
                {
                  "internalType": "uint256",
                  "name": "licenseDuration",
                  "type": "uint256"
                }
              ],
              "internalType": "struct ECHOAssetV2.UsageRights",
              "name": "usage",
              "type": "tuple"
            },
            {
              "components": [
                {
                  "internalType": "address",
                  "name": "owner",
                  "type": "address"
                },
                {
                  "internalType": "uint256",
                  "name": "fee",
                  "type": "uint256"
                },
                {
                  "internalType": "bool",
                  "name": "allowDerivatives",
                  "type": "bool"
                },
                {
                  "internalType": "uint256",
                  "name": "revenueShare",
                  "type": "uint256"
                },
                {
                  "internalType": "string[]",
                  "name": "allowedTypes",
                  "type": "string[]"
                }
              ],
              "internalType": "struct ECHOAssetV2.DerivativeRights",
              "name": "derivative",
              "type": "tuple"
            },
            {
              "components": [
                {
                  "internalType": "address",
                  "name": "owner",
                  "type": "address"
                },
                {
                  "internalType": "uint256",
                  "name": "fee",
                  "type": "uint256"
                },
                {
                  "internalType": "bool",
                  "name": "allowExtensions",
                  "type": "bool"
                },
                {
                  "internalType": "string[]",
                  "name": "allowedExtensions",
                  "type": "string[]"
                }
              ],
              "internalType": "struct ECHOAssetV2.ExtensionRights",
              "name": "extension",
              "type": "tuple"
            },
            {
              "components": [
                {
                  "internalType": "address",
                  "name": "owner",
                  "type": "address"
                },
                {
                  "internalType": "uint256",
                  "name": "sharePercentage",
                  "type": "uint256"
                },
                {
                  "internalType": "bool",
                  "name": "autoDistribute",
                  "type": "bool"
                }
              ],
              "internalType": "struct ECHOAssetV2.RevenueRights",
              "name": "revenue",
              "type": "tuple"
            }
          ],
          "indexed": false,
          "internalType": "struct ECHOAssetV2.RightsBlueprint",
          "name": "blueprint",
          "type": "tuple"
        }
      ],
      "name": "RightsBlueprintConfigured",
      "type": "event"
    },
    {
      "anonymous": false,
      "inputs": [
        {
          "indexed": true,
          "internalType": "address",
          "name": "from",
          "type": "address"
        },
        {
          "indexed": true,
          "internalType": "address",
          "name": "to",
          "type": "address"
        },
        {
          "indexed": true,
          "internalType": "uint256",
          "name": "tokenId",
          "type": "uint256"
        }
      ],
      "name": "Transfer",
      "type": "event"
    },
    {
      "anonymous": false,
      "inputs": [
        {
          "indexed": true,
          "internalType": "uint256",
          "name": "tokenId",
          "type": "uint256"
        },
        {
          "indexed": true,
          "internalType": "address",
          "name": "user",
          "type": "address"
        },
        {
          "indexed": false,
          "internalType": "uint256",
          "name": "expiryTime",
          "type": "uint256"
        }
      ],
      "name": "UsageAuthorized",
      "type": "event"
    },
    {
      "inputs": [
        {
          "internalType": "address",
          "name": "to",
          "type": "address"
        },
        {
          "internalType": "uint256",
          "name": "tokenId",
          "type": "uint256"
        }
      ],
      "name": "approve",
      "outputs": [],
      "stateMutability": "nonpayable",
      "type": "function"
    },
    {
      "inputs": [
        {
          "internalType": "uint256",
          "name": "",
          "type": "uint256"
        }
      ],
      "name": "assetMetadata",
      "outputs": [
        {
          "internalType": "string",
          "name": "name",
          "type": "string"
        },
        {
          "internalType": "string",
          "name": "description",
          "type": "string"
        },
        {
          "internalType": "string",
          "name": "assetType",
          "type": "string"
        },
        {
          "internalType": "string",
          "name": "uri",
          "type": "string"
        },
        {
          "internalType": "bytes32",
          "name": "contentHash",
          "type": "bytes32"
        },
        {
          "internalType": "uint256",
          "name": "createdAt",
          "type": "uint256"
        },
        {
          "internalType": "uint256",
          "name": "lastUpdated",
          "type": "uint256"
        }
      ],
      "stateMutability": "view",
      "type": "function"
    },
    {
      "inputs": [
        {
          "internalType": "address",
          "name": "owner",
          "type": "address"
        }
      ],
      "name": "balanceOf",
      "outputs": [
        {
          "internalType": "uint256",
          "name": "",
          "type": "uint256"
        }
      ],
      "stateMutability": "view",
      "type": "function"
    },
    {
      "inputs": [
        {
          "internalType": "bytes32",
          "name": "",
          "type": "bytes32"
        }
      ],
      "name": "contentHashToToken",
      "outputs": [
        {
          "internalType": "uint256",
          "name": "",
          "type": "uint256"
        }
      ],
      "stateMutability": "view",
      "type": "function"
    },
    {
      "inputs": [
        {
          "internalType": "uint256",
          "name": "parentId",
          "type": "uint256"
        },
        {
          "internalType": "string",
          "name": "name",
          "type": "string"
        },
        {
          "internalType": "string",
          "name": "description",
          "type": "string"
        },
        {
          "internalType": "string",
          "name": "assetType",
          "type": "string"
        },
        {
          "internalType": "string",
          "name": "uri",
          "type": "string"
        },
        {
          "internalType": "bytes32",
          "name": "contentHash",
          "type": "bytes32"
        },
        {
          "components": [
            {
              "components": [
                {
                  "internalType": "address",
                  "name": "owner",
                  "type": "address"
                },
                {
                  "internalType": "uint256",
                  "name": "fee",
                  "type": "uint256"
                },
                {
                  "internalType": "bool",
                  "name": "commercialUse",
                  "type": "bool"
                },
                {
                  "internalType": "bool",
                  "name": "modificationAllowed",
                  "type": "bool"
                },
                {
                  "internalType": "string[]",
                  "name": "allowedScopes",
                  "type": "string[]"
                },
                {
                  "internalType": "string[]",
                  "name": "restrictedScopes",
                  "type": "string[]"
                },
                {
                  "internalType": "uint256",
                  "name": "maxUsers",
                  "type": "uint256"
                },
                {
                  "internalType": "uint256",
                  "name": "licenseDuration",
                  "type": "uint256"
                }
              ],
              "internalType": "struct ECHOAssetV2.UsageRights",
              "name": "usage",
              "type": "tuple"
            },
            {
              "components": [
                {
                  "internalType": "address",
                  "name": "owner",
                  "type": "address"
                },
                {
                  "internalType": "uint256",
                  "name": "fee",
                  "type": "uint256"
                },
                {
                  "internalType": "bool",
                  "name": "allowDerivatives",
                  "type": "bool"
                },
                {
                  "internalType": "uint256",
                  "name": "revenueShare",
                  "type": "uint256"
                },
                {
                  "internalType": "string[]",
                  "name": "allowedTypes",
                  "type": "string[]"
                }
              ],
              "internalType": "struct ECHOAssetV2.DerivativeRights",
              "name": "derivative",
              "type": "tuple"
            },
            {
              "components": [
                {
                  "internalType": "address",
                  "name": "owner",
                  "type": "address"
                },
                {
                  "internalType": "uint256",
                  "name": "fee",
                  "type": "uint256"
                },
                {
                  "internalType": "bool",
                  "name": "allowExtensions",
                  "type": "bool"
                },
                {
                  "internalType": "string[]",
                  "name": "allowedExtensions",
                  "type": "string[]"
                }
              ],
              "internalType": "struct ECHOAssetV2.ExtensionRights",
              "name": "extension",
              "type": "tuple"
            },
            {
              "components": [
                {
                  "internalType": "address",
                  "name": "owner",
                  "type": "address"
                },
                {
                  "internalType": "uint256",
                  "name": "sharePercentage",
                  "type": "uint256"
                },
                {
                  "internalType": "bool",
                  "name": "autoDistribute",
                  "type": "bool"
                }
              ],
              "internalType": "struct ECHOAssetV2.RevenueRights",
              "name": "revenue",
              "type": "tuple"
            }
          ],
          "internalType": "struct ECHOAssetV2.RightsBlueprint",
          "name": "blueprint",
          "type": "tuple"
        }
      ],
      "name": "createDerivative",
      "outputs": [
        {
          "internalType": "uint256",
          "name": "",
          "type": "uint256"
        }
      ],
      "stateMutability": "payable",
      "type": "function"
    },
    {
      "inputs": [
        {
          "internalType": "uint256",
          "name": "",
          "type": "uint256"
        }
      ],
      "name": "currentVersion",
      "outputs": [
        {
          "internalType": "uint256",
          "name": "",
          "type": "uint256"
        }
      ],
      "stateMutability": "view",
      "type": "function"
    },
    {
      "inputs": [
        {
          "internalType": "uint256",
          "name": "",
          "type": "uint256"
        },
        {
          "internalType": "uint256",
          "name": "",
          "type": "uint256"
        }
      ],
      "name": "derivativeWorks",
      "outputs": [
        {
          "internalType": "uint256",
          "name": "",
          "type": "uint256"
        }
      ],
      "stateMutability": "view",
      "type": "function"
    },
    {
      "inputs": [
        {
          "internalType": "uint256",
          "name": "tokenId",
          "type": "uint256"
        }
      ],
      "name": "getApproved",
      "outputs": [
        {
          "internalType": "address",
          "name": "",
          "type": "address"
        }
      ],
      "stateMutability": "view",
      "type": "function"
    },
    {
      "inputs": [
        {
          "internalType": "uint256",
          "name": "tokenId",
          "type": "uint256"
        }
      ],
      "name": "getAssetInfo",
      "outputs": [
        {
          "components": [
            {
              "internalType": "string",
              "name": "name",
              "type": "string"
            },
            {
              "internalType": "string",
              "name": "description",
              "type": "string"
            },
            {
              "internalType": "string",
              "name": "assetType",
              "type": "string"
            },
            {
              "internalType": "string",
              "name": "uri",
              "type": "string"
            },
            {
              "internalType": "bytes32",
              "name": "contentHash",
              "type": "bytes32"
            },
            {
              "internalType": "uint256",
              "name": "createdAt",
              "type": "uint256"
            },
            {
              "internalType": "uint256",
              "name": "lastUpdated",
              "type": "uint256"
            }
          ],
          "internalType": "struct ECHOAssetV2.AssetMetadata",
          "name": "metadata",
          "type": "tuple"
        },
        {
          "components": [
            {
              "components": [
                {
                  "internalType": "address",
                  "name": "owner",
                  "type": "address"
                },
                {
                  "internalType": "uint256",
                  "name": "fee",
                  "type": "uint256"
                },
                {
                  "internalType": "bool",
                  "name": "commercialUse",
                  "type": "bool"
                },
                {
                  "internalType": "bool",
                  "name": "modificationAllowed",
                  "type": "bool"
                },
                {
                  "internalType": "string[]",
                  "name": "allowedScopes",
                  "type": "string[]"
                },
                {
                  "internalType": "string[]",
                  "name": "restrictedScopes",
                  "type": "string[]"
                },
                {
                  "internalType": "uint256",
                  "name": "maxUsers",
                  "type": "uint256"
                },
                {
                  "internalType": "uint256",
                  "name": "licenseDuration",
                  "type": "uint256"
                }
              ],
              "internalType": "struct ECHOAssetV2.UsageRights",
              "name": "usage",
              "type": "tuple"
            },
            {
              "components": [
                {
                  "internalType": "address",
                  "name": "owner",
                  "type": "address"
                },
                {
                  "internalType": "uint256",
                  "name": "fee",
                  "type": "uint256"
                },
                {
                  "internalType": "bool",
                  "name": "allowDerivatives",
                  "type": "bool"
                },
                {
                  "internalType": "uint256",
                  "name": "revenueShare",
                  "type": "uint256"
                },
                {
                  "internalType": "string[]",
                  "name": "allowedTypes",
                  "type": "string[]"
                }
              ],
              "internalType": "struct ECHOAssetV2.DerivativeRights",
              "name": "derivative",
              "type": "tuple"
            },
            {
              "components": [
                {
                  "internalType": "address",
                  "name": "owner",
                  "type": "address"
                },
                {
                  "internalType": "uint256",
                  "name": "fee",
                  "type": "uint256"
                },
                {
                  "internalType": "bool",
                  "name": "allowExtensions",
                  "type": "bool"
                },
                {
                  "internalType": "string[]",
                  "name": "allowedExtensions",
                  "type": "string[]"
                }
              ],
              "internalType": "struct ECHOAssetV2.ExtensionRights",
              "name": "extension",
              "type": "tuple"
            },
            {
              "components": [
                {
                  "internalType": "address",
                  "name": "owner",
                  "type": "address"
                },
                {
                  "internalType": "uint256",
                  "name": "sharePercentage",
                  "type": "uint256"
                },
                {
                  "internalType": "bool",
                  "name": "autoDistribute",
                  "type": "bool"
                }
              ],
              "internalType": "struct ECHOAssetV2.RevenueRights",
              "name": "revenue",
              "type": "tuple"
            }
          ],
          "internalType": "struct ECHOAssetV2.RightsBlueprint",
          "name": "blueprint",
          "type": "tuple"
        },
        {
          "internalType": "address",
          "name": "creator",
          "type": "address"
        },
        {
          "internalType": "uint256",
          "name": "version",
          "type": "uint256"
        }
      ],
      "stateMutability": "view",
      "type": "function"
    },
    {
      "inputs": [],
      "name": "getCurrentTokenId",
      "outputs": [
        {
          "internalType": "uint256",
          "name": "",
          "type": "uint256"
        }
      ],
      "stateMutability": "view",
      "type": "function"
    },
    {
      "inputs": [
        {
          "internalType": "uint256",
          "name": "tokenId",
          "type": "uint256"
        }
      ],
      "name": "getDerivativeWorks",
      "outputs": [
        {
          "internalType": "uint256[]",
          "name": "",
          "type": "uint256[]"
        }
      ],
      "stateMutability": "view",
      "type": "function"
    },
    {
      "inputs": [
        {
          "internalType": "uint256",
          "name": "tokenId",
          "type": "uint256"
        }
      ],
      "name": "getVersionHistory",
      "outputs": [
        {
          "components": [
            {
              "internalType": "uint256",
              "name": "version",
              "type": "uint256"
            },
            {
              "internalType": "bytes32",
              "name": "contentHash",
              "type": "bytes32"
            },
            {
              "internalType": "string",
              "name": "uri",
              "type": "string"
            },
            {
              "internalType": "uint256",
              "name": "timestamp",
              "type": "uint256"
            },
            {
              "internalType": "string",
              "name": "updateReason",
              "type": "string"
            }
          ],
          "internalType": "struct ECHOAssetV2.VersionHistory[]",
          "name": "",
          "type": "tuple[]"
        }
      ],
      "stateMutability": "view",
      "type": "function"
    },
    {
      "inputs": [
        {
          "internalType": "uint256",
          "name": "tokenId",
          "type": "uint256"
        },
        {
          "internalType": "address",
          "name": "user",
          "type": "address"
        }
      ],
      "name": "hasUsageRight",
      "outputs": [
        {
          "internalType": "bool",
          "name": "",
          "type": "bool"
        }
      ],
      "stateMutability": "view",
      "type": "function"
    },
    {
      "inputs": [
        {
          "internalType": "address",
          "name": "owner",
          "type": "address"
        },
        {
          "internalType": "address",
          "name": "operator",
          "type": "address"
        }
      ],
      "name": "isApprovedForAll",
      "outputs": [
        {
          "internalType": "bool",
          "name": "",
          "type": "bool"
        }
      ],
      "stateMutability": "view",
      "type": "function"
    },
    {
      "inputs": [
        {
          "internalType": "string",
          "name": "name",
          "type": "string"
        },
        {
          "internalType": "string",
          "name": "description",
          "type": "string"
        },
        {
          "internalType": "string",
          "name": "assetType",
          "type": "string"
        },
        {
          "internalType": "string",
          "name": "uri",
          "type": "string"
        },
        {
          "internalType": "bytes32",
          "name": "contentHash",
          "type": "bytes32"
        },
        {
          "components": [
            {
              "components": [
                {
                  "internalType": "address",
                  "name": "owner",
                  "type": "address"
                },
                {
                  "internalType": "uint256",
                  "name": "fee",
                  "type": "uint256"
                },
                {
                  "internalType": "bool",
                  "name": "commercialUse",
                  "type": "bool"
                },
                {
                  "internalType": "bool",
                  "name": "modificationAllowed",
                  "type": "bool"
                },
                {
                  "internalType": "string[]",
                  "name": "allowedScopes",
                  "type": "string[]"
                },
                {
                  "internalType": "string[]",
                  "name": "restrictedScopes",
                  "type": "string[]"
                },
                {
                  "internalType": "uint256",
                  "name": "maxUsers",
                  "type": "uint256"
                },
                {
                  "internalType": "uint256",
                  "name": "licenseDuration",
                  "type": "uint256"
                }
              ],
              "internalType": "struct ECHOAssetV2.UsageRights",
              "name": "usage",
              "type": "tuple"
            },
            {
              "components": [
                {
                  "internalType": "address",
                  "name": "owner",
                  "type": "address"
                },
                {
                  "internalType": "uint256",
                  "name": "fee",
                  "type": "uint256"
                },
                {
                  "internalType": "bool",
                  "name": "allowDerivatives",
                  "type": "bool"
                },
                {
                  "internalType": "uint256",
                  "name": "revenueShare",
                  "type": "uint256"
                },
                {
                  "internalType": "string[]",
                  "name": "allowedTypes",
                  "type": "string[]"
                }
              ],
              "internalType": "struct ECHOAssetV2.DerivativeRights",
              "name": "derivative",
              "type": "tuple"
            },
            {
              "components": [
                {
                  "internalType": "address",
                  "name": "owner",
                  "type": "address"
                },
                {
                  "internalType": "uint256",
                  "name": "fee",
                  "type": "uint256"
                },
                {
                  "internalType": "bool",
                  "name": "allowExtensions",
                  "type": "bool"
                },
                {
                  "internalType": "string[]",
                  "name": "allowedExtensions",
                  "type": "string[]"
                }
              ],
              "internalType": "struct ECHOAssetV2.ExtensionRights",
              "name": "extension",
              "type": "tuple"
            },
            {
              "components": [
                {
                  "internalType": "address",
                  "name": "owner",
                  "type": "address"
                },
                {
                  "internalType": "uint256",
                  "name": "sharePercentage",
                  "type": "uint256"
                },
                {
                  "internalType": "bool",
                  "name": "autoDistribute",
                  "type": "bool"
                }
              ],
              "internalType": "struct ECHOAssetV2.RevenueRights",
              "name": "revenue",
              "type": "tuple"
            }
          ],
          "internalType": "struct ECHOAssetV2.RightsBlueprint",
          "name": "blueprint",
          "type": "tuple"
        }
      ],
      "name": "mintECHO",
      "outputs": [
        {
          "internalType": "uint256",
          "name": "",
          "type": "uint256"
        }
      ],
      "stateMutability": "nonpayable",
      "type": "function"
    },
    {
      "inputs": [],
      "name": "name",
      "outputs": [
        {
          "internalType": "string",
          "name": "",
          "type": "string"
        }
      ],
      "stateMutability": "view",
      "type": "function"
    },
    {
      "inputs": [
        {
          "internalType": "uint256",
          "name": "",
          "type": "uint256"
        }
      ],
      "name": "originalCreator",
      "outputs": [
        {
          "internalType": "address",
          "name": "",
          "type": "address"
        }
      ],
      "stateMutability": "view",
      "type": "function"
    },
    {
      "inputs": [
        {
          "internalType": "uint256",
          "name": "tokenId",
          "type": "uint256"
        }
      ],
      "name": "ownerOf",
      "outputs": [
        {
          "internalType": "address",
          "name": "",
          "type": "address"
        }
      ],
      "stateMutability": "view",
      "type": "function"
    },
    {
      "inputs": [
        {
          "internalType": "uint256",
          "name": "",
          "type": "uint256"
        }
      ],
      "name": "parentAsset",
      "outputs": [
        {
          "internalType": "uint256",
          "name": "",
          "type": "uint256"
        }
      ],
      "stateMutability": "view",
      "type": "function"
    },
    {
      "inputs": [
        {
          "internalType": "uint256",
          "name": "tokenId",
          "type": "uint256"
        },
        {
          "internalType": "uint256",
          "name": "durationDays",
          "type": "uint256"
        }
      ],
      "name": "payForUsage",
      "outputs": [],
      "stateMutability": "payable",
      "type": "function"
    },
    {
      "inputs": [
        {
          "internalType": "uint256",
          "name": "",
          "type": "uint256"
        }
      ],
      "name": "rightsBlueprint",
      "outputs": [
        {
          "components": [
            {
              "internalType": "address",
              "name": "owner",
              "type": "address"
            },
            {
              "internalType": "uint256",
              "name": "fee",
              "type": "uint256"
            },
            {
              "internalType": "bool",
              "name": "commercialUse",
              "type": "bool"
            },
            {
              "internalType": "bool",
              "name": "modificationAllowed",
              "type": "bool"
            },
            {
              "internalType": "string[]",
              "name": "allowedScopes",
              "type": "string[]"
            },
            {
              "internalType": "string[]",
              "name": "restrictedScopes",
              "type": "string[]"
            },
            {
              "internalType": "uint256",
              "name": "maxUsers",
              "type": "uint256"
            },
            {
              "internalType": "uint256",
              "name": "licenseDuration",
              "type": "uint256"
            }
          ],
          "internalType": "struct ECHOAssetV2.UsageRights",
          "name": "usage",
          "type": "tuple"
        },
        {
          "components": [
            {
              "internalType": "address",
              "name": "owner",
              "type": "address"
            },
            {
              "internalType": "uint256",
              "name": "fee",
              "type": "uint256"
            },
            {
              "internalType": "bool",
              "name": "allowDerivatives",
              "type": "bool"
            },
            {
              "internalType": "uint256",
              "name": "revenueShare",
              "type": "uint256"
            },
            {
              "internalType": "string[]",
              "name": "allowedTypes",
              "type": "string[]"
            }
          ],
          "internalType": "struct ECHOAssetV2.DerivativeRights",
          "name": "derivative",
          "type": "tuple"
        },
        {
          "components": [
            {
              "internalType": "address",
              "name": "owner",
              "type": "address"
            },
            {
              "internalType": "uint256",
              "name": "fee",
              "type": "uint256"
            },
            {
              "internalType": "bool",
              "name": "allowExtensions",
              "type": "bool"
            },
            {
              "internalType": "string[]",
              "name": "allowedExtensions",
              "type": "string[]"
            }
          ],
          "internalType": "struct ECHOAssetV2.ExtensionRights",
          "name": "extension",
          "type": "tuple"
        },
        {
          "components": [
            {
              "internalType": "address",
              "name": "owner",
              "type": "address"
            },
            {
              "internalType": "uint256",
              "name": "sharePercentage",
              "type": "uint256"
            },
            {
              "internalType": "bool",
              "name": "autoDistribute",
              "type": "bool"
            }
          ],
          "internalType": "struct ECHOAssetV2.RevenueRights",
          "name": "revenue",
          "type": "tuple"
        }
      ],
      "stateMutability": "view",
      "type": "function"
    },
    {
      "inputs": [
        {
          "internalType": "address",
          "name": "from",
          "type": "address"
        },
        {
          "internalType": "address",
          "name": "to",
          "type": "address"
        },
        {
          "internalType": "uint256",
          "name": "tokenId",
          "type": "uint256"
        }
      ],
      "name": "safeTransferFrom",
      "outputs": [],
      "stateMutability": "nonpayable",
      "type": "function"
    },
    {
      "inputs": [
        {
          "internalType": "address",
          "name": "from",
          "type": "address"
        },
        {
          "internalType": "address",
          "name": "to",
          "type": "address"
        },
        {
          "internalType": "uint256",
          "name": "tokenId",
          "type": "uint256"
        },
        {
          "internalType": "bytes",
          "name": "data",
          "type": "bytes"
        }
      ],
      "name": "safeTransferFrom",
      "outputs": [],
      "stateMutability": "nonpayable",
      "type": "function"
    },
    {
      "inputs": [
        {
          "internalType": "address",
          "name": "operator",
          "type": "address"
        },
        {
          "internalType": "bool",
          "name": "approved",
          "type": "bool"
        }
      ],
      "name": "setApprovalForAll",
      "outputs": [],
      "stateMutability": "nonpayable",
      "type": "function"
    },
    {
      "inputs": [
        {
          "internalType": "uint256",
          "name": "derivativeId",
          "type": "uint256"
        }
      ],
      "name": "shareRevenue",
      "outputs": [],
      "stateMutability": "payable",
      "type": "function"
    },
    {
      "inputs": [
        {
          "internalType": "bytes4",
          "name": "interfaceId",
          "type": "bytes4"
        }
      ],
      "name": "supportsInterface",
      "outputs": [
        {
          "internalType": "bool",
          "name": "",
          "type": "bool"
        }
      ],
      "stateMutability": "view",
      "type": "function"
    },
    {
      "inputs": [],
      "name": "symbol",
      "outputs": [
        {
          "internalType": "string",
          "name": "",
          "type": "string"
        }
      ],
      "stateMutability": "view",
      "type": "function"
    },
    {
      "inputs": [
        {
          "internalType": "uint256",
          "name": "tokenId",
          "type": "uint256"
        }
      ],
      "name": "tokenURI",
      "outputs": [
        {
          "internalType": "string",
          "name": "",
          "type": "string"
        }
      ],
      "stateMutability": "view",
      "type": "function"
    },
    {
      "inputs": [
        {
          "internalType": "uint256",
          "name": "tokenId",
          "type": "uint256"
        },
        {
          "internalType": "address",
          "name": "newOwner",
          "type": "address"
        }
      ],
      "name": "transferDerivativeRight",
      "outputs": [],
      "stateMutability": "nonpayable",
      "type": "function"
    },
    {
      "inputs": [
        {
          "internalType": "uint256",
          "name": "tokenId",
          "type": "uint256"
        },
        {
          "internalType": "address",
          "name": "newOwner",
          "type": "address"
        }
      ],
      "name": "transferExtensionRight",
      "outputs": [],
      "stateMutability": "nonpayable",
      "type": "function"
    },
    {
      "inputs": [
        {
          "internalType": "address",
          "name": "from",
          "type": "address"
        },
        {
          "internalType": "address",
          "name": "to",
          "type": "address"
        },
        {
          "internalType": "uint256",
          "name": "tokenId",
          "type": "uint256"
        }
      ],
      "name": "transferFrom",
      "outputs": [],
      "stateMutability": "nonpayable",
      "type": "function"
    },
    {
      "inputs": [
        {
          "internalType": "uint256",
          "name": "tokenId",
          "type": "uint256"
        },
        {
          "internalType": "address",
          "name": "newOwner",
          "type": "address"
        }
      ],
      "name": "transferRevenueRight",
      "outputs": [],
      "stateMutability": "nonpayable",
      "type": "function"
    },
    {
      "inputs": [
        {
          "internalType": "uint256",
          "name": "tokenId",
          "type": "uint256"
        },
        {
          "internalType": "address",
          "name": "newOwner",
          "type": "address"
        }
      ],
      "name": "transferUsageRight",
      "outputs": [],
      "stateMutability": "nonpayable",
      "type": "function"
    },
    {
      "inputs": [
        {
          "internalType": "uint256",
          "name": "tokenId",
          "type": "uint256"
        },
        {
          "internalType": "string",
          "name": "newUri",
          "type": "string"
        },
        {
          "internalType": "bytes32",
          "name": "newContentHash",
          "type": "bytes32"
        },
        {
          "internalType": "string",
          "name": "updateReason",
          "type": "string"
        }
      ],
      "name": "updateContent",
      "outputs": [],
      "stateMutability": "nonpayable",
      "type": "function"
    },
    {
      "inputs": [
        {
          "internalType": "uint256",
          "name": "",
          "type": "uint256"
        },
        {
          "internalType": "address",
          "name": "",
          "type": "address"
        }
      ],
      "name": "usageAuthorizations",
      "outputs": [
        {
          "internalType": "uint256",
          "name": "expiryTime",
          "type": "uint256"
        },
        {
          "internalType": "uint256",
          "name": "paidAmount",
          "type": "uint256"
        },
        {
          "internalType": "bool",
          "name": "isActive",
          "type": "bool"
        }
      ],
      "stateMutability": "view",
      "type": "function"
    },
    {
      "inputs": [
        {
          "internalType": "uint256",
          "name": "",
          "type": "uint256"
        },
        {
          "internalType": "uint256",
          "name": "",
          "type": "uint256"
        }
      ],
      "name": "versionHistory",
      "outputs": [
        {
          "internalType": "uint256",
          "name": "version",
          "type": "uint256"
        },
        {
          "internalType": "bytes32",
          "name": "contentHash",
          "type": "bytes32"
        },
        {
          "internalType": "string",
          "name": "uri",
          "type": "string"
        },
        {
          "internalType": "uint256",
          "name": "timestamp",
          "type": "uint256"
        },
        {
          "internalType": "string",
          "name": "updateReason",
          "type": "string"
        }
      ],
      "stateMutability": "view",
      "type": "function"
    },
    {
      "stateMutability": "payable",
      "type": "receive"
    }
  ],
  "bytecode": "0x60803462000313576001600160401b039060409080820183811182821017620002fd578252600d81526020926c22a1a4279020b9b9b2ba102b1960991b84830152825183810181811083821117620002fd578452600681526522a1a427ab1960d11b85820152825190828211620002fd5760008054926001958685811c95168015620002f2575b89861014620002de578190601f958681116200028b575b508990868311600114620002275784926200021b575b5050600019600383901b1c191690861b1781555b8151938411620002075784548581811c91168015620001fc575b88821014620001e857838111620001a0575b50869284116001146200013a578394959650926200012e575b5050600019600383901b1c191690821b1790555b51613eee9081620003198239f35b0151905038806200010c565b9190601f1984169685845280842093905b8882106200018857505083859697106200016e575b505050811b01905562000120565b015160001960f88460031b161c1916905538808062000160565b8087859682949686015181550195019301906200014b565b8582528782208480870160051c8201928a8810620001de575b0160051c019086905b828110620001d2575050620000f3565b838155018690620001c2565b92508192620001b9565b634e487b7160e01b82526022600452602482fd5b90607f1690620000e1565b634e487b7160e01b81526041600452602490fd5b015190503880620000b3565b8480528a85208994509190601f198416865b8d8282106200027457505084116200025a575b505050811b018155620000c7565b015160001960f88460031b161c191690553880806200024c565b8385015186558c9790950194938401930162000239565b9091508380528984208680850160051c8201928c8610620002d4575b918a91869594930160051c01915b828110620002c55750506200009d565b8681558594508a9101620002b5565b92508192620002a7565b634e487b7160e01b83526022600452602483fd5b94607f169462000086565b634e487b7160e01b600052604160045260246000fd5b600080fdfe60808060405260049081361015610020575b5050361561001e57600080fd5b005b60009060e08235811c91826301ffc9a714611b275750816306fdde0314611aa3578163081812fc14611a84578163095ea7b314611911578163134becc61461182c578163139e41e41461181457816323b872dd146117ef5781632854831a146117435781633a8423441461170357816340f1ed5f146116a257816342842e0e1461166f5781634bf607f8146116455781634da4d7eb1461145e578163504e35d3146113a157816356189236146113835781636352211e1461135257816370a08231146112bb5781637ae2358a1461121b5781637c3158bf1461118457816390138b751461115a5781639497e49e1461107b57816395d89b4114610fba578163a22cb46514610ef1578163a5ee205714610e0e578163b204563714610b94578163b88d4fde14610b0a578163bd539ed7146109af578163c87b56dd14610955578163d035625c14610880578163e21b976914610856578163e6cea09b14610824578163e7cf5de014610793578163e985e9c514610743578163f5955f321461070c578163f637d95014610469575063faa51bf80361001157346104665760803660031901126104665781356001600160401b03602435818111610462576101e99036908601611d7b565b60443560643583811161045e576102039036908801611d7b565b90610215610210866127f6565b613c74565b8486526009602090815260408720549094906001600160a01b03163303610420576102418215156129ba565b8587526007855260408720906003820190855190811161040d576102658254612064565b601f81116103d4575b508087601f8211600114610373578a91610368575b508160011b916000199060031b1c19161790555b8188820155600642910155808652600c8452846040872055848652600b845260408620549260018401809411610355579161034f916103337f63adb41583f49a9414c8845969040b1b73ebc7a2d999a1c77d1796e32fb32746969594888a52600b87528560408b2055600a875260408a206040519161031583611c7e565b87835284898401526040830152426060830152846080830152612a3d565b6040519485948552840152606060408401526060830190611b93565b0390a280f35b634e487b7160e01b875260118852602487fd5b905086015138610283565b838b52888b209150601f1983168b5b8a8282106103be57505090836001949392106103a5575b5050811b019055610297565b88015160001960f88460031b161c191690553880610399565b600184958293958d015181550194019201610382565b6103fd90838b52888b20601f840160051c8101918a8510610403575b601f0160051c01906129fd565b3861026e565b90915081906103f0565b634e487b7160e01b895260418a52602489fd5b60405162461bcd60e51b815280890186905260176024820152764f6e6c792063726561746f722063616e2075706461746560481b6044820152606490fd5b8580fd5b8380fd5b80fd5b905082346107085760203660031901126107085791826106cd93358260c060405161049381611c99565b6060815260606020820152606060408201526060808201528260808201528260a082015201526040516104c581611cb4565b6040516104d181611ccf565b84815284602082015284604082015284606082015260606080820152606060a08201528460c08201528486820152815260405161050d81611c7e565b84815284602082015284604082015284606082015260606080820152602082015260405161053a81611cb4565b848152846020820152846040820152606080820152604082015260606040519161056383611c4d565b8583528560208401528560408401520152610580610210826127f6565b825260076020526106f9604083209160086020526040842060096020526006604060018060a01b03818820541696600b602052205494604051936105c385611c99565b6105cc8261209e565b85526105da6001830161209e565b60208601526105eb6002830161209e565b60408601526105fc6003830161209e565b60608601528101546080850152600581015460a0850152015460c083015261065f60106040519261062c84611cb4565b61063581612199565b845261064360078201612211565b6020850152610654600c8201612265565b6040850152016122aa565b606082015260c06040519788976080895261068685518260808c01526101608b0190611b93565b6106b96106a6602088015192607f19938d60a08682850301910152611b93565b60408801518c82038401878e0152611b93565b916060870151918b840301908b0152611b93565b92608081015161010089015260a081015161012089015201516101408701528582036020870152612467565b91604084015260608301520390f35b8280fd5b82843461073f57602036600319011261073f579060209135815260098252604060018060a01b0391205416604051908152f35b5080fd5b82346104665760403660031901126104665760ff6040602092610764611bd3565b61076c611bee565b6001600160a01b039182168352600586528383209116825284522054604051911615158152f35b82843461073f576107a336612020565b908352600a60205260408320805482101561046257906107c29161244b565b5061082081549160018101549361080d6107ee6107e16002850161209e565b926003850154940161209e565b916040519687968752602087015260a0604087015260a0860190611b93565b9160608501528382036080850152611b93565b0390f35b50503461046657604036600319011261046657602061084c83610845611bee565b9035613cb7565b6040519015158152f35b82843461073f57602036600319011261073f57602091604091358152600c83522054604051908152f35b82843461073f57604036600319011261073f57803561089d611bee565b906108aa610210826127f6565b808452600860205260408420546001600160a01b0393908416330361091f57508084526008602052600080516020613e79833981519152606060408620948086549516958660018060a01b0319871617905560405194602086526005602087015264757361676560d81b60408701521693a480f35b60649060206040519162461bcd60e51b8352820152600f60248201526e2737ba103ab9b0b3b29037bbb732b960891b6044820152fd5b82843461073f57602036600319011261073f579061097e61097961082093356127f6565b6124b7565b8060405161098b81611ceb565b526040519061099982611ceb565b8152604051918291602083526020830190611b93565b82843461073f5760209081600319360112610708578281356109d3610210826127f6565b8152600a8352604081209081546109e981611da6565b936109f76040519586611d06565b81855285850190819484528684209084925b848410610aab575050505050604051928484019085855251809152604084019460408260051b8601019392955b828710610a435785850386f35b909192938280610a9b600193603f198a82030186528851805182528381015184830152610a7e604082015160a0806040860152840190611b93565b916060808301519082015260808092015191818403910152611b93565b9601920196019592919092610a36565b60058960019260409b9a989b51610ac181611c7e565b865481528487015483820152610ad96002880161209e565b604082015260038701546060820152610af386880161209e565b608082015281520193019301929197949697610a09565b82843461073f57608036600319011261073f57610b25611bd3565b90610b2e611bee565b6064359290604435906001600160401b03851161045e573660238601121561045e57610b69610b8c94866024610b9198369301359101611d44565b92610b7c610b778433612621565b612548565b610b878383836126e9565b61292f565b6125fd565b80f35b3660031901129050610466576001600160401b0390823560243583811161070857610bc29036908601611d7b565b9260443581811161046257610bda9036908701611d7b565b93606435828111610e0a57610bf29036908801611d7b565b9160843581811161045e57610c0a9036908901611d7b565b9060c43590811161045e57610c229036908901611e3d565b92610c2c856127f6565b15610dc857848652602096600888526040872060ff60098201541615610d8a576008810154908115908115610d03575b50505090610c709493929160a43593612c92565b91818152600e845260408120805490600160401b821015610cf0578392610ca1836040936001899896018155612036565b81549060031b9087821b91600019901b1916179055848152600f875220557faf82009626bd184c7d2cac8be5d34eae6b310dcdc32d6cc66bbd79f7a0c09f8b84604051338152a3604051908152f35b634e487b7160e01b835260418752602483fd5b823410610d485789809381938293600760018060a01b0391015416908390610d3f575bf115610d3457388080610c5c565b6040513d88823e3d90fd5b506108fc610d26565b60405162461bcd60e51b8152808d018c9052601b60248201527a496e73756666696369656e7420646572697661746976652066656560281b6044820152606490fd5b60405162461bcd60e51b8152808b018a9052601760248201527611195c9a5d985d1a5d995cc81b9bdd08185b1b1bddd959604a1b6044820152606490fd5b60405162461bcd60e51b81526020818a0152601b60248201527a14185c995b9d08185cdcd95d08191bd95cc81b9bdd08195e1a5cdd602a1b6044820152606490fd5b8480fd5b82843461073f57604036600319011261073f578035610e2b611bee565b90610e38610210826127f6565b808452600860205260408420600c01546001600160a01b03939084163303610eb757508084526008602052600080516020613e798339815191526060600c6040872001948086549516958660018060a01b031987161790556040519460208652600960208701526832bc3a32b739b4b7b760b91b60408701521693a480f35b60649060206040519162461bcd60e51b835282015260136024820152722737ba1032bc3a32b739b4b7b71037bbb732b960691b6044820152fd5b82843461073f57604036600319011261073f57610f0c611bd3565b60243580151591828203610e0a576001600160a01b031692338414610f7a5750610f4b90338552600560205260408520848652602052604085206127e5565b6040519081527f17307eab39ab6107e8899845ad3d59bd9653f200f220920489ca2b5937696c3160203392a380f35b60649060206040519162461bcd60e51b8352820152601960248201527822a9219b99189d1030b8383937bb32903a379031b0b63632b960391b6044820152fd5b8234610466578060031936011261046657604051816001805490610fdd82612064565b808552918181169081156110535750600114611018575b6108208461100481880382611d06565b604051918291602083526020830190611b93565b80945082526020938483205b8284106110405750505081610820936110049282010193610ff4565b8054858501870152928501928101611024565b61082096506110049450602092508593915060ff191682840152151560051b82010193610ff4565b82843461073f57604036600319011261073f578035611098611bee565b906110a5610210826127f6565b808452600860205260408420601001546001600160a01b0393908416330361112257508084526008602052600080516020613e79833981519152606060106040872001948086549516958660018060a01b0319871617905560405194602086526007602087015266726576656e756560c81b60408701521693a480f35b60649060206040519162461bcd60e51b835282015260116024820152702737ba103932bb32b73ab29037bbb732b960791b6044820152fd5b82843461073f57602036600319011261073f57602091604091358152600f83522054604051908152f35b82843461073f57602036600319011261073f576111f4916040913581526008602052206111b081612199565b906108206112106111c360078401612211565b926112026111df60106111d8600c8501612265565b93016122aa565b9460405197889760c0895260c0890190612335565b9087820360208901526123a8565b9085820360408701526123ec565b916060840190612427565b82843461073f576020908160031936011261070857358252600e81526040822060405192838383549182815201908193835284832090835b8181106112a75750505084611269910385611d06565b60405193838594850191818652518092526040850193925b82811061129057505050500390f35b835185528695509381019392810192600101611281565b825484529286019260019283019201611253565b82843461073f57602036600319011261073f576001600160a01b036112de611bd3565b169081156112fc576020604084848152600383522054604051908152f35b60849060206040519162461bcd60e51b8352820152602960248201527f4552433732313a2061646472657373207a65726f206973206e6f7420612076616044820152683634b21037bbb732b960b91b6064820152fd5b50503461046657602036600319011261046657602061137183356124fe565b6040516001600160a01b039091168152f35b82346104665780600319360112610466576020600654604051908152f35b919050346104665760203660031901126104665760409083358152600760205220916113cc8361209e565b926113d96001820161209e565b9061144a6113e96002830161209e565b9361143c6113f96003850161209e565b918401549561142e60066005870154960154966114206040519b8b8d9c8d528c0190611b93565b908a820360208c0152611b93565b9088820360408a0152611b93565b908682036060880152611b93565b92608085015260a084015260c08301520390f35b828461146936612020565b611475610210836127f6565b818452602090600882526040852090611492816001840154612a14565b341061160e57600582015415801580611606575b50156115ce578580808060018060a01b03601087015416819034156115c4575b3491f1156115b95762015180908181029181830414901517156115a6576006819201549081801515918261159c575b5050611594575b5042019283421161158157507fae16de5c9c7bbe3f00dab40b795d2a89cdcd4d8624d67eada25c215a9335844f9061157560405161153981611c4d565b8581526002838201348152604083019060018252878a52600d865260408a20338b52865260408a209351845551600184015551151591016127e5565b6040519384523393a380f35b634e487b7160e01b855260119052602484fd5b9050856114fc565b11905081886114f5565b634e487b7160e01b865260118552602486fd5b6040513d87823e3d90fd5b6108fc91506114c6565b60405162461bcd60e51b8152808601849052601160248201527013585e081d5cd95c9cc81c995858da1959607a1b6044820152606490fd5b9050876114a6565b60405162461bcd60e51b8152808601849052601060248201526f496e73756666696369656e742066656560801b6044820152606490fd5b82843461073f57602036600319011261073f57602091604091358152600b83522054604051908152f35b823461046657610b91610b8c61168436611c18565b906040519261169284611ceb565b868452610b7c610b778433612621565b82843461073f57604036600319011261073f576060916040916116c3611bee565b90358252600d6020528282209060018060a01b031682526020522080549060ff600260018301549201541690604051928352602083015215156040820152f35b82346104665761171236612020565b91908152600e602052604081209081548310156104665760206117358484612036565b90546040519160031b1c8152f35b5050346104665760c0366003190112610466576001600160401b0390823582811161073f576117759036908501611d7b565b916024358181116107085761178d9036908601611d7b565b93604435828111610462576117a59036908301611d7b565b91606435818111610e0a576117bd9036908401611d7b565b9360a4359182116104665760206117e7888888886117dd36898b01611e3d565b9360843593612c92565b604051908152f35b823461046657610b9161180136611c18565b9161180f610b778433612621565b6126e9565b8284602036600319011261073f57610b919035613d2f565b82843461073f57604036600319011261073f578035611849611bee565b90611856610210826127f6565b808452600860205260408420600701546001600160a01b039390841633036118d657508084526008602052600080516020613e79833981519152606060076040872001948086549516958660018060a01b031987161790556040519460208652600a6020870152696465726976617469766560b01b60408701521693a480f35b60649060206040519162461bcd60e51b835282015260146024820152732737ba103232b934bb30ba34bb329037bbb732b960611b6044820152fd5b82843461073f57604036600319011261073f5761192c611bd3565b602435916001600160a01b03908180611944866124fe565b16931692808414611a3657803314908115611a15575b50156119ab578385526020526040842080546001600160a01b03191683179055611983836124fe565b167f8c5be1e5ebec7d5bd14f71427d1e84f3dd0314c0f7b2291e5b200ac8c7c3b9258480a480f35b60849060206040519162461bcd60e51b8352820152603d60248201527f4552433732313a20617070726f76652063616c6c6572206973206e6f7420746f60448201527f6b656e206f776e6572206f7220617070726f76656420666f7220616c6c0000006064820152fd5b9050855260056020526040852033865260205260ff6040862054168661195a565b60405162461bcd60e51b8152602081840152602160248201527f4552433732313a20617070726f76616c20746f2063757272656e74206f776e656044820152603960f91b6064820152608490fd5b5050346104665760203660031901126104665760206113718335612521565b8234610466578060031936011261046657604051818054611ac381612064565b808452906001908181169081156110535750600114611aec576108208461100481880382611d06565b93508180526020938483205b828410611b145750505081610820936110049282010193610ff4565b8054858501870152928501928101611af8565b83908534610708576020366003190112610708573563ffffffff60e01b811680910361070857602092506380ac58cd60e01b8114908115611b82575b8115611b71575b5015158152f35b6301ffc9a760e01b14905083611b6a565b635b5e139f60e01b81149150611b63565b919082519283825260005b848110611bbf575050826000602080949584010152601f8019910116010190565b602081830181015184830182015201611b9e565b600435906001600160a01b0382168203611be957565b600080fd5b602435906001600160a01b0382168203611be957565b35906001600160a01b0382168203611be957565b6060906003190112611be9576001600160a01b03906004358281168103611be957916024359081168103611be9579060443590565b606081019081106001600160401b03821117611c6857604052565b634e487b7160e01b600052604160045260246000fd5b60a081019081106001600160401b03821117611c6857604052565b60e081019081106001600160401b03821117611c6857604052565b608081019081106001600160401b03821117611c6857604052565b61010081019081106001600160401b03821117611c6857604052565b602081019081106001600160401b03821117611c6857604052565b601f909101601f19168101906001600160401b03821190821017611c6857604052565b6001600160401b038111611c6857601f01601f191660200190565b929192611d5082611d29565b91611d5e6040519384611d06565b829481845281830111611be9578281602093846000960137010152565b9080601f83011215611be957816020611d9693359101611d44565b90565b35908115158203611be957565b6001600160401b038111611c685760051b60200190565b9080601f83011215611be957813590611dd582611da6565b92611de36040519485611d06565b828452602092838086019160051b83010192808411611be957848301915b848310611e115750505050505090565b82356001600160401b038111611be9578691611e3284848094890101611d7b565b815201920191611e01565b919082810360c08112611be9576040805190611e5882611cb4565b90946001600160401b0393869291908135868111611be95782019561010087830312611be957835195611e8a87611ccf565b611e9388611c04565b87526020928389013584890152611eab868a01611d99565b86890152606097611ebd898b01611d99565b898201526080998a810135858111611be95783611edb918301611dbd565b8b83015260a081013590858211611be957611efa8460e0938301611dbd565b60a084015260c081013560c0840152013560e0820152875283850135838111611be957850160a081830312611be957865190611f3582611c7e565b611f3e81611c04565b82528581013586830152611f53888201611d99565b88830152898101358a8301528a81013590858211611be957611f7791849101611dbd565b8a8201528488015285850135838111611be95785018981830312611be957865191611fa183611cb4565b611faa82611c04565b83528582013586840152611fbf888301611d99565b8884015289820135948511611be9578994611fda9201611dbd565b8184015286860152605f190112611be9576120189160a091845197611ffe89611c4d565b612009888401611c04565b89528201359088015201611d99565b908401520152565b6040906003190112611be9576004359060243590565b805482101561204e5760005260206000200190600090565b634e487b7160e01b600052603260045260246000fd5b90600182811c92168015612094575b602083101461207e57565b634e487b7160e01b600052602260045260246000fd5b91607f1691612073565b90604051918260008254926120b284612064565b90818452600194858116908160001461212157506001146120de575b50506120dc92500383611d06565b565b9093915060005260209081600020936000915b8183106121095750506120dc935082010138806120ce565b855488840185015294850194879450918301916120f1565b9150506120dc94506020925060ff191682840152151560051b82010138806120ce565b90815461215081611da6565b9261215e6040519485611d06565b818452600090815260208082208186015b84841061217d575050505050565b600183819261218b8561209e565b81520192019301929061216f565b906040516121a681611ccf565b60e06006829460018060a01b0381541684526001810154602085015260ff60028201548181161515604087015260081c16151560608501526121ea60038201612144565b60808501526121fb60048201612144565b60a0850152600581015460c08501520154910152565b9060405161221e81611c7e565b82546001600160a01b0316815260018301546020820152600283015460ff16151560408201526003830154606082015291829060809061226090600401612144565b910152565b9060405161227281611cb4565b82546001600160a01b0316815260018301546020820152600283015460ff161515604082015291829060609061226090600301612144565b906040516122b781611c4d565b82546001600160a01b031681526001830154602082015260029092015460ff1615156040830152565b90815180825260208092019182818360051b85019501936000915b84831061230b5750505050505090565b909192939495848061232583856001950387528a51611b93565b98019301930191949392906122fb565b9060018060a01b0382511681526020820151602082015260408201511515604082015260608201511515606082015260e08061239561238360808601516101008060808801528601906122e0565b60a086015185820360a08701526122e0565b9360c081015160c0850152015191015290565b9060a06080611d9693600180841b038151168452602081015160208501526040810151151560408501526060810151606085015201519181608082015201906122e0565b9060806060611d969360018060a01b0381511684526020810151602085015260408101511515604085015201519181606082015201906122e0565b80516001600160a01b03168252602080820151908301526040908101511515910152565b805482101561204e576000526005602060002091020190600090565b90611d96906060806124ac61249a612488875160c0875260c0870190612335565b602088015186820360208801526123a8565b604087015185820360408701526123ec565b940151910190612427565b156124be57565b60405162461bcd60e51b8152602060048201526018602482015277115490cdcc8c4e881a5b9d985b1a59081d1bdad95b88125160421b6044820152606490fd5b6000908152600260205260409020546001600160a01b0316611d968115156124b7565b61252d610979826127f6565b6000908152600460205260409020546001600160a01b031690565b1561254f57565b60405162461bcd60e51b815260206004820152602d60248201527f4552433732313a2063616c6c6572206973206e6f7420746f6b656e206f776e6560448201526c1c881bdc88185c1c1c9bdd9959609a1b6064820152608490fd5b60809060208152603260208201527f4552433732313a207472616e7366657220746f206e6f6e20455243373231526560408201527131b2b4bb32b91034b6b83632b6b2b73a32b960711b60608201520190565b1561260457565b60405162461bcd60e51b81528061261d600482016125aa565b0390fd5b906001600160a01b038080612635846124fe565b16931691838314938415612668575b508315612652575b50505090565b61265e91929350612521565b161438808061264c565b909350600052600560205260406000208260005260205260ff604060002054169238612644565b1561269657565b60405162461bcd60e51b815260206004820152602560248201527f4552433732313a207472616e736665722066726f6d20696e636f72726563742060448201526437bbb732b960d91b6064820152608490fd5b90612711916126f7846124fe565b6001600160a01b039391841692849290918316841461268f565b16918215612794578161272e91612727866124fe565b161461268f565b600080516020613e99833981519152600084815260046020526040812060018060a01b03199081815416905583825260036020526040822060001981540190558482526040822060018154019055858252600260205284604083209182541617905580a4565b60405162461bcd60e51b8152602060048201526024808201527f4552433732313a207472616e7366657220746f20746865207a65726f206164646044820152637265737360e01b6064820152608490fd5b9060ff801983541691151516179055565b6000908152600260205260409020546001600160a01b0316151590565b9192600092909190803b1561292557612861946040518092630a85bd0160e11b9485835233600484015287602484015260448301526080606483015281878160209a8b966084830190611b93565b03926001600160a01b03165af18491816128e5575b506128d4575050503d6000146128cc573d61289081611d29565b9061289e6040519283611d06565b81528091833d92013e5b805191826128c95760405162461bcd60e51b81528061261d600482016125aa565b01fd5b5060606128a8565b6001600160e01b0319161492509050565b9091508581813d831161291e575b6128fd8183611d06565b81010312610e0a57516001600160e01b031981168103610e0a579038612876565b503d6128f3565b5050915050600190565b9293600093909291803b156129af579484916129899660405180948193630a85bd0160e11b9788845233600485015260018060a01b0380921660248501526044840152608060648401528260209b8c976084830190611b93565b0393165af18491816128e557506128d4575050503d6000146128cc573d61289081611d29565b505050915050600190565b156129c157565b60405162461bcd60e51b8152602060048201526014602482015273092dcecc2d8d2c840c6dedce8cadce840d0c2e6d60631b6044820152606490fd5b818110612a08575050565b600081556001016129fd565b81810292918115918404141715612a2757565b634e487b7160e01b600052601160045260246000fd5b8054600160401b811015611c6857612a5c90600192838201815561244b565b612c7c578251815560208084015183830155604084015180516001600160401b0393919291906002820190858111611c6857612a988254612064565b94601f95868111612c4e575b508490868311600114612be05791806004949260809694600092612bd5575b5050600019600383901b1c191690891b1790555b6060880151600382015501950151908151938411611c6857612af98654612064565b838111612b9d575b5080928411600114612b3a5750928293918392600094612b2f575b50501b916000199060031b1c1916179055565b015192503880612b1c565b919083601f1981168760005284600020946000905b88838310612b835750505010612b6a575b505050811b019055565b015160001960f88460031b161c19169055388080612b60565b858701518855909601959485019487935090810190612b4f565b612bc69087600052826000208580880160051c820192858910612bcc575b0160051c01906129fd565b38612b01565b92508192612bbb565b015190503880612ac3565b889291601f1983169185600052876000209260005b89828210612c385750509160809795939185600498969410612c1f575b505050811b019055612ad7565b015160001960f88460031b161c19169055388080612c12565b8385015186558d97909501949384019301612bf5565b612c769084600052866000208880860160051c820192898710612bcc570160051c01906129fd565b38612aa4565b634e487b7160e01b600052600060045260246000fd5b9291949084600052600c602052604060002054613beb57612cb48515156129ba565b6006549560018701600655604051612ccb81611ceb565b600081523315613ba757610b8c612d4991612cee612ce88b6127f6565b15613c29565b612cfa612ce88b6127f6565b33600052600360205260406000206001815401905589600052600260205260406000203360018060a01b031982541617905589336000600080516020613e998339815191528180a48933612813565b60405191612d5683611c99565b858352602083015260408201528260608201528460808201524260a08201524260c0820152856000526007602052604060002090805180519060018060401b038211611c68578190612da88554612064565b601f8111613b75575b50602090601f8311600114613b0957600092613afe575b50508160011b916000199060031b1c19161782555b60208101518051906001600160401b038211611c68578190612e026001860154612064565b601f8111613ac9575b50602090601f8311600114613a5757600092613a4c575b50508160011b916000199060031b1c19161760018301555b60408101518051906001600160401b038211611c68578190612e5f6002860154612064565b601f8111613a17575b50602090601f83116001146139a55760009261399a575b50508160011b916000199060031b1c19161760028301555b60608101518051906001600160401b038211611c6857612eba6003850154612064565b601f8111613965575b50602090601f83116001146138f05791806006949260c0946000926138e5575b50508160011b916000199060031b1c19161760038501555b6080810151600485015560a0810151600585015501519101558460005260086020526040600020815160018060a01b0381511660018060a01b03198354161782556020810151600183015560028201612f5a60408301511515826127e5565b6060820151815461ff00191690151560081b61ff00161790556080810151805190600160401b8211611c6857600384015482600386015580831061386d575b5060200190600384016000526020600020916000905b828210613758575050505060a0810151805190600160401b8211611c685760048401548260048601558083106136e0575b5060200190600484016000526020600020916000905b8282106135cb5750505060c082015160058401555060e00151600682015560208281015180516007840180546001600160a01b0319166001600160a01b039290921691909117905590810151600883015560408101516080919061305f901515600985016127e5565b6060810151600a8401550151805190600160401b8211611c6857600b83015482600b850155808310613553575b5060200190600b83016000526020600020916000905b82821061343e57505050506060600c820160408401519060018060a01b0382511660018060a01b03198254161790556020810151600d8401556130ee60408201511515600e85016127e5565b0151805190600160401b8211611c6857600f83015482600f8501558083106133c6575b5060200190600f83016000526020600020916000905b8282106132b15750505050606082015180516010830180546001600160a01b0319166001600160a01b0392909216919091179055602081015160118301556040015161317991901515906012016127e5565b84600052600960205260406000203360018060a01b031982541617905583600052600c6020528460406000205584600052600a602052604060002092604051926131c284611c7e565b60018452856020850152604084015242606084015260405193604085019480861060018060401b03871117611c685787966132666132ab9689947f2f5203c140632fd0f0ec48051a26eb3f86f34b274324eb9a6482407c42964cec947fde3e5ccf63568cdbbdef093855e958e8da6546b8e91f2088910bd5149ee1d64a9a604052600c81526b125b9a5d1a585b081b5a5b9d60a21b60208201526080830152612a3d565b82600052600b6020526001604060002055604051908152604060208201528061329433956040830190611b93565b0390a3604051918291602083526020830190612467565b0390a290565b80518051906001600160401b038211611c68576132ce8654612064565b601f8111613394575b50602090601f8311600114613324579282600194936020938695600092613319575b5050600019600383901b1c191690841b1787555b01940191019092613127565b0151905038806132f9565b908660005260206000209160005b601f198516811061337c575083602093600196938796938794601f19811610613363575b505050811b01875561330d565b015160001960f88460031b161c19169055388080613356565b91926020600181928685015181550194019201613332565b6133c090876000526020600020601f850160051c8101916020861061040357601f0160051c01906129fd565b386132d7565b600f84016000526020600020908382015b81830181106133e7575050613111565b806133f460019254612064565b80613401575b50016133d7565b601f811183146134175750600081555b386133fa565b600090828252613435601f60208420920160051c82018583016129fd565b81835555613411565b80518051906001600160401b038211611c685761345b8654612064565b601f8111613521575b50602090601f83116001146134b15792826001949360209386956000926134a6575b5050600019600383901b1c191690841b1787555b019401910190926130a2565b015190503880613486565b908660005260206000209160005b601f1985168110613509575083602093600196938796938794601f198116106134f0575b505050811b01875561349a565b015160001960f88460031b161c191690553880806134e3565b919260206001819286850151815501940192016134bf565b61354d90876000526020600020601f850160051c8101916020861061040357601f0160051c01906129fd565b38613464565b600b84016000526020600020908382015b818301811061357457505061308c565b8061358160019254612064565b8061358e575b5001613564565b601f811183146135a45750600081555b38613587565b6000908282526135c2601f60208420920160051c82018583016129fd565b8183555561359e565b80518051906001600160401b038211611c68576135e88654612064565b601f81116136ae575b50602090601f831160011461363e579282600194936020938695600092613633575b5050600019600383901b1c191690841b1787555b01940191019092612ff6565b015190503880613613565b908660005260206000209160005b601f1985168110613696575083602093600196938796938794601f1981161061367d575b505050811b018755613627565b015160001960f88460031b161c19169055388080613670565b9192602060018192868501518155019401920161364c565b6136da90876000526020600020601f850160051c8101916020861061040357601f0160051c01906129fd565b386135f1565b600485016000526020600020908382015b8183018110613701575050612fe0565b8061370e60019254612064565b8061371b575b50016136f1565b601f811183146137315750600081555b38613714565b60009082825261374f601f60208420920160051c82018583016129fd565b8183555561372b565b80518051906001600160401b038211611c68576137758654612064565b601f811161383b575b50602090601f83116001146137cb5792826001949360209386956000926137c0575b5050600019600383901b1c191690841b1787555b01940191019092612faf565b0151905038806137a0565b908660005260206000209160005b601f1985168110613823575083602093600196938796938794601f1981161061380a575b505050811b0187556137b4565b015160001960f88460031b161c191690553880806137fd565b919260206001819286850151815501940192016137d9565b61386790876000526020600020601f850160051c8101916020861061040357601f0160051c01906129fd565b3861377e565b600385016000526020600020908382015b818301811061388e575050612f99565b8061389b60019254612064565b806138a8575b500161387e565b601f811183146138be5750600081555b386138a1565b6000908282526138dc601f60208420920160051c82018583016129fd565b818355556138b8565b015190503880612ee3565b906003850160005260206000209160005b601f198516811061394d5750926006949260019260c09583601f19811610613934575b505050811b016003850155612efb565b015160001960f88460031b161c19169055388080613924565b91926020600181928685015181550194019201613901565b61399490600386016000526020600020601f850160051c8101916020861061040357601f0160051c01906129fd565b38612ec3565b015190503880612e7f565b9250600285016000526020600020906000935b601f19841685106139fc576001945083601f198116106139e3575b505050811b016002830155612e97565b015160001960f88460031b161c191690553880806139d3565b818101518355602094850194600190930192909101906139b8565b613a4690600287016000526020600020601f850160051c8101916020861061040357601f0160051c01906129fd565b38612e68565b015190503880612e22565b9250600185016000526020600020906000935b601f1984168510613aae576001945083601f19811610613a95575b505050811b016001830155612e3a565b015160001960f88460031b161c19169055388080613a85565b81810151835560209485019460019093019290910190613a6a565b613af890600187016000526020600020601f850160051c8101916020861061040357601f0160051c01906129fd565b38612e0b565b015190503880612dc8565b9250846000526020600020906000935b601f1984168510613b5a576001945083601f19811610613b41575b505050811b018255612ddd565b015160001960f88460031b161c19169055388080613b34565b81810151835560209485019460019093019290910190613b19565b613ba190866000526020600020601f850160051c8101916020861061040357601f0160051c01906129fd565b38612db1565b606460405162461bcd60e51b815260206004820152602060248201527f4552433732313a206d696e7420746f20746865207a65726f20616464726573736044820152fd5b60405162461bcd60e51b815260206004820152601660248201527510dbdb9d195b9d08185b1c9958591e481b5a5b9d195960521b6044820152606490fd5b15613c3057565b60405162461bcd60e51b815260206004820152601c60248201527b115490cdcc8c4e881d1bdad95b88185b1c9958591e481b5a5b9d195960221b6044820152606490fd5b15613c7b57565b60405162461bcd60e51b8152602060048201526014602482015273105cdcd95d08191bd95cc81b9bdd08195e1a5cdd60621b6044820152606490fd5b6000908152600860205260409020546001600160a01b0391821691168114613d2957600d6020526040600020906000526020526040806000208151613cfb81611c4d565b60ff6002835493848452600181015460208501520154161515928391015281613d22575090565b9050421090565b50600190565b613d38816127f6565b15613e37573415613dfe576000818152600f6020526040812054908115613df95781815260086020526040812090612710613d77600a84015434612a14565b049182158015613d8a575b505050505050565b8280858194938294601060018060a01b0391015416908390613df0575bf115613de4575060207f462f33366637f54810c6df74aa5d2dce053d73456eac2dee9552dcc4ee64188e91604051908152a3388080808080613d82565b604051903d90823e3d90fd5b506108fc613da7565b505050565b60405162461bcd60e51b81526020600482015260116024820152704d7573742073656e6420726576656e756560781b6044820152606490fd5b60405162461bcd60e51b815260206004820152601960248201527811195c9a5d985d1a5d9948191bd95cc81b9bdd08195e1a5cdd603a1b6044820152606490fdfebcb50d21b20953db14a558eaaff0deca64299ffffcf70f9236df92fb6600c96bddf252ad1be2c89b69c2b068fc378daa952ba7f163c4a11628f55a4df523b3efa26469706673582212208d52fc983574af00c71e8c3a5878ad767246fd4959f17fce93e808127150bace64736f6c63430008130033",
  "linkReferences": {},
  "deployedLinkReferences": {}
}