{
  "_format": "hh-sol-artifact-1",
  "contractName": "ECHOFusion",
  "sourceName": "contracts/ECHOFusion.sol",
  "abi": [
    {
      "inputs": [
        {
          "internalType": "address",
          "name": "_echoAssetContract",
          "type": "address"
        }
      ],
      "stateMutability": "nonpayable",
      "type": "constructor"
    },
    {
      "anonymous": false,
      "inputs": [
        {
          "indexed": true,
          "internalType": "address",
          "name": "owner",
          "type": "address"
        },
        {
          "indexed": true,
          "internalType": "address",
          "name": "approved",
          "type": "address"
        },
        {
          "indexed": true,
          "internalType": "uint256",
          "name": "tokenId",
          "type": "uint256"
        }
      ],
      "name": "Approval",
      "type": "event"
    },
    {
      "anonymous": false,
      "inputs": [
        {
          "indexed": true,
          "internalType": "address",
          "name": "owner",
          "type": "address"
        },
        {
          "indexed": true,
          "internalType": "address",
          "name": "operator",
          "type": "address"
        },
        {
          "indexed": false,
          "internalType": "bool",
          "name": "approved",
          "type": "bool"
        }
      ],
      "name": "ApprovalForAll",
      "type": "event"
    },
    {
      "anonymous": false,
      "inputs": [
        {
          "indexed": true,
          "internalType": "uint256",
          "name": "treeId",
          "type": "uint256"
        },
        {
          "indexed": true,
          "internalType": "address",
          "name": "user",
          "type": "address"
        },
        {
          "indexed": false,
          "internalType": "uint256",
          "name": "amount",
          "type": "uint256"
        }
      ],
      "name": "RevenueClaimed",
      "type": "event"
    },
    {
      "anonymous": false,
      "inputs": [
        {
          "indexed": true,
          "internalType": "uint256",
          "name": "treeId",
          "type": "uint256"
        },
        {
          "indexed": false,
          "internalType": "uint256",
          "name": "amount",
          "type": "uint256"
        },
        {
          "indexed": false,
          "internalType": "address",
          "name": "distributor",
          "type": "address"
        }
      ],
      "name": "RevenueDistributed",
      "type": "event"
    },
    {
      "anonymous": false,
      "inputs": [
        {
          "indexed": true,
          "internalType": "uint256",
          "name": "treeId",
          "type": "uint256"
        },
        {
          "indexed": true,
          "internalType": "uint256",
          "name": "seedId",
          "type": "uint256"
        },
        {
          "indexed": false,
          "internalType": "uint256",
          "name": "weight",
          "type": "uint256"
        }
      ],
      "name": "SeedAddedToTree",
      "type": "event"
    },
    {
      "anonymous": false,
      "inputs": [
        {
          "indexed": true,
          "internalType": "address",
          "name": "from",
          "type": "address"
        },
        {
          "indexed": true,
          "internalType": "address",
          "name": "to",
          "type": "address"
        },
        {
          "indexed": true,
          "internalType": "uint256",
          "name": "tokenId",
          "type": "uint256"
        }
      ],
      "name": "Transfer",
      "type": "event"
    },
    {
      "anonymous": false,
      "inputs": [
        {
          "indexed": true,
          "internalType": "uint256",
          "name": "treeId",
          "type": "uint256"
        },
        {
          "indexed": true,
          "internalType": "address",
          "name": "creator",
          "type": "address"
        },
        {
          "indexed": false,
          "internalType": "uint256[]",
          "name": "seedIds",
          "type": "uint256[]"
        },
        {
          "indexed": false,
          "internalType": "uint256[]",
          "name": "weights",
          "type": "uint256[]"
        }
      ],
      "name": "TreeFused",
      "type": "event"
    },
    {
      "inputs": [
        {
          "internalType": "address",
          "name": "to",
          "type": "address"
        },
        {
          "internalType": "uint256",
          "name": "tokenId",
          "type": "uint256"
        }
      ],
      "name": "approve",
      "outputs": [],
      "stateMutability": "nonpayable",
      "type": "function"
    },
    {
      "inputs": [
        {
          "internalType": "address",
          "name": "owner",
          "type": "address"
        }
      ],
      "name": "balanceOf",
      "outputs": [
        {
          "internalType": "uint256",
          "name": "",
          "type": "uint256"
        }
      ],
      "stateMutability": "view",
      "type": "function"
    },
    {
      "inputs": [
        {
          "internalType": "uint256",
          "name": "seedId",
          "type": "uint256"
        }
      ],
      "name": "checkSeedFused",
      "outputs": [
        {
          "internalType": "bool",
          "name": "",
          "type": "bool"
        }
      ],
      "stateMutability": "view",
      "type": "function"
    },
    {
      "inputs": [
        {
          "internalType": "uint256",
          "name": "treeId",
          "type": "uint256"
        }
      ],
      "name": "claimRevenue",
      "outputs": [],
      "stateMutability": "nonpayable",
      "type": "function"
    },
    {
      "inputs": [
        {
          "internalType": "uint256",
          "name": "treeId",
          "type": "uint256"
        }
      ],
      "name": "distributeRevenue",
      "outputs": [],
      "stateMutability": "payable",
      "type": "function"
    },
    {
      "inputs": [],
      "name": "echoAssetContract",
      "outputs": [
        {
          "internalType": "address",
          "name": "",
          "type": "address"
        }
      ],
      "stateMutability": "view",
      "type": "function"
    },
    {
      "inputs": [
        {
          "internalType": "uint256[]",
          "name": "seedIds",
          "type": "uint256[]"
        },
        {
          "internalType": "uint256[]",
          "name": "weights",
          "type": "uint256[]"
        },
        {
          "internalType": "string",
          "name": "name",
          "type": "string"
        },
        {
          "internalType": "string",
          "name": "description",
          "type": "string"
        }
      ],
      "name": "fuseTree",
      "outputs": [
        {
          "internalType": "uint256",
          "name": "",
          "type": "uint256"
        }
      ],
      "stateMutability": "nonpayable",
      "type": "function"
    },
    {
      "inputs": [
        {
          "internalType": "uint256",
          "name": "tokenId",
          "type": "uint256"
        }
      ],
      "name": "getApproved",
      "outputs": [
        {
          "internalType": "address",
          "name": "",
          "type": "address"
        }
      ],
      "stateMutability": "view",
      "type": "function"
    },
    {
      "inputs": [],
      "name": "getCurrentTreeId",
      "outputs": [
        {
          "internalType": "uint256",
          "name": "",
          "type": "uint256"
        }
      ],
      "stateMutability": "view",
      "type": "function"
    },
    {
      "inputs": [
        {
          "internalType": "uint256",
          "name": "treeId",
          "type": "uint256"
        },
        {
          "internalType": "address",
          "name": "user",
          "type": "address"
        }
      ],
      "name": "getPendingRevenue",
      "outputs": [
        {
          "internalType": "uint256",
          "name": "",
          "type": "uint256"
        }
      ],
      "stateMutability": "view",
      "type": "function"
    },
    {
      "inputs": [
        {
          "internalType": "uint256",
          "name": "seedId",
          "type": "uint256"
        }
      ],
      "name": "getSeedTree",
      "outputs": [
        {
          "internalType": "uint256",
          "name": "",
          "type": "uint256"
        }
      ],
      "stateMutability": "view",
      "type": "function"
    },
    {
      "inputs": [
        {
          "internalType": "uint256",
          "name": "treeId",
          "type": "uint256"
        }
      ],
      "name": "getTreeInfo",
      "outputs": [
        {
          "internalType": "string",
          "name": "name",
          "type": "string"
        },
        {
          "internalType": "string",
          "name": "description",
          "type": "string"
        },
        {
          "internalType": "uint256[]",
          "name": "seedIds",
          "type": "uint256[]"
        },
        {
          "internalType": "uint256[]",
          "name": "weights",
          "type": "uint256[]"
        },
        {
          "internalType": "uint256",
          "name": "totalRevenue",
          "type": "uint256"
        },
        {
          "internalType": "address",
          "name": "owner",
          "type": "address"
        }
      ],
      "stateMutability": "view",
      "type": "function"
    },
    {
      "inputs": [
        {
          "internalType": "address",
          "name": "owner",
          "type": "address"
        },
        {
          "internalType": "address",
          "name": "operator",
          "type": "address"
        }
      ],
      "name": "isApprovedForAll",
      "outputs": [
        {
          "internalType": "bool",
          "name": "",
          "type": "bool"
        }
      ],
      "stateMutability": "view",
      "type": "function"
    },
    {
      "inputs": [
        {
          "internalType": "uint256",
          "name": "",
          "type": "uint256"
        }
      ],
      "name": "isSeedFused",
      "outputs": [
        {
          "internalType": "bool",
          "name": "",
          "type": "bool"
        }
      ],
      "stateMutability": "view",
      "type": "function"
    },
    {
      "inputs": [],
      "name": "name",
      "outputs": [
        {
          "internalType": "string",
          "name": "",
          "type": "string"
        }
      ],
      "stateMutability": "view",
      "type": "function"
    },
    {
      "inputs": [
        {
          "internalType": "uint256",
          "name": "tokenId",
          "type": "uint256"
        }
      ],
      "name": "ownerOf",
      "outputs": [
        {
          "internalType": "address",
          "name": "",
          "type": "address"
        }
      ],
      "stateMutability": "view",
      "type": "function"
    },
    {
      "inputs": [
        {
          "internalType": "uint256",
          "name": "",
          "type": "uint256"
        },
        {
          "internalType": "address",
          "name": "",
          "type": "address"
        }
      ],
      "name": "pendingRevenue",
      "outputs": [
        {
          "internalType": "uint256",
          "name": "",
          "type": "uint256"
        }
      ],
      "stateMutability": "view",
      "type": "function"
    },
    {
      "inputs": [
        {
          "internalType": "address",
          "name": "from",
          "type": "address"
        },
        {
          "internalType": "address",
          "name": "to",
          "type": "address"
        },
        {
          "internalType": "uint256",
          "name": "tokenId",
          "type": "uint256"
        }
      ],
      "name": "safeTransferFrom",
      "outputs": [],
      "stateMutability": "nonpayable",
      "type": "function"
    },
    {
      "inputs": [
        {
          "internalType": "address",
          "name": "from",
          "type": "address"
        },
        {
          "internalType": "address",
          "name": "to",
          "type": "address"
        },
        {
          "internalType": "uint256",
          "name": "tokenId",
          "type": "uint256"
        },
        {
          "internalType": "bytes",
          "name": "data",
          "type": "bytes"
        }
      ],
      "name": "safeTransferFrom",
      "outputs": [],
      "stateMutability": "nonpayable",
      "type": "function"
    },
    {
      "inputs": [
        {
          "internalType": "uint256",
          "name": "",
          "type": "uint256"
        }
      ],
      "name": "seedToTree",
      "outputs": [
        {
          "internalType": "uint256",
          "name": "",
          "type": "uint256"
        }
      ],
      "stateMutability": "view",
      "type": "function"
    },
    {
      "inputs": [
        {
          "internalType": "address",
          "name": "operator",
          "type": "address"
        },
        {
          "internalType": "bool",
          "name": "approved",
          "type": "bool"
        }
      ],
      "name": "setApprovalForAll",
      "outputs": [],
      "stateMutability": "nonpayable",
      "type": "function"
    },
    {
      "inputs": [
        {
          "internalType": "bytes4",
          "name": "interfaceId",
          "type": "bytes4"
        }
      ],
      "name": "supportsInterface",
      "outputs": [
        {
          "internalType": "bool",
          "name": "",
          "type": "bool"
        }
      ],
      "stateMutability": "view",
      "type": "function"
    },
    {
      "inputs": [],
      "name": "symbol",
      "outputs": [
        {
          "internalType": "string",
          "name": "",
          "type": "string"
        }
      ],
      "stateMutability": "view",
      "type": "function"
    },
    {
      "inputs": [
        {
          "internalType": "uint256",
          "name": "tokenId",
          "type": "uint256"
        }
      ],
      "name": "tokenURI",
      "outputs": [
        {
          "internalType": "string",
          "name": "",
          "type": "string"
        }
      ],
      "stateMutability": "view",
      "type": "function"
    },
    {
      "inputs": [
        {
          "internalType": "address",
          "name": "from",
          "type": "address"
        },
        {
          "internalType": "address",
          "name": "to",
          "type": "address"
        },
        {
          "internalType": "uint256",
          "name": "tokenId",
          "type": "uint256"
        }
      ],
      "name": "transferFrom",
      "outputs": [],
      "stateMutability": "nonpayable",
      "type": "function"
    },
    {
      "inputs": [
        {
          "internalType": "uint256",
          "name": "",
          "type": "uint256"
        }
      ],
      "name": "trees",
      "outputs": [
        {
          "internalType": "uint256",
          "name": "treeId",
          "type": "uint256"
        },
        {
          "internalType": "string",
          "name": "name",
          "type": "string"
        },
        {
          "internalType": "string",
          "name": "description",
          "type": "string"
        },
        {
          "internalType": "uint256",
          "name": "totalWeight",
          "type": "uint256"
        },
        {
          "internalType": "uint256",
          "name": "createdAt",
          "type": "uint256"
        },
        {
          "internalType": "uint256",
          "name": "accumulatedRevenue",
          "type": "uint256"
        },
        {
          "internalType": "bool",
          "name": "isActive",
          "type": "bool"
        }
      ],
      "stateMutability": "view",
      "type": "function"
    },
    {
      "stateMutability": "payable",
      "type": "receive"
    }
  ],
  "bytecode": "0x60806040523480156200001157600080fd5b5060405162002c1e38038062002c1e83398101604081905262000034916200011d565b604051806040016040528060098152602001684543484f205472656560b81b81525060405180604001604052806005815260200164455452454560d81b8152508160009081620000859190620001f4565b506001620000948282620001f4565b50506001600655506001600160a01b038116620000f75760405162461bcd60e51b815260206004820152601860248201527f496e76616c696420636f6e747261637420616464726573730000000000000000604482015260640160405180910390fd5b600880546001600160a01b0319166001600160a01b0392909216919091179055620002c0565b6000602082840312156200013057600080fd5b81516001600160a01b03811681146200014857600080fd5b9392505050565b634e487b7160e01b600052604160045260246000fd5b600181811c908216806200017a57607f821691505b6020821081036200019b57634e487b7160e01b600052602260045260246000fd5b50919050565b601f821115620001ef57600081815260208120601f850160051c81016020861015620001ca5750805b601f850160051c820191505b81811015620001eb57828155600101620001d6565b5050505b505050565b81516001600160401b038111156200021057620002106200014f565b620002288162000221845462000165565b84620001a1565b602080601f831160018114620002605760008415620002475750858301515b600019600386901b1c1916600185901b178555620001eb565b600085815260208120601f198616915b82811015620002915788860151825594840194600190910190840162000270565b5085821015620002b05787850151600019600388901b60f8161c191681555b5050505050600190811b01905550565b61294e80620002d06000396000f3fe6080604052600436106101855760003560e01c806370a08231116100d1578063b88d4fde1161008a578063c8a960d811610064578063c8a960d8146104db578063d331946b14610508578063e86ac1d514610528578063e985e9c51461055a57600080fd5b8063b88d4fde14610463578063bb0bc51414610483578063c87b56dd146104bb57600080fd5b806370a082311461039b5780637a508022146103bb57806383de2f03146103ee57806395d89b411461040e578063a22cb46514610423578063b4351ac51461044357600080fd5b80631db6ed721161013e57806342842e0e1161011857806342842e0e1461031857806359fde1e0146103385780636352211e1461034b5780636f8f5dbe1461036b57600080fd5b80631db6ed721461028557806323b872dd146102b55780632a6b572d146102d557600080fd5b806301ffc9a71461019157806306fdde03146101c65780630791c014146101e8578063081812fc1461020b578063095ea7b3146102435780631cb536ed1461026557600080fd5b3661018c57005b600080fd5b34801561019d57600080fd5b506101b16101ac366004611ff6565b6105a3565b60405190151581526020015b60405180910390f35b3480156101d257600080fd5b506101db6105f5565b6040516101bd9190612063565b3480156101f457600080fd5b506101fd610687565b6040519081526020016101bd565b34801561021757600080fd5b5061022b610226366004612076565b610697565b6040516001600160a01b0390911681526020016101bd565b34801561024f57600080fd5b5061026361025e3660046120a4565b6106be565b005b34801561027157600080fd5b50610263610280366004612076565b6107d8565b34801561029157600080fd5b506101b16102a0366004612076565b6000908152600b602052604090205460ff1690565b3480156102c157600080fd5b506102636102d03660046120d0565b610948565b3480156102e157600080fd5b506101fd6102f0366004612111565b60009182526009602090815260408084206001600160a01b0393909316845291905290205490565b34801561032457600080fd5b506102636103333660046120d0565b610979565b610263610346366004612076565b610994565b34801561035757600080fd5b5061022b610366366004612076565b610b97565b34801561037757600080fd5b506101b1610386366004612076565b600b6020526000908152604090205460ff1681565b3480156103a757600080fd5b506101fd6103b6366004612141565b610bf7565b3480156103c757600080fd5b506103db6103d6366004612076565b610c7d565b6040516101bd979695949392919061215e565b3480156103fa57600080fd5b506101fd610409366004612076565b610dcc565b34801561041a57600080fd5b506101db610e2e565b34801561042f57600080fd5b5061026361043e3660046121b2565b610e3d565b34801561044f57600080fd5b506101fd61045e366004612273565b610e4c565b34801561046f57600080fd5b5061026361047e36600461234d565b611259565b34801561048f57600080fd5b506101fd61049e366004612111565b600960209081526000928352604080842090915290825290205481565b3480156104c757600080fd5b506101db6104d6366004612076565b611291565b3480156104e757600080fd5b506101fd6104f6366004612076565b600c6020526000908152604090205481565b34801561051457600080fd5b5060085461022b906001600160a01b031681565b34801561053457600080fd5b50610548610543366004612076565b611305565b6040516101bd96959493929190612468565b34801561056657600080fd5b506101b16105753660046124d9565b6001600160a01b03918216600090815260056020908152604080832093909416825291909152205460ff1690565b60006001600160e01b031982166380ac58cd60e01b14806105d457506001600160e01b03198216635b5e139f60e01b145b806105ef57506301ffc9a760e01b6001600160e01b03198316145b92915050565b60606000805461060490612507565b80601f016020809104026020016040519081016040528092919081815260200182805461063090612507565b801561067d5780601f106106525761010080835404028352916020019161067d565b820191906000526020600020905b81548152906001019060200180831161066057829003601f168201915b5050505050905090565b600061069260075490565b905090565b60006106a282611535565b506000908152600460205260409020546001600160a01b031690565b60006106c982610b97565b9050806001600160a01b0316836001600160a01b03160361073b5760405162461bcd60e51b815260206004820152602160248201527f4552433732313a20617070726f76616c20746f2063757272656e74206f776e656044820152603960f91b60648201526084015b60405180910390fd5b336001600160a01b038216148061075757506107578133610575565b6107c95760405162461bcd60e51b815260206004820152603d60248201527f4552433732313a20617070726f76652063616c6c6572206973206e6f7420746f60448201527f6b656e206f776e6572206f7220617070726f76656420666f7220616c6c0000006064820152608401610732565b6107d38383611585565b505050565b6107e06115f3565b6107e98161164c565b6108055760405162461bcd60e51b815260040161073290612541565b6000818152600960209081526040808320338452909152902054806108625760405162461bcd60e51b81526020600482015260136024820152724e6f20726576656e756520746f20636c61696d60681b6044820152606401610732565b60008281526009602090815260408083203380855292528083208390555183908381818185875af1925050503d80600081146108ba576040519150601f19603f3d011682016040523d82523d6000602084013e6108bf565b606091505b50509050806109025760405162461bcd60e51b815260206004820152600f60248201526e151c985b9cd9995c8819985a5b1959608a1b6044820152606401610732565b604051828152339084907fb9e8470097faa00e83252475f2ee4b69007b0bb2405268ebec248676998a21b39060200160405180910390a350506109456001600655565b50565b6109523382611669565b61096e5760405162461bcd60e51b81526004016107329061256e565b6107d38383836116e8565b6107d383838360405180602001604052806000815250611259565b61099c6115f3565b6109a58161164c565b6109c15760405162461bcd60e51b815260040161073290612541565b6000818152600a602052604090206009015460ff16610a145760405162461bcd60e51b815260206004820152600f60248201526e54726565206e6f742061637469766560881b6044820152606401610732565b60003411610a585760405162461bcd60e51b81526020600482015260116024820152704d7573742073656e6420726576656e756560781b6044820152606401610732565b6000818152600a6020526040812060088101805491923492610a7b9084906125d1565b90915550600090505b6003820154811015610b51576000826005018281548110610aa757610aa76125e4565b60009182526020822001546004850180546001600160a01b0390921693509084908110610ad657610ad66125e4565b60009182526020822001546006860154909250610af383346125fa565b610afd9190612611565b60008781526009602090815260408083206001600160a01b0388168452909152812080549293508392909190610b349084906125d1565b925050819055505050508080610b4990612633565b915050610a84565b506040805134815233602082015283917f61c930556685a120d8b29d3d33e10ea6455d094e97f6ce748f2e69c92d46b5ad910160405180910390a2506109456001600655565b6000818152600260205260408120546001600160a01b0316806105ef5760405162461bcd60e51b8152602060048201526018602482015277115490cdcc8c4e881a5b9d985b1a59081d1bdad95b88125160421b6044820152606401610732565b60006001600160a01b038216610c615760405162461bcd60e51b815260206004820152602960248201527f4552433732313a2061646472657373207a65726f206973206e6f7420612076616044820152683634b21037bbb732b960b91b6064820152608401610732565b506001600160a01b031660009081526003602052604090205490565b600a6020526000908152604090208054600182018054919291610c9f90612507565b80601f0160208091040260200160405190810160405280929190818152602001828054610ccb90612507565b8015610d185780601f10610ced57610100808354040283529160200191610d18565b820191906000526020600020905b815481529060010190602001808311610cfb57829003601f168201915b505050505090806002018054610d2d90612507565b80601f0160208091040260200160405190810160405280929190818152602001828054610d5990612507565b8015610da65780601f10610d7b57610100808354040283529160200191610da6565b820191906000526020600020905b815481529060010190602001808311610d8957829003601f168201915b505050506006830154600784015460088501546009909501549394919390925060ff1687565b6000818152600b602052604081205460ff16610e1b5760405162461bcd60e51b815260206004820152600e60248201526d14d95959081b9bdd08199d5cd95960921b6044820152606401610732565b506000908152600c602052604090205490565b60606001805461060490612507565b610e4833838361184c565b5050565b60006002881015610e975760405162461bcd60e51b81526020600482015260156024820152744e656564206174206c65617374203220736565647360581b6044820152606401610732565b600a881115610edf5760405162461bcd60e51b815260206004820152601460248201527313585e080c4c081cd959591cc8185b1b1bddd95960621b6044820152606401610732565b878614610f205760405162461bcd60e51b815260206004820152600f60248201526e098cadccee8d040dad2e6dac2e8c6d608b1b6044820152606401610732565b6000610f2b60075490565b9050610f3b600780546001019055565b6000818152600a6020526040902081815560018101610f5b87898361269a565b5060028101610f6b85878361269a565b5042600782015560098101805460ff191660011790556000808b67ffffffffffffffff811115610f9d57610f9d612337565b604051908082528060200260200182016040528015610fc6578160200160208202803683370190505b50905060005b8c8110156111d85760008e8e83818110610fe857610fe86125e4565b90506020020135905060008d8d84818110611005576110056125e4565b9050602002013590506000811161105e5760405162461bcd60e51b815260206004820152601760248201527f576569676874206d75737420626520706f7369746976650000000000000000006044820152606401610732565b6000828152600b602052604090205460ff16156110b25760405162461bcd60e51b815260206004820152601260248201527114d9595908185b1c9958591e48199d5cd95960721b6044820152606401610732565b6110bc823361191a565b6110f95760405162461bcd60e51b815260206004820152600e60248201526d2737ba1039b2b2b21037bbb732b960911b6044820152606401610732565b6000828152600b60209081526040808320805460ff19166001908117909155600c83529083208a90556003890180548083018255908452828420018590556004890180549182018155835291200181905561115481866125d1565b9450600061116183611a03565b905080858581518110611176576111766125e4565b6001600160a01b0390921660209283029190910182015260405183815284918a917fad2c0b87e1131107a18b492af33daf741de0c7df8c6ba101ab280a34f576b0f4910160405180910390a350505080806111d090612633565b915050610fcc565b506006830182905580516111f59060058501906020840190611f66565b506112003385611b0d565b336001600160a01b0316847f5e5601515ea62f1f8458bca496da86172aafe995f370f4e456fcc1b5d69686798f8f8f8f604051611240949392919061278d565b60405180910390a350919b9a5050505050505050505050565b6112633383611669565b61127f5760405162461bcd60e51b81526004016107329061256e565b61128b84848484611b27565b50505050565b606061129c82611535565b60006112b360408051602081019091526000815290565b905060008151116112d357604051806020016040528060008152506112fe565b806112dd84611b5a565b6040516020016112ee9291906127bf565b6040516020818303038152906040525b9392505050565b6060806060806000806113178761164c565b6113335760405162461bcd60e51b815260040161073290612541565b6000878152600a60205260409020600881015460018201906002830190600384019060048501906113638d610b97565b85805461136f90612507565b80601f016020809104026020016040519081016040528092919081815260200182805461139b90612507565b80156113e85780601f106113bd576101008083540402835291602001916113e8565b820191906000526020600020905b8154815290600101906020018083116113cb57829003601f168201915b505050505095508480546113fb90612507565b80601f016020809104026020016040519081016040528092919081815260200182805461142790612507565b80156114745780601f1061144957610100808354040283529160200191611474565b820191906000526020600020905b81548152906001019060200180831161145757829003601f168201915b50505050509450838054806020026020016040519081016040528092919081815260200182805480156114c657602002820191906000526020600020905b8154815260200190600101908083116114b2575b505050505093508280548060200260200160405190810160405280929190818152602001828054801561151857602002820191906000526020600020905b815481526020019060010190808311611504575b505050505092509650965096509650965096505091939550919395565b61153e8161164c565b6109455760405162461bcd60e51b8152602060048201526018602482015277115490cdcc8c4e881a5b9d985b1a59081d1bdad95b88125160421b6044820152606401610732565b600081815260046020526040902080546001600160a01b0319166001600160a01b03841690811790915581906115ba82610b97565b6001600160a01b03167f8c5be1e5ebec7d5bd14f71427d1e84f3dd0314c0f7b2291e5b200ac8c7c3b92560405160405180910390a45050565b6002600654036116455760405162461bcd60e51b815260206004820152601f60248201527f5265656e7472616e637947756172643a207265656e7472616e742063616c6c006044820152606401610732565b6002600655565b6000908152600260205260409020546001600160a01b0316151590565b60008061167583610b97565b9050806001600160a01b0316846001600160a01b031614806116bc57506001600160a01b0380821660009081526005602090815260408083209388168352929052205460ff165b806116e05750836001600160a01b03166116d584610697565b6001600160a01b0316145b949350505050565b826001600160a01b03166116fb82610b97565b6001600160a01b0316146117215760405162461bcd60e51b8152600401610732906127ee565b6001600160a01b0382166117835760405162461bcd60e51b8152602060048201526024808201527f4552433732313a207472616e7366657220746f20746865207a65726f206164646044820152637265737360e01b6064820152608401610732565b826001600160a01b031661179682610b97565b6001600160a01b0316146117bc5760405162461bcd60e51b8152600401610732906127ee565b600081815260046020908152604080832080546001600160a01b03199081169091556001600160a01b0387811680865260038552838620805460001901905590871680865283862080546001019055868652600290945282852080549092168417909155905184937fddf252ad1be2c89b69c2b068fc378daa952ba7f163c4a11628f55a4df523b3ef91a4505050565b816001600160a01b0316836001600160a01b0316036118ad5760405162461bcd60e51b815260206004820152601960248201527f4552433732313a20617070726f766520746f2063616c6c6572000000000000006044820152606401610732565b6001600160a01b03838116600081815260056020908152604080832094871680845294825291829020805460ff191686151590811790915591519182527f17307eab39ab6107e8899845ad3d59bd9653f200f220920489ca2b5937696c31910160405180910390a3505050565b60085460405160248101849052600091829182916001600160a01b03169060440160408051601f198184030181529181526020820180516001600160e01b03166331a9108f60e11b179052516119709190612833565b600060405180830381855afa9150503d80600081146119ab576040519150601f19603f3d011682016040523d82523d6000602084013e6119b0565b606091505b50915091508115806119c3575060208151105b156119d3576000925050506105ef565b6000818060200190518101906119e9919061284f565b6001600160a01b0390811690861614935050505092915050565b60085460405160248101839052600091829182916001600160a01b03169060440160408051601f198184030181529181526020820180516001600160e01b03166331a9108f60e11b17905251611a599190612833565b600060405180830381855afa9150503d8060008114611a94576040519150601f19603f3d011682016040523d82523d6000602084013e611a99565b606091505b5091509150818015611aad57506020815110155b611af95760405162461bcd60e51b815260206004820152601860248201527f4661696c656420746f206765742073656564206f776e657200000000000000006044820152606401610732565b808060200190518101906116e0919061284f565b610e48828260405180602001604052806000815250611bed565b611b328484846116e8565b611b3e84848484611c20565b61128b5760405162461bcd60e51b81526004016107329061286c565b60606000611b6783611d21565b600101905060008167ffffffffffffffff811115611b8757611b87612337565b6040519080825280601f01601f191660200182016040528015611bb1576020820181803683370190505b5090508181016020015b600019016f181899199a1a9b1b9c1cb0b131b232b360811b600a86061a8153600a8504945084611bbb57509392505050565b611bf78383611df9565b611c046000848484611c20565b6107d35760405162461bcd60e51b81526004016107329061286c565b60006001600160a01b0384163b15611d1657604051630a85bd0160e11b81526001600160a01b0385169063150b7a0290611c649033908990889088906004016128be565b6020604051808303816000875af1925050508015611c9f575060408051601f3d908101601f19168201909252611c9c918101906128fb565b60015b611cfc573d808015611ccd576040519150601f19603f3d011682016040523d82523d6000602084013e611cd2565b606091505b508051600003611cf45760405162461bcd60e51b81526004016107329061286c565b805181602001fd5b6001600160e01b031916630a85bd0160e11b1490506116e0565b506001949350505050565b60008072184f03e93ff9f4daa797ed6e38ed64bf6a1f0160401b8310611d605772184f03e93ff9f4daa797ed6e38ed64bf6a1f0160401b830492506040015b6d04ee2d6d415b85acef81000000008310611d8c576d04ee2d6d415b85acef8100000000830492506020015b662386f26fc100008310611daa57662386f26fc10000830492506010015b6305f5e1008310611dc2576305f5e100830492506008015b6127108310611dd657612710830492506004015b60648310611de8576064830492506002015b600a83106105ef5760010192915050565b6001600160a01b038216611e4f5760405162461bcd60e51b815260206004820181905260248201527f4552433732313a206d696e7420746f20746865207a65726f20616464726573736044820152606401610732565b611e588161164c565b15611ea55760405162461bcd60e51b815260206004820152601c60248201527f4552433732313a20746f6b656e20616c7265616479206d696e746564000000006044820152606401610732565b611eae8161164c565b15611efb5760405162461bcd60e51b815260206004820152601c60248201527f4552433732313a20746f6b656e20616c7265616479206d696e746564000000006044820152606401610732565b6001600160a01b038216600081815260036020908152604080832080546001019055848352600290915280822080546001600160a01b0319168417905551839291907fddf252ad1be2c89b69c2b068fc378daa952ba7f163c4a11628f55a4df523b3ef908290a45050565b828054828255906000526020600020908101928215611fbb579160200282015b82811115611fbb57825182546001600160a01b0319166001600160a01b03909116178255602090920191600190910190611f86565b50611fc7929150611fcb565b5090565b5b80821115611fc75760008155600101611fcc565b6001600160e01b03198116811461094557600080fd5b60006020828403121561200857600080fd5b81356112fe81611fe0565b60005b8381101561202e578181015183820152602001612016565b50506000910152565b6000815180845261204f816020860160208601612013565b601f01601f19169290920160200192915050565b6020815260006112fe6020830184612037565b60006020828403121561208857600080fd5b5035919050565b6001600160a01b038116811461094557600080fd5b600080604083850312156120b757600080fd5b82356120c28161208f565b946020939093013593505050565b6000806000606084860312156120e557600080fd5b83356120f08161208f565b925060208401356121008161208f565b929592945050506040919091013590565b6000806040838503121561212457600080fd5b8235915060208301356121368161208f565b809150509250929050565b60006020828403121561215357600080fd5b81356112fe8161208f565b87815260e06020820152600061217760e0830189612037565b82810360408401526121898189612037565b9150508560608301528460808301528360a083015282151560c083015298975050505050505050565b600080604083850312156121c557600080fd5b82356121d08161208f565b91506020830135801515811461213657600080fd5b60008083601f8401126121f757600080fd5b50813567ffffffffffffffff81111561220f57600080fd5b6020830191508360208260051b850101111561222a57600080fd5b9250929050565b60008083601f84011261224357600080fd5b50813567ffffffffffffffff81111561225b57600080fd5b60208301915083602082850101111561222a57600080fd5b6000806000806000806000806080898b03121561228f57600080fd5b883567ffffffffffffffff808211156122a757600080fd5b6122b38c838d016121e5565b909a50985060208b01359150808211156122cc57600080fd5b6122d88c838d016121e5565b909850965060408b01359150808211156122f157600080fd5b6122fd8c838d01612231565b909650945060608b013591508082111561231657600080fd5b506123238b828c01612231565b999c989b5096995094979396929594505050565b634e487b7160e01b600052604160045260246000fd5b6000806000806080858703121561236357600080fd5b843561236e8161208f565b9350602085013561237e8161208f565b925060408501359150606085013567ffffffffffffffff808211156123a257600080fd5b818701915087601f8301126123b657600080fd5b8135818111156123c8576123c8612337565b604051601f8201601f19908116603f011681019083821181831017156123f0576123f0612337565b816040528281528a602084870101111561240957600080fd5b82602086016020830137600060208483010152809550505050505092959194509250565b600081518084526020808501945080840160005b8381101561245d57815187529582019590820190600101612441565b509495945050505050565b60c08152600061247b60c0830189612037565b828103602084015261248d8189612037565b905082810360408401526124a1818861242d565b905082810360608401526124b5818761242d565b608084019590955250506001600160a01b039190911660a090910152949350505050565b600080604083850312156124ec57600080fd5b82356124f78161208f565b915060208301356121368161208f565b600181811c9082168061251b57607f821691505b60208210810361253b57634e487b7160e01b600052602260045260246000fd5b50919050565b602080825260139082015272151c995948191bd95cc81b9bdd08195e1a5cdd606a1b604082015260600190565b6020808252602d908201527f4552433732313a2063616c6c6572206973206e6f7420746f6b656e206f776e6560408201526c1c881bdc88185c1c1c9bdd9959609a1b606082015260800190565b634e487b7160e01b600052601160045260246000fd5b808201808211156105ef576105ef6125bb565b634e487b7160e01b600052603260045260246000fd5b80820281158282048414176105ef576105ef6125bb565b60008261262e57634e487b7160e01b600052601260045260246000fd5b500490565b600060018201612645576126456125bb565b5060010190565b601f8211156107d357600081815260208120601f850160051c810160208610156126735750805b601f850160051c820191505b818110156126925782815560010161267f565b505050505050565b67ffffffffffffffff8311156126b2576126b2612337565b6126c6836126c08354612507565b8361264c565b6000601f8411600181146126fa57600085156126e25750838201355b600019600387901b1c1916600186901b178355612754565b600083815260209020601f19861690835b8281101561272b578685013582556020948501946001909201910161270b565b50868210156127485760001960f88860031b161c19848701351681555b505060018560011b0183555b5050505050565b81835260006001600160fb1b0383111561277457600080fd5b8260051b80836020870137939093016020019392505050565b6040815260006127a160408301868861275b565b82810360208401526127b481858761275b565b979650505050505050565b600083516127d1818460208801612013565b8351908301906127e5818360208801612013565b01949350505050565b60208082526025908201527f4552433732313a207472616e736665722066726f6d20696e636f72726563742060408201526437bbb732b960d91b606082015260800190565b60008251612845818460208701612013565b9190910192915050565b60006020828403121561286157600080fd5b81516112fe8161208f565b60208082526032908201527f4552433732313a207472616e7366657220746f206e6f6e20455243373231526560408201527131b2b4bb32b91034b6b83632b6b2b73a32b960711b606082015260800190565b6001600160a01b03858116825284166020820152604081018390526080606082018190526000906128f190830184612037565b9695505050505050565b60006020828403121561290d57600080fd5b81516112fe81611fe056fea26469706673582212201c4b1c90b4d85281a4185e47afec535df10ee547031eb8c4ff3c34d2c44674bb64736f6c63430008130033",
  "linkReferences": {},
  "deployedLinkReferences": {}
}