{
  "_format": "hh-sol-artifact-1",
  "contractName": "ECHOFusion",
  "sourceName": "contracts/ECHOFusion.sol",
  "abi": [
    {
      "inputs": [
        {
          "internalType": "address",
          "name": "_echoAssetContract",
          "type": "address"
        }
      ],
      "stateMutability": "nonpayable",
      "type": "constructor"
    },
    {
      "anonymous": false,
      "inputs": [
        {
          "indexed": true,
          "internalType": "address",
          "name": "owner",
          "type": "address"
        },
        {
          "indexed": true,
          "internalType": "address",
          "name": "approved",
          "type": "address"
        },
        {
          "indexed": true,
          "internalType": "uint256",
          "name": "tokenId",
          "type": "uint256"
        }
      ],
      "name": "Approval",
      "type": "event"
    },
    {
      "anonymous": false,
      "inputs": [
        {
          "indexed": true,
          "internalType": "address",
          "name": "owner",
          "type": "address"
        },
        {
          "indexed": true,
          "internalType": "address",
          "name": "operator",
          "type": "address"
        },
        {
          "indexed": false,
          "internalType": "bool",
          "name": "approved",
          "type": "bool"
        }
      ],
      "name": "ApprovalForAll",
      "type": "event"
    },
    {
      "anonymous": false,
      "inputs": [
        {
          "indexed": true,
          "internalType": "uint256",
          "name": "treeId",
          "type": "uint256"
        },
        {
          "indexed": true,
          "internalType": "address",
          "name": "user",
          "type": "address"
        },
        {
          "indexed": false,
          "internalType": "uint256",
          "name": "amount",
          "type": "uint256"
        }
      ],
      "name": "RevenueClaimed",
      "type": "event"
    },
    {
      "anonymous": false,
      "inputs": [
        {
          "indexed": true,
          "internalType": "uint256",
          "name": "treeId",
          "type": "uint256"
        },
        {
          "indexed": false,
          "internalType": "uint256",
          "name": "amount",
          "type": "uint256"
        },
        {
          "indexed": false,
          "internalType": "address",
          "name": "distributor",
          "type": "address"
        }
      ],
      "name": "RevenueDistributed",
      "type": "event"
    },
    {
      "anonymous": false,
      "inputs": [
        {
          "indexed": true,
          "internalType": "uint256",
          "name": "treeId",
          "type": "uint256"
        },
        {
          "indexed": true,
          "internalType": "uint256",
          "name": "seedId",
          "type": "uint256"
        },
        {
          "indexed": false,
          "internalType": "uint256",
          "name": "weight",
          "type": "uint256"
        }
      ],
      "name": "SeedAddedToTree",
      "type": "event"
    },
    {
      "anonymous": false,
      "inputs": [
        {
          "indexed": true,
          "internalType": "address",
          "name": "from",
          "type": "address"
        },
        {
          "indexed": true,
          "internalType": "address",
          "name": "to",
          "type": "address"
        },
        {
          "indexed": true,
          "internalType": "uint256",
          "name": "tokenId",
          "type": "uint256"
        }
      ],
      "name": "Transfer",
      "type": "event"
    },
    {
      "anonymous": false,
      "inputs": [
        {
          "indexed": true,
          "internalType": "uint256",
          "name": "treeId",
          "type": "uint256"
        },
        {
          "indexed": true,
          "internalType": "address",
          "name": "creator",
          "type": "address"
        },
        {
          "indexed": false,
          "internalType": "uint256[]",
          "name": "seedIds",
          "type": "uint256[]"
        },
        {
          "indexed": false,
          "internalType": "uint256[]",
          "name": "weights",
          "type": "uint256[]"
        }
      ],
      "name": "TreeFused",
      "type": "event"
    },
    {
      "inputs": [
        {
          "internalType": "address",
          "name": "to",
          "type": "address"
        },
        {
          "internalType": "uint256",
          "name": "tokenId",
          "type": "uint256"
        }
      ],
      "name": "approve",
      "outputs": [],
      "stateMutability": "nonpayable",
      "type": "function"
    },
    {
      "inputs": [
        {
          "internalType": "address",
          "name": "owner",
          "type": "address"
        }
      ],
      "name": "balanceOf",
      "outputs": [
        {
          "internalType": "uint256",
          "name": "",
          "type": "uint256"
        }
      ],
      "stateMutability": "view",
      "type": "function"
    },
    {
      "inputs": [
        {
          "internalType": "uint256",
          "name": "seedId",
          "type": "uint256"
        }
      ],
      "name": "checkSeedFused",
      "outputs": [
        {
          "internalType": "bool",
          "name": "",
          "type": "bool"
        }
      ],
      "stateMutability": "view",
      "type": "function"
    },
    {
      "inputs": [
        {
          "internalType": "uint256",
          "name": "treeId",
          "type": "uint256"
        }
      ],
      "name": "claimRevenue",
      "outputs": [],
      "stateMutability": "nonpayable",
      "type": "function"
    },
    {
      "inputs": [
        {
          "internalType": "uint256",
          "name": "treeId",
          "type": "uint256"
        }
      ],
      "name": "distributeRevenue",
      "outputs": [],
      "stateMutability": "payable",
      "type": "function"
    },
    {
      "inputs": [],
      "name": "echoAssetContract",
      "outputs": [
        {
          "internalType": "address",
          "name": "",
          "type": "address"
        }
      ],
      "stateMutability": "view",
      "type": "function"
    },
    {
      "inputs": [
        {
          "internalType": "uint256[]",
          "name": "seedIds",
          "type": "uint256[]"
        },
        {
          "internalType": "uint256[]",
          "name": "weights",
          "type": "uint256[]"
        },
        {
          "internalType": "string",
          "name": "name",
          "type": "string"
        },
        {
          "internalType": "string",
          "name": "description",
          "type": "string"
        }
      ],
      "name": "fuseTree",
      "outputs": [
        {
          "internalType": "uint256",
          "name": "",
          "type": "uint256"
        }
      ],
      "stateMutability": "nonpayable",
      "type": "function"
    },
    {
      "inputs": [
        {
          "internalType": "uint256",
          "name": "tokenId",
          "type": "uint256"
        }
      ],
      "name": "getApproved",
      "outputs": [
        {
          "internalType": "address",
          "name": "",
          "type": "address"
        }
      ],
      "stateMutability": "view",
      "type": "function"
    },
    {
      "inputs": [],
      "name": "getCurrentTreeId",
      "outputs": [
        {
          "internalType": "uint256",
          "name": "",
          "type": "uint256"
        }
      ],
      "stateMutability": "view",
      "type": "function"
    },
    {
      "inputs": [
        {
          "internalType": "uint256",
          "name": "treeId",
          "type": "uint256"
        },
        {
          "internalType": "address",
          "name": "user",
          "type": "address"
        }
      ],
      "name": "getPendingRevenue",
      "outputs": [
        {
          "internalType": "uint256",
          "name": "",
          "type": "uint256"
        }
      ],
      "stateMutability": "view",
      "type": "function"
    },
    {
      "inputs": [
        {
          "internalType": "uint256",
          "name": "seedId",
          "type": "uint256"
        }
      ],
      "name": "getSeedTree",
      "outputs": [
        {
          "internalType": "uint256",
          "name": "",
          "type": "uint256"
        }
      ],
      "stateMutability": "view",
      "type": "function"
    },
    {
      "inputs": [
        {
          "internalType": "uint256",
          "name": "treeId",
          "type": "uint256"
        }
      ],
      "name": "getTreeInfo",
      "outputs": [
        {
          "internalType": "string",
          "name": "name",
          "type": "string"
        },
        {
          "internalType": "string",
          "name": "description",
          "type": "string"
        },
        {
          "internalType": "uint256[]",
          "name": "seedIds",
          "type": "uint256[]"
        },
        {
          "internalType": "uint256[]",
          "name": "weights",
          "type": "uint256[]"
        },
        {
          "internalType": "uint256",
          "name": "totalRevenue",
          "type": "uint256"
        },
        {
          "internalType": "address",
          "name": "owner",
          "type": "address"
        }
      ],
      "stateMutability": "view",
      "type": "function"
    },
    {
      "inputs": [
        {
          "internalType": "address",
          "name": "owner",
          "type": "address"
        },
        {
          "internalType": "address",
          "name": "operator",
          "type": "address"
        }
      ],
      "name": "isApprovedForAll",
      "outputs": [
        {
          "internalType": "bool",
          "name": "",
          "type": "bool"
        }
      ],
      "stateMutability": "view",
      "type": "function"
    },
    {
      "inputs": [
        {
          "internalType": "uint256",
          "name": "",
          "type": "uint256"
        }
      ],
      "name": "isSeedFused",
      "outputs": [
        {
          "internalType": "bool",
          "name": "",
          "type": "bool"
        }
      ],
      "stateMutability": "view",
      "type": "function"
    },
    {
      "inputs": [],
      "name": "name",
      "outputs": [
        {
          "internalType": "string",
          "name": "",
          "type": "string"
        }
      ],
      "stateMutability": "view",
      "type": "function"
    },
    {
      "inputs": [
        {
          "internalType": "uint256",
          "name": "tokenId",
          "type": "uint256"
        }
      ],
      "name": "ownerOf",
      "outputs": [
        {
          "internalType": "address",
          "name": "",
          "type": "address"
        }
      ],
      "stateMutability": "view",
      "type": "function"
    },
    {
      "inputs": [
        {
          "internalType": "uint256",
          "name": "",
          "type": "uint256"
        },
        {
          "internalType": "address",
          "name": "",
          "type": "address"
        }
      ],
      "name": "pendingRevenue",
      "outputs": [
        {
          "internalType": "uint256",
          "name": "",
          "type": "uint256"
        }
      ],
      "stateMutability": "view",
      "type": "function"
    },
    {
      "inputs": [
        {
          "internalType": "address",
          "name": "from",
          "type": "address"
        },
        {
          "internalType": "address",
          "name": "to",
          "type": "address"
        },
        {
          "internalType": "uint256",
          "name": "tokenId",
          "type": "uint256"
        }
      ],
      "name": "safeTransferFrom",
      "outputs": [],
      "stateMutability": "nonpayable",
      "type": "function"
    },
    {
      "inputs": [
        {
          "internalType": "address",
          "name": "from",
          "type": "address"
        },
        {
          "internalType": "address",
          "name": "to",
          "type": "address"
        },
        {
          "internalType": "uint256",
          "name": "tokenId",
          "type": "uint256"
        },
        {
          "internalType": "bytes",
          "name": "data",
          "type": "bytes"
        }
      ],
      "name": "safeTransferFrom",
      "outputs": [],
      "stateMutability": "nonpayable",
      "type": "function"
    },
    {
      "inputs": [
        {
          "internalType": "uint256",
          "name": "",
          "type": "uint256"
        }
      ],
      "name": "seedToTree",
      "outputs": [
        {
          "internalType": "uint256",
          "name": "",
          "type": "uint256"
        }
      ],
      "stateMutability": "view",
      "type": "function"
    },
    {
      "inputs": [
        {
          "internalType": "address",
          "name": "operator",
          "type": "address"
        },
        {
          "internalType": "bool",
          "name": "approved",
          "type": "bool"
        }
      ],
      "name": "setApprovalForAll",
      "outputs": [],
      "stateMutability": "nonpayable",
      "type": "function"
    },
    {
      "inputs": [
        {
          "internalType": "bytes4",
          "name": "interfaceId",
          "type": "bytes4"
        }
      ],
      "name": "supportsInterface",
      "outputs": [
        {
          "internalType": "bool",
          "name": "",
          "type": "bool"
        }
      ],
      "stateMutability": "view",
      "type": "function"
    },
    {
      "inputs": [],
      "name": "symbol",
      "outputs": [
        {
          "internalType": "string",
          "name": "",
          "type": "string"
        }
      ],
      "stateMutability": "view",
      "type": "function"
    },
    {
      "inputs": [
        {
          "internalType": "uint256",
          "name": "tokenId",
          "type": "uint256"
        }
      ],
      "name": "tokenURI",
      "outputs": [
        {
          "internalType": "string",
          "name": "",
          "type": "string"
        }
      ],
      "stateMutability": "view",
      "type": "function"
    },
    {
      "inputs": [
        {
          "internalType": "address",
          "name": "from",
          "type": "address"
        },
        {
          "internalType": "address",
          "name": "to",
          "type": "address"
        },
        {
          "internalType": "uint256",
          "name": "tokenId",
          "type": "uint256"
        }
      ],
      "name": "transferFrom",
      "outputs": [],
      "stateMutability": "nonpayable",
      "type": "function"
    },
    {
      "inputs": [
        {
          "internalType": "uint256",
          "name": "",
          "type": "uint256"
        }
      ],
      "name": "trees",
      "outputs": [
        {
          "internalType": "uint256",
          "name": "treeId",
          "type": "uint256"
        },
        {
          "internalType": "string",
          "name": "name",
          "type": "string"
        },
        {
          "internalType": "string",
          "name": "description",
          "type": "string"
        },
        {
          "internalType": "uint256",
          "name": "totalWeight",
          "type": "uint256"
        },
        {
          "internalType": "uint256",
          "name": "createdAt",
          "type": "uint256"
        },
        {
          "internalType": "uint256",
          "name": "accumulatedRevenue",
          "type": "uint256"
        },
        {
          "internalType": "bool",
          "name": "isActive",
          "type": "bool"
        }
      ],
      "stateMutability": "view",
      "type": "function"
    },
    {
      "stateMutability": "payable",
      "type": "receive"
    }
  ],
  "bytecode": "0x608034620003a257601f19906001600160401b0390601f620023e33881900382810186168401858111858210176200038c57849282916040528339602093849181010312620003a257516001600160a01b0381169390849003620003a25762000067620003a7565b9160098352684543484f205472656560b81b8484015262000087620003a7565b6005815264455452454560d81b8582015283518381116200038c576000908154956001968781811c9116801562000381575b898210146200036d579081868493116200031a575b508890868311600114620002b9578492620002ad575b5050600019600383901b1c191690861b1781555b8151938411620002995784548581811c911680156200028e575b878210146200027a5783811162000232575b5085928411600114620001d15783949596975092620001c5575b5050600019600383901b1c191690821b1781555b6006558115620001815750600880546001600160a01b03191691909117905560405161201b9081620003c88239f35b6064906040519062461bcd60e51b82526004820152601860248201527f496e76616c696420636f6e7472616374206164647265737300000000000000006044820152fd5b0151905038806200013e565b919096831696848352858320925b8881106200021c575083859697981062000202575b505050811b01815562000152565b015160001960f88460031b161c19169055388080620001f4565b81830151845592850192918601918601620001df565b8582528682208480870160051c82019289881062000270575b0160051c019086905b8281106200026457505062000124565b83815501869062000254565b925081926200024b565b634e487b7160e01b82526022600452602482fd5b90607f169062000112565b634e487b7160e01b81526041600452602490fd5b015190503880620000e4565b908b899416918580528a862092865b8c828210620003035750508411620002e9575b505050811b018155620000f8565b015160001960f88460031b161c19169055388080620002db565b8385015186558c97909501949384019301620002c8565b9091508380528884208680850160051c8201928b861062000363575b918a91869594930160051c01915b82811062000354575050620000ce565b8681558594508a910162000344565b9250819262000336565b634e487b7160e01b84526022600452602484fd5b90607f1690620000b9565b634e487b7160e01b600052604160045260246000fd5b600080fd5b60408051919082016001600160401b038111838210176200038c5760405256fe608080604052600436101561001d575b50361561001b57600080fd5b005b60003560e01c90816301ffc9a7146115485750806306fdde03146114a55780630791c01414611487578063081812fc14611469578063095ea7b3146112ef5780631cb536ed146111d35780631db6ed7214610f4e57806323b872dd146111af5780632a6b572d1461032f57806342842e0e1461117c57806359fde1e014610faf5780636352211e14610f7f5780636f8f5dbe14610f4e57806370a0823114610eb75780637a50802214610e1a57806383de2f0314610da157806395d89b4114610cdc578063a22cb46514610c0e578063b4351ac514610424578063b88d4fde14610377578063bb0bc5141461032f578063c87b56dd146102d1578063c8a960d8146102a5578063d331946b1461027c578063e86ac1d5146101a35763e985e9c514610148573861000f565b3461019e57604036600319011261019e576101616115f3565b610169611609565b9060018060a01b03809116600052600560205260406000209116600052602052602060ff604060002054166040519015158152f35b600080fd5b3461019e57602036600319011261019e576102386004356101cb6101c682611b6a565b611e43565b80600052600a6020526040600020906101e8600883015491611880565b6102626101f7600185016116e7565b93610254610207600283016116e7565b91610246610223600461021c60038501611edb565b9301611edb565b93604051998a9960c08b5260c08b01906115b3565b9089820360208b01526115b3565b908782036040890152611805565b908582036060870152611805565b60808401929092526001600160a01b031660a08301520390f35b3461019e57600036600319011261019e576008546040516001600160a01b039091168152602090f35b3461019e57602036600319011261019e57600435600052600c6020526020604060002054604051908152f35b3461019e57602036600319011261019e576102f56102f0600435611b6a565b611839565b60006040516103038161168e565b5261032b6040516103138161168e565b600081526040519182916020835260208301906115b3565b0390f35b3461019e57604036600319011261019e57610348611609565b600435600052600960205260406000209060018060a01b03166000526020526020604060002054604051908152f35b3461019e57608036600319011261019e576103906115f3565b610398611609565b90606435906044356001600160401b03831161019e573660238401121561019e578260040135936103c8856117ea565b926103d660405194856116c4565b858452366024878701011161019e57600060208761001b98602461041f9901838901378601015261040f61040a84336119a6565b6118cd565b61041a838383611a6e565b611cb2565b611982565b3461019e57608036600319011261019e576004356001600160401b03811161019e5761045490369060040161178d565b906024356001600160401b03811161019e5761047490369060040161178d565b916044356001600160401b03811161019e576104949036906004016117bd565b9093906064356001600160401b03811161019e576104b69036906004016117bd565b9060028810610bd157600a8811610b9557838803610b5e57600754966001880160075587600052600a60205260406000209388855560018060401b038111610791578060018601926105088454611654565b601f8111610b2c575b50600090601f8311600114610ac457600092610ab9575b50508160011b916000199060031b1c19161790555b6001600160401b03821161079157819061055a6002850154611654565b601f8111610a79575b50600090601f8311600114610a08576000926109fd575b50508160011b916000199060031b1c19161760028201555b42600782015560098101805460ff191660011790556000906105b387611d44565b916105c160405193846116c4565b878352601f196105d089611d44565b0136602085013760005b8881106107a7575060068201558151916005909101906001600160401b03831161079157600160401b8311610791576020908254848455808510610774575b500190600052602060002060005b83811061075757505050506040519161063f8361168e565b600083523315610713576020956107087f5e5601515ea62f1f8458bca496da86172aafe995f370f4e456fcc1b5d6968679936106e261041f899761068b6106858a611b6a565b15611df8565b6106976106858a611b6a565b33600081815260038e526040808220805460010190558b825260028f52812080546001600160a01b031916831790558a9190600080516020611fc68339815191528180a48833611bb7565b6106f9604051948594604086526040860191611dd4565b908382038a8501523397611dd4565b0390a3604051908152f35b606460405162461bcd60e51b815260206004820152602060248201527f4552433732313a206d696e7420746f20746865207a65726f20616464726573736044820152fd5b82516001600160a01b031681830155602090920191600101610627565b61078b908460005285846000209182019101611d2d565b89610619565b634e487b7160e01b600052604160045260246000fd5b906107b3828a88611d6a565b35916107c081878a611d6a565b359182156109be5783600052600b60205260ff60406000205416610984576107e83385611f49565b1561094e57826108369185600052600b6020526040600020600160ff19825416179055600c6020528b6040600020556108248660038901611d92565b6108318260048901611d92565b611dc7565b9260008060018060a01b036008541660405160208101906331a9108f60e11b82528560248201526024815261086a816116a9565b51915afa610876611b87565b9080610942575b156109025780516001600160a01b039161089f91810160209081019101611f2a565b1686518310156108ec577fad2c0b87e1131107a18b492af33daf741de0c7df8c6ba101ab280a34f576b0f460206108e7958d93828760051b8c010152604051908152a3611d5b565b6105da565b634e487b7160e01b600052603260045260246000fd5b60405162461bcd60e51b81526020600482015260186024820152772330b4b632b2103a379033b2ba1039b2b2b21037bbb732b960411b6044820152606490fd5b5060208151101561087d565b60405162461bcd60e51b815260206004820152600e60248201526d2737ba1039b2b2b21037bbb732b960911b6044820152606490fd5b60405162461bcd60e51b815260206004820152601260248201527114d9595908185b1c9958591e48199d5cd95960721b6044820152606490fd5b60405162461bcd60e51b8152602060048201526017602482015276576569676874206d75737420626520706f73697469766560481b6044820152606490fd5b01359050888061057a565b909250600284016000526020600020906000935b601f1984168510610a61576001945083601f19811610610a47575b505050811b016002820155610592565b0135600019600384901b60f8161c19169055888080610a37565b81810135835560209485019460019093019201610a1c565b610aa990600286016000526020600020601f850160051c81019160208610610aaf575b601f0160051c0190611d2d565b89610563565b9091508190610a9c565b013590508b80610528565b600085815260208120909450915b601f1984168510610b14576001945083601f19811610610afa575b505050811b01905561053d565b0135600019600384901b60f8161c191690558b8080610aed565b81810135835560209485019460019093019201610ad2565b610b5890856000526020600020601f850160051c81019160208610610aaf57601f0160051c0190611d2d565b8c610511565b60405162461bcd60e51b815260206004820152600f60248201526e098cadccee8d040dad2e6dac2e8c6d608b1b6044820152606490fd5b60405162461bcd60e51b815260206004820152601460248201527313585e080c4c081cd959591cc8185b1b1bddd95960621b6044820152606490fd5b60405162461bcd60e51b81526020600482015260156024820152744e656564206174206c65617374203220736565647360581b6044820152606490fd5b3461019e57604036600319011261019e57610c276115f3565b6024359081151580920361019e576001600160a01b031690338214610c9b57336000526005602052604060002082600052602052604060002060ff1981541660ff83161790556040519081527f17307eab39ab6107e8899845ad3d59bd9653f200f220920489ca2b5937696c3160203392a3005b60405162461bcd60e51b815260206004820152601960248201527822a9219b99189d1030b8383937bb32903a379031b0b63632b960391b6044820152606490fd5b3461019e57600036600319011261019e5760405160009060018054610d0081611654565b80845290828116908115610d795750600114610d3b575b61032b83610d27818703826116c4565b6040519182916020835260208301906115b3565b92508060005260209283600020916000925b828410610d6657505050810190910190610d2781610d17565b8054858501870152928501928101610d4d565b61032b9550610d2793506020915091849260ff191682840152151560051b8201019350610d17565b3461019e57602036600319011261019e5760043580600052600b60205260ff6040600020541615610de457600052600c6020526020604060002054604051908152f35b60405162461bcd60e51b815260206004820152600e60248201526d14d95959081b9bdd08199d5cd95960921b6044820152606490fd5b3461019e57602036600319011261019e57600435600052600a60205260406000208054610e49600183016116e7565b91610e56600282016116e7565b6006820154916007810154610e9c60ff600960088501549401541693610e8e604051988998895260e060208a015260e08901906115b3565b9087820360408901526115b3565b936060860152608085015260a0840152151560c08301520390f35b3461019e57602036600319011261019e576001600160a01b03610ed86115f3565b168015610ef75760005260036020526020604060002054604051908152f35b60405162461bcd60e51b815260206004820152602960248201527f4552433732313a2061646472657373207a65726f206973206e6f7420612076616044820152683634b21037bbb732b960b91b6064820152608490fd5b3461019e57602036600319011261019e57600435600052600b602052602060ff604060002054166040519015158152f35b3461019e57602036600319011261019e576020610f9d600435611880565b6040516001600160a01b039091168152f35b60208060031936011261019e5760043590610fc8611e85565b610fd46101c683611b6a565b81600052600a815260099160ff8360406000200154161561114557341561110c579081600052600a815260406000209160088301611013348254611dc7565b9055600383810193600681019391600482019160050160005b87548110156110d45761103f8183611d7a565b905490841b1c6001600160a01b0316906110598186611d7a565b905490851b1c80340290348204036110be5788549283156110a8576110a39361109c918a6000528d8a526040600020906000528952604060002092048254611dc7565b9055611d5b565b61102c565b634e487b7160e01b600052601260045260246000fd5b634e487b7160e01b600052601160045260246000fd5b857f61c930556685a120d8b29d3d33e10ea6455d094e97f6ce748f2e69c92d46b5ad6040878151903482523390820152a26001600655005b60405162461bcd60e51b81526004810183905260116024820152704d7573742073656e6420726576656e756560781b6044820152606490fd5b60405162461bcd60e51b815260048101839052600f60248201526e54726565206e6f742061637469766560881b6044820152606490fd5b3461019e5761001b61041f6111903661161f565b906040519261119e8461168e565b6000845261040f61040a84336119a6565b3461019e5761001b6111c03661161f565b916111ce61040a84336119a6565b611a6e565b3461019e5760208060031936011261019e576004356111f0611e85565b6111fc6101c682611b6a565b806000526009825260406000203360005282526040600020549182156112b5578160005260098152604060002033600052815260006040812055600080808086335af1611247611b87565b501561127f577fb9e8470097faa00e83252475f2ee4b69007b0bb2405268ebec248676998a21b3906040519384523393a36001600655005b6064906040519062461bcd60e51b82526004820152600f60248201526e151c985b9cd9995c8819985a5b1959608a1b6044820152fd5b6064906040519062461bcd60e51b8252600482015260136024820152724e6f20726576656e756520746f20636c61696d60681b6044820152fd5b3461019e57604036600319011261019e576113086115f3565b602435906001600160a01b03808061131f85611880565b1692169180831461141a578033149081156113f5575b501561138a57600083815260046020526040902080546001600160a01b0319168317905561136283611880565b167f8c5be1e5ebec7d5bd14f71427d1e84f3dd0314c0f7b2291e5b200ac8c7c3b925600080a4005b60405162461bcd60e51b815260206004820152603d60248201527f4552433732313a20617070726f76652063616c6c6572206973206e6f7420746f60448201527f6b656e206f776e6572206f7220617070726f76656420666f7220616c6c0000006064820152608490fd5b9050600052600560205260406000203360005260205260ff6040600020541684611335565b60405162461bcd60e51b815260206004820152602160248201527f4552433732313a20617070726f76616c20746f2063757272656e74206f776e656044820152603960f91b6064820152608490fd5b3461019e57602036600319011261019e576020610f9d6004356118a6565b3461019e57600036600319011261019e576020600754604051908152f35b3461019e57600036600319011261019e576040516000906000546114c881611654565b808352600191808316908115610d7957506001146114f05761032b83610d27818703826116c4565b600080805260209450917f290decd9548b62a8d60345a988386fc84ba6bc95484008f6362f93160ef3e5635b82841061153557505050810190910190610d2781610d17565b805485850187015292850192810161151c565b3461019e57602036600319011261019e576004359063ffffffff60e01b821680920361019e576020916380ac58cd60e01b81149081156115a2575b8115611591575b5015158152f35b6301ffc9a760e01b1490508361158a565b635b5e139f60e01b81149150611583565b919082519283825260005b8481106115df575050826000602080949584010152601f8019910116010190565b6020818301810151848301820152016115be565b600435906001600160a01b038216820361019e57565b602435906001600160a01b038216820361019e57565b606090600319011261019e576001600160a01b0390600435828116810361019e5791602435908116810361019e579060443590565b90600182811c92168015611684575b602083101461166e57565b634e487b7160e01b600052602260045260246000fd5b91607f1691611663565b602081019081106001600160401b0382111761079157604052565b606081019081106001600160401b0382111761079157604052565b601f909101601f19168101906001600160401b0382119082101761079157604052565b90604051918260008254926116fb84611654565b90818452600194858116908160001461176a5750600114611727575b5050611725925003836116c4565b565b9093915060005260209081600020936000915b81831061175257505061172593508201013880611717565b8554888401850152948501948794509183019161173a565b91505061172594506020925060ff191682840152151560051b8201013880611717565b9181601f8401121561019e578235916001600160401b03831161019e576020808501948460051b01011161019e57565b9181601f8401121561019e578235916001600160401b03831161019e576020838186019501011161019e57565b6001600160401b03811161079157601f01601f191660200190565b90815180825260208080930193019160005b828110611825575050505090565b835185529381019392810192600101611817565b1561184057565b60405162461bcd60e51b8152602060048201526018602482015277115490cdcc8c4e881a5b9d985b1a59081d1bdad95b88125160421b6044820152606490fd5b6000908152600260205260409020546001600160a01b03166118a3811515611839565b90565b6118b26102f082611b6a565b6000908152600460205260409020546001600160a01b031690565b156118d457565b60405162461bcd60e51b815260206004820152602d60248201527f4552433732313a2063616c6c6572206973206e6f7420746f6b656e206f776e6560448201526c1c881bdc88185c1c1c9bdd9959609a1b6064820152608490fd5b60809060208152603260208201527f4552433732313a207472616e7366657220746f206e6f6e20455243373231526560408201527131b2b4bb32b91034b6b83632b6b2b73a32b960711b60608201520190565b1561198957565b60405162461bcd60e51b8152806119a26004820161192f565b0390fd5b906001600160a01b0380806119ba84611880565b169316918383149384156119ed575b5083156119d7575b50505090565b6119e3919293506118a6565b16143880806119d1565b909350600052600560205260406000208260005260205260ff6040600020541692386119c9565b15611a1b57565b60405162461bcd60e51b815260206004820152602560248201527f4552433732313a207472616e736665722066726f6d20696e636f72726563742060448201526437bbb732b960d91b6064820152608490fd5b90611a9691611a7c84611880565b6001600160a01b0393918416928492909183168414611a14565b16918215611b195781611ab391611aac86611880565b1614611a14565b600080516020611fc6833981519152600084815260046020526040812060018060a01b03199081815416905583825260036020526040822060001981540190558482526040822060018154019055858252600260205284604083209182541617905580a4565b60405162461bcd60e51b8152602060048201526024808201527f4552433732313a207472616e7366657220746f20746865207a65726f206164646044820152637265737360e01b6064820152608490fd5b6000908152600260205260409020546001600160a01b0316151590565b3d15611bb2573d90611b98826117ea565b91611ba660405193846116c4565b82523d6000602084013e565b606090565b9091600091803b15611ca957611c026020918493604051948580948193630a85bd0160e11b9a8b845233600485015284602485015260448401526080606484015260848301906115b3565b03926001600160a01b03165af190829082611c5a575b5050611c4c57611c26611b87565b80519081611c475760405162461bcd60e51b8152806119a26004820161192f565b602001fd5b6001600160e01b0319161490565b909192506020813d8211611ca1575b81611c76602093836116c4565b81010312611c9d5751906001600160e01b031982168203611c9a5750903880611c18565b80fd5b5080fd5b3d9150611c69565b50505050600190565b91926000929190813b15611d2357602091611d089185604051958680958194630a85bd0160e11b9b8c845233600485015260018060a01b03809516602485015260448401526080606484015260848301906115b3565b0393165af190829082611c5a575050611c4c57611c26611b87565b5050505050600190565b818110611d38575050565b60008155600101611d2d565b6001600160401b0381116107915760051b60200190565b60001981146110be5760010190565b91908110156108ec5760051b0190565b80548210156108ec5760005260206000200190600090565b8054600160401b81101561079157611daf91600182018155611d7a565b819291549060031b91821b91600019901b1916179055565b919082018092116110be57565b81835290916001600160fb1b03831161019e5760209260051b809284830137010190565b15611dff57565b60405162461bcd60e51b815260206004820152601c60248201527b115490cdcc8c4e881d1bdad95b88185b1c9958591e481b5a5b9d195960221b6044820152606490fd5b15611e4a57565b60405162461bcd60e51b8152602060048201526013602482015272151c995948191bd95cc81b9bdd08195e1a5cdd606a1b6044820152606490fd5b600260065414611e96576002600655565b60405162461bcd60e51b815260206004820152601f60248201527f5265656e7472616e637947756172643a207265656e7472616e742063616c6c006044820152606490fd5b9060405191828154918282526020928383019160005283600020936000905b828210611f1057505050611725925003836116c4565b855484526001958601958895509381019390910190611efa565b9081602091031261019e57516001600160a01b038116810361019e5790565b60008060018060a01b039283600854169060405160208101916331a9108f60e11b8352602482015260248152611f7e816116a9565b51915afa611f8a611b87565b90158015611fba575b611fb257611fab816020808594518301019101611f2a565b1691161490565b505050600090565b506020815110611f9356feddf252ad1be2c89b69c2b068fc378daa952ba7f163c4a11628f55a4df523b3efa2646970667358221220ae411173e58a912903bc1adc398845192a9d358a23b5e8559ed331132aaadcc964736f6c63430008130033",
  "linkReferences": {},
  "deployedLinkReferences": {}
}